S31508000000807200203902000815410008213B0008CB
S3150800001011410008810B00085D4A00080000000035
S315080000200000000000000000000000003142000847
S31508000030550C000800000000214100085D42000838
S31508000040530200085302000853020008530200082E
S31508000050530200085302000853020008530200081E
S31508000060530200085302000853020008530200080E
S315080000700D0C000853020008190C0008530200086A
S3150800008053020008530200085302000853020008EE
S31508000090850B0008910B000853020008530200085C
S315080000A053020008530200085302000853020008CE
S315080000B053020008530200085302000853020008BE
S315080000C053020008530200085302000853020008AE
S315080000D053020008394A000853020008454A000836
S315080000E0530200085302000853020008530200088E
S315080000F0530200085302000853020008530200087E
S31508000100530200085302000853020008530200086D
S315080001105302000853020008394300084543000803
S3150800012053020008250C0008310C00085302000889
S31508000130530200085302000853020008530200083D
S315080001409D0B0008A90B000853020008530200087B
S31508000150530200083D0C0008490C0008514A0008E3
S31508000160530200085302000853020008530200080D
S31508000170530200085302000853020008000000005A
S31508000180530200085302000800F002F800F045F890
S315080001900AA090E8000C82448344AAF10107DA45D4
S315080001A001D100F03AF8AFF2090EBAE80F0013F0E1
S315080001B0010F18BFFB1A43F001031847AC1C0100D6
S315080001C0CC1C0100103A24BF78C878C1FAD8520767
S315080001D024BF30C830C144BF04680C6070470000B3
S315080001E00023002400250026103A28BF78C1FBD832
S315080001F0520728BF30C148BF0B6070471FB510F0C3
S315080002007EFC9DE8030000F08FFB00F0DFF91FBDC0
S3150800021010B5002000F0BEFB10BD00F0FCFB114637
S31508000220FFF7ECFF0DF006FD00F034FC03B4FFF712
S31508000230EFFF03BC00F04EFB09488047094800471A
S31508000240FEE7FEE7FEE7FEE7FEE7FEE7FEE7FEE778
S31508000250FEE7FEE704480549054A064B70470000D5
S315080002602543000889010008806C00208072002060
S31508000270806E0020806E002053EA020C00F0698030
S315080002802DE9F04B4FF00006002B1FBFB3FA83F59C
S3150800029003FA05F424FA05F65E4012BF1643B2FACD
S315080002A082F502FA05F4C5F120051EBF22FA05FCFF
S315080002B044EA0C04203556EA044C4FEA144418BFA5
S315080002C0641C4FF000084FF00009904271EB030CD4
S315080002D039D3002919BFB1FA81F701FA07F6B0FA3E
S315080002E080F700FA07F6C7F120071EBF20FA07FCB9
S315080002F046EA0C062037B6FBF4FCA7EB0507103FC9
S3150800030007F01F0BCBF120062CFA06F60CFA0BFBAE
S3150800031044BFB3460026202FA4BF5E464FF0000B0D
S315080003205BEA060C08BF4FF0010B19EB0B0948EB0B
S315080003300608ABFB027C06FB02CC0BFB03CCC01BFE
S3150800034071EB0C01C1E70B46024641464846BDE83B
S31508000350F08B13B5084318BF4FF0FF300146AFF3D3
S315080003600080BDE81C4070470B460146184600F061
S3150800037005BA10B5431C02E010F8011B71B18107DC
S31508000380FAD14FF0013202C88C1A8C4314EAC21112
S31508000390F9D0C01A0A0603D0C01E10BDC01A10BD77
S315080003A00A0401D0801E10BD0902FCD0401E10BDF3
S315080003B0032A40F2308010F0030C00F0158011F883
S315080003C0013BBCF1020F624498BF11F801CB00F85B
S315080003D0013B38BF11F8013BA2F1040298BF00F8AF
S315080003E001CB38BF00F8013B11F0030300F067802A
S315080003F0083AC0F0088051F8043B083A51F804CB93
S31508000400A0E80810F5E7121D5CBF51F8043B40F858
S31508000410043BAFF30080D20724BF11F8013B11F863
S3150800042001CB48BF11F8012B24BF00F8013B00F8A7
S3150800043001CB48BF00F8012B7047431A28BF9A42E0
S315080004407FF6B6AF10441144032A40F2268010F016
S31508000450030F1EBF11F8013D521E00F8013D10F0B2
S31508000460030F7FF4F6AF11F0030300F0B181083AE9
S31508000470C0F00B8051F8043D083A51F804CD40F815
S31508000480043D40F804CDFFF7F3BF121D5CBF51F8D9
S31508000490043D40F8043DAFF30080D20724BF11F8AD
S315080004A0013D11F801CD48BF11F8012C24BF00F811
S315080004B0013D00F801CD48BF00F8012C704710B582
S315080004C0203AC0F00B80B1E81850A0E81850B1E8FF
S315080004D01850A0E81850203ABFF4F5AF5FEA027C3E
S315080004E024BFB1E81850A0E8185044BF18C918C06E
S315080004F0BDE810405FEA827C24BF51F8043B40F80F
S31508000500043B08BF7047D20728BF31F8023B48BFF3
S3150800051011F8012B28BF20F8023B48BF00F8012B31
S31508000520704702F0FF0343EA032242EA024200F060
S3150800053024B84FF000020429C0F0128010F0030C12
S3150800054000F01B80CCF1040CBCF1020F18BF00F8B8
S31508000550012BA8BF20F8022BA1EB0C0100F00DB867
S315080005605FEAC17C24BF00F8012B00F8012B48BFC5
S3150800057000F8012B70474FF0000200B51346944669
S315080005809646203922BFA0E80C50A0E80C50B1F1DD
S315080005902001BFF4F7AF090728BFA0E80C5048BFF1
S315080005A00CC05DF804EB890028BF40F8042B08BF8F
S315080005B0704748BF20F8022B11F0804F18BF00F88B
S315080005C0012B7047704770477047000070B5064C9E
S315080005D07C44064D7D4404E0204601680844804773
S315080005E0241DAC42F8D170BDB4180100C81801002A
S315080005F070B5064600F074F9056806F10B0020F0A0
S315080006000704B4429CBF002070BD2B466A68BAB185
S315080006101068A04210D304F1080188423CBF506814
S31508000620586007D35168101941601168091B0160A9
S3150800063058601460101D70BD13465268002AE7D131
S315080006402146284600F05CF90028DED170BD70B559
S315080006500446051F00F044F90068002C14BF4468DE
S3150800066070BD002C18BFAC423CBF20466468F8D366
S3150800067001680A18AA4218BF456003D12A680546C8
S315080006801144016028684119A1421CBF6C6070BD05
S315080006906168696021680844286070BD2DE9F047E3
S315080006A091460C46804600F01BF90768604234EA1A
S315080006B0000001D1042C02D20520BDE8F087601E97
S315080006C040F0070609F10B0020F007054D459CBFD1
S315080006D00020BDE8F0873B467A6882B31468101D8F
S315080006E0404206EA000C644525D9A4EB0C00854275
S315080006F021D8BCF1000F0BD0104601686244A1EB6B
S315080007000C01116041685160C0F800C0586003468A
S31508000710116805F10800814205D35019491B01608B
S3150800072015605860034652F8040F58600020C8F850
S315080007300020BDE8F08713465268002ACED1294624
S31508000740384600F0DDF80028C5D10620BDE8F08758
S3150800075010B500F0CDF8006810BD10B5044600F0DD
S31508000760C7F8046010BD10B5002000F034F9FFF793
S315080007704FFDBDE81040012000F0ACB82DE9F0416E
S31508000780074615460E461020FFF732FF04000AD02A
S315080007906760C4E9026500F0A7F801682160046093
S315080007A00020BDE8F0810120FBE7431A28BF9A42E2
S315080007B07FF685AE1044114410F0030F1EBF11F8E2
S315080007C0013D521E00F8013D10F0030F7FF4F6AF0D
S315080007D0103AC0F00A8010B531E9185020E91850CF
S315080007E0103ABFF4F9AFBDE81040530724BF31E90A
S315080007F0081020E9081044BF51F8043D40F8043DAC
S3150800080012F0030F08BF7047D20728BF31F8023D20
S3150800081048BF11F8012C28BF20F8023D48BF00F850
S31508000820012C70470000000030B44FF0013C50F82E
S31508000830042B51F8043BCCFA52F4D51A20D1FCB952
S3150800084050F8042B51F8043BCCFA52F4D51A17D1B8
S31508000850B4B950F8042B51F8043BCCFA52F4D51A23
S315080008600ED16CB950F8042B51F8043BCCFA52F46B
S31508000870D51A05D1002CDAD030BC4FF000007047ED
S3150800088029BAB1FA81F111F01801D1F1200084409A
S31508000890F2D1CA40CB4012F0FF0213F0FF0330BC7E
S315080008A0D01A704780E8FF1FC0F834D0C0F838E087
S315080008B0C0F83CE04FF00000704700BF80EC200B0A
S315080008C0704700BF80EC200B704700BFC0EC200BC0
S315080008D07047000001491820ABBEFEE7260002005B
S315080008E0004870477000002000487047A0000020AC
S315080008F00048704768000020704770477047704787
S3150800090038B504460A4600206946AFF30080002839
S3150800091008BF38BD02460099204600F0A1F801201C
S3150800092038BD012000F0DCB8F8B5AFF30080054605
S3150800093000200C46102000BF0646A819A0420DD973
S31508000940324669460020AFF30080070008BF00F072
S31508000950C7F80098A04218BF0546C419FFF7C0FF9C
S3150800096005600746F01D20F007004619284600F0E6
S315080009700AF8B44208BFF8BDA21B31463868BDE87C
S31508000980F84000F06DB800210160C0E90110704719
S31508000990102070472DE9F0410646FFF7A5FF80466F
S315080009A0454613E016B1E068B0420ED120682860CB
S315080009B0D4E90101D8F8007088472046FFF747FEBA
S315080009C0D8F80000B842EBD100E025462C68002C88
S315080009D0E8D1BDE8F08110B500F06AF8BDE810402E
S315080009E000F061B886469EE8FF1FDEF834D0DEF8D0
S315080009F03CE0704790EC200B704700BF90EC200B52
S31508000A00704700BFD0EC200B7047000000487047C5
S31508000A106800002070477546FFF7F8FFAE460500E8
S31508000A206946534620F00700854618B020B5FFF7FB
S31508000A3011FCBDE820404FF000064FF000074FF0CC
S31508000A4000084FF0000BAC46ACE8C009ACE8C0099A
S31508000A50ACE8C009ACE8C00921F007018D4670472B
S31508000A60034640688C46002818BF88423CBF0346A8
S31508000A704068F8D318681844884207D00CF1030078
S31508000A8020F00700001D411A521A0146081D0A6087
S31508000A90FFF7DDBD10B50446AFF300802046BDE87C
S31508000AA01040FFF7C3BB002801D0FFF713BF7047FC
S31508000AB010B5002102A000F01AF8012010BD0000B0
S31508000AC0534947414252543A2041626E6F726D61F2
S31508000AD06C207465726D696E6174696F6E000000D2
S31508000AE010B500F01DF8BDE81040FFF7DCBF70B583
S31508000AF005460C460A2000E06D1C00F039F835B1B1
S31508000B0028780028F8D102E0641C00F031F814B106
S31508000B1020780028F8D1BDE870400A2000F028B8EF
S31508000B2010B5012805D0002103A0FFF7E0FF01203A
S31508000B3010BD09A1F8E7000053494752544D454DE9
S31508000B403A204F7574206F662068656170206D6560
S31508000B506D6F7279000000003A2048656170206D5B
S31508000B60656D6F727920636F727275707465640053
S31508000B7008B569468DF800000320ABBE08BD000025
S31508000B80FEE7000041F2B850C2F2000000F014BAC5
S31508000B9041F2B850C2F2000000F00EBA41F2E0503D
S31508000BA0C2F2000000F008BA41F2E050C2F20000BA
S31508000BB000F002BAF0B581B04FF4FA700DF064F89F
S31508000BC042F2F064C2F20004204605F065F902E03C
S31508000BD002200DF059F8D4E90067BE4203D1F7E7C1
S31508000BE00436B742F4D03568002DF9D02868C168B4
S31508000BF0284688472868816828468847F0E700001D
S31508000C0080B500BF05200DF03FF8FBE741F2C8604C
S31508000C10C2F2000000F026BD41F22870C2F20000C0
S31508000C2000F020BD41F28870C2F2000000F01ABD43
S31508000C3041F20860C2F2000000F014BD41F2E8700B
S31508000C40C2F2000000F00EBD41F26860C2F2000078
S31508000C5000F008BD7047000040F27820C2F200009C
S31508000C6008300AF075B8000072B600BFFEE700004B
S31508000C7070B540F27824C2F200044FF4FA7004F119
S31508000C800C0500BF0DF000F826690120AE42F9D028
S31508000C90B0680168096888477668AE42F8D10120CD
S31508000CA0F0E7000090F82020013A012A08D80068E9
S31508000CB000F114020020136819431160704700BF41
S31508000CC000F1240201204FF48021136819431160B2
S31508000CD07047000010B590F820E0D0F800C0AEF1DB
S31508000CE0010EBEF1010FDCF808E00FD81EF0E05F38
S31508000CF016D0CEF3016E012000FA0EF018608B684C
S31508000D00C3B1486843EAC00316E000BF00F12401F6
S31508000D1001204FF480220B681A430A6010BD00BFF9
S31508000D2000F1240101204FF400120B681A430A60EF
S31508000D3010BD00BF08684305D1E9030403430CEB63
S31508000D400E10C0F88031C0F88441097D012905D10B
S31508000D5000F5C2710B6843F480730B605168C0F8E4
S31508000D608C11126800F5C071C0F888210020012294
S31508000D700B681A430A6010BDB0B590F82020013AF6
S31508000D80012A2FD846F20060C4F20000026842F039
S31508000D9001020260026822F47C520260D1F814E073
S31508000DA0CC694A6A0368012C43EA022202600EF003
S31508000DB01F024FF0010303FA02F2C3696FEA020C3D
S31508000DC023EA0203C36113D02CBBC36803EA0C03EE
S31508000DD0C360CB688C8844EA034300EBCE042364E3
S31508000DE00B4611E0416A41F4802141620120B0BD01
S31508000DF0C3681343C3600B688C8844EA034300EB5B
S31508000E00CE04236401F10C038C681B8843EA04436F
S31508000E1000EBCE04636443688D6943EA0204D1F8A3
S31508000E2010E0096A002D08BF03EA0C044460436910
S31508000E30BEF1000F43EA020408BF03EA0C040129C5
S31508000E40446102D1C1691143C161016821F0010100
S31508000E5001600020B0BD00007047000010B590F892
S31508000E602040013C012C7BD8D0F800C0002900F0B6
S31508000E708180DCF81040A40700F081800CEB011C8F
S31508000E80DCF8B0410CF5D87E14F004049460DCF864
S31508000E90B04119BFE4085460640D1460DEF80040E0
S31508000EA00CF5DA7E04F00204D460DCF8B4412407B9
S31508000EB05ABFDEF8004004F00F0408241461DEF877
S31508000EC000400029C4F307249461DEF800404FEA85
S31508000ED014445461DCF8B8211A70026802EB011256
S31508000EE0D2F8B8214FEA12225A70026802EB0112B0
S31508000EF0D2F8B8214FEA12429A70026802EB011240
S31508000F00D2F8B8214FEA1262DA70026802EB0112CF
S31508000F10D2F8BC211A71026802EB0112D2F8BC2180
S31508000F204FEA12225A71026802EB0112D2F8BC216A
S31508000F304FEA12429A71026802EB0112D2F8BC21FA
S31508000F404FEA1262DA71006814BF00F1100100F16D
S31508000F500C01002020220B681A430A6010BD00BF4E
S31508000F6000F1240101204FF480220B681A430A601D
S31508000F7010BD00BFDCF80C40A4077FF47FAF00F17A
S31508000F80240101204FF400120B681A430A6010BDB1
S31508000F9090F820100139012984BF002070470068A5
S31508000FA0816882688068C1F38061C2F3C0621144B7
S31508000FB0C0F30070084470472DE9F04F81B004462D
S31508000FC000684669D0F804908768D0F80CB0D0F865
S31508000FD010A0D0F81880F10704D1002530071DD4D9
S31508000FE024E000BFF90710D00121BA07816009D4AF
S31508000FF0780700F1AF80380700F1B680204600F088
S31508001000C7FA02E0204600F0C5FA0025F80500F107
S315080010108780F80300F1B180300707D51BF0100070
S3150800102004D0206845F400751021C160700708D502
S315080010301BF0080005D020680821C160204600F092
S315080010400DFAB00706D52068C068800702D020468A
S3150800105000F006FA700607D51AF0100004D02068CA
S3150800106045F4806510210161B00608D51AF008001C
S3150800107005D0206808210161204600F055FAF006DF
S3150800108006D520680069800702D0204600F04EFA8F
S31508001090B00308D519F0100005D02068102141606A
S315080010A0204600F045FAF00308D519F0080005D0E7
S315080010B0206808214160204600F076FA300440F1A5
S315080010C09B805FEA497040F1948006F4807008EAD4
S315080010D0102028435FEA8871014648BF41F00201A3
S315080010E0B20558BF01465FEA48700D4648BF45F04D
S315080010F00405700558BF0D46300540F17A8018F092
S31508001100700000F076801038000905286CD8DFE8F2
S3150800111000F003595D61656945F0080564E000BFA4
S3150800112020684FF48071BA0581600BD4780515D410
S3150800113038051DD4204600F02FFAF8037FF56CAF6A
S315080011401BE000BF204600F029FAF8037FF564AFDC
S3150800115013E000BF4FF4006558E700BF05F50055DA
S31508001160F8037FF559AF08E04FF480554EE700BF06
S3150800117005F58045F8037FF54FAF20684FF48031B9
S31508001180BA0381600AD4780310D4380314D42046ED
S3150800119000F006FA30073FF541AF47E7204600F072
S315080011A001FA30073FF53AAF40E700BF05F50045BD
S315080011B030073FF533AF39E705F5803530073FF59A
S315080011C02DAF33E745F010050EE000BF45F02005CA
S315080011D00AE000BF45F0400506E000BF45F080057F
S315080011E002E000BF45F480752068816921F070012E
S315080011F0816120680421416055B1606A40EA0501B1
S315080012002046616201B0BDE8F04FFFF725BE00BF7A
S3150800121001B0BDE8F08F0000B0B5C8B1044690F83B
S31508001220200010B9204600F071F82068016841F0E6
S315080012300101016000F0D6FC054600BF2068416840
S31508001240C90707D100F0CEFC401B0B28F6D312E0E5
S315080012500120B0BD016821F00201016000F0C2FC66
S31508001260054600BF2068416889070DD500F0BAFC1D
S31508001270401B0B28F6D3606A052140F400306062F3
S31508001280012084F82010B0BD217E0268012922F0D1
S31508001290800208BF80320260617E0268012922F05E
S315080012A0400208BF40320260A17E0268012922F08E
S315080012B0200208BF20320260E17E0268012922F07E
S315080012C0100218BF10320260217F0268012922F03D
S315080012D0080208BF08320260617F0268012922F00D
S315080012E0040208BF04320260D4E901C2D4E9033516
S315080012F061691A432A431143ACF101021143C161E2
S3150800130000200121606284F82010B0BDB0B586B017
S31508001310006846F60002C4F2000200219042CDE9B8
S315080013200411CDE90211019144D046F20041C4F2FC
S315080013300001884240F08F8040F25861C2F20001F5
S315080013400A6843F64000C4F20200531C0B6052B907
S3150800135000210091016841F000710160016801F007
S315080013600071009100990021009150F8102C42F06C
S31508001370080240F8102C50F8100C022200F0080061
S31508001380009000980320019004900920059040F2EF
S315080013900040C4F20200CDE9022100F5006001A96F
S315080013A000F042FB142000210022142500F0DAFC8C
S315080013B0152445E043F64000C4F202000091016896
S315080013C041F080610160016801F080610091009937
S315080013D040F25861C2F200010A68531C0B6052B908
S315080013E000210091016841F000710160016801F077
S315080013F00071009100990021009150F8102C42F0DC
S31508001400020240F8102C50F8100C00F00200009070
S315080014100098602001900220CDE902010320049083
S315080014200920059040F20040C4F2020001A900F02C
S31508001430FBFA402005210022402500F093FC4124B8
S31508001440284600F07FFC20460521002200F08AFC91
S31508001450204600F077FC06B0B0BD000070470000DB
S31508001460B0B586B040F24024C2F2000404F1080286
S31508001470002123460546FFF7F1FC41F2B850C2F2B7
S315080014800000854207D041F2E050C2F200008542D2
S3150800149025D006B0B0BD04F1140E9EE8215004F123
S315080014A008030ECB8DE8215040F2B040C2F200008E
S315080014B004940AF023FD04F1140E9EE8215004F169
S315080014C008030ECB8DE8211040F2E840C2F2000076
S315080014D00494CDF80CE00AF011FD06B0B0BD04F195
S315080014E0140E9EE8215004F108030ECB8DE8215016
S315080014F040F2CC20C2F20000049404F009F904F189
S31508001500140E9EE8215004F108030ECB8DE8211035
S3150800151041F2B030C2F200000494CDF80CE009F0B4
S31508001520D9F906B0B0BD000070470000704700004A
S3150800153070470000B0B5044690F8200001281DD178
S31508001540022084F820002068016821F0010101606A
S3150800155000F048FB054600BF20684068C00713D066
S3150800156000F040FB401B0B28F6D3606A40F40030BD
S315080015706062052084F820000120B0BD606A40F44E
S31508001580002060620120B0BD00206062B0BD00008E
S315080015907047000070470000704700007047000061
S315080015A070470000704700007047000070B5866DF0
S315080015B0044600F017FB94F8351002292ED105468B
S315080015C02068216C026822F016020260426922F045
S315080015D08002426109B9A16C19B1016821F00801BC
S315080015E00160016821F0010101600068C00708D0A8
S315080015F000F0F8FA401B052818D820680068C007CC
S31508001600F6D1E06D3F2101FA00F0B060012084F8C0
S3150800161035000020002184F8341070BD80206065F4
S315080016200120002184F8341070BD00BF20206065B9
S31508001630032084F83500002184F8341070BD0000BA
S3150800164090F83510022909D1052180F8351000686F
S31508001650016821F001010160002070478021416581
S3150800166001207047F0B581B004460020009040F292
S315080016704C00C2F200000268D4E9166048F2B513BD
S3150800168037680821C1F64E3381403942A2FB03254B
S315080016900CD0226813685B0708D5136823F0040387
S315080016A01360B160616D41F00101616501218140FE
S315080016B0394208D022685269120604D5B160616DB4
S315080016C041F00201616504218140394208D022684F
S315080016D01268920704D5B160616D41F00401616535
S315080016E010218140394217D020680268120713D5A5
S315080016F0B16002680168520308D4C90508D40168B4
S3150800170021F008010160216C21B905E008033FD4E6
S31508001710216C09B120468847E16D202000FA01F2C4
S315080017203A4241D020680368DB063DD5B26094F89A
S3150800173035300268052B1BD122F016020260426979
S3150800174022F080024261226C0AB9A26C1AB10268C0
S3150800175022F0080202603F208840B060012084F829
S315080017603500216D0020002984F8340052D157E055
S315080017700168520310D4C90512D4016821F010017A
S315080017800160012084F83500002084F8340007E061
S31508001790A16C0029BED1BFE7080301D4616C00E043
S315080017A0E16B09B120468847606DC8B3606DC00714
S315080017B02ED0052084F835002068A90A026822F090
S315080017C001020260009A01328A4200921AD802681F
S315080017D0D20717D0009A01328A42009212D80268BC
S315080017E0D2070FD0009A01328A4200920AD80268BC
S315080017F0D20707D0009A01328A42009202D80268BC
S31508001800D207DFD1012084F83500002084F834009F
S31508001810E16C29B1204601B0BDE8F040084700BF99
S3150800182001B0F0BD2DE9F041044600F0DBF9002CCB
S315080018304ED00546022084F835000020216884F839
S315080018403400086820F0010008600868C00708D05E
S3150800185000F0C8F9401B05286CD821680868C0073D
S31508001860F6D1086848F23F02CFF21002D4E90135F2
S31508001870024004F10C0E9EE8C1511A432A43104354
S315080018803043384340EA0800626A40EA0C00042AFA
S3150800189040EA0E0320D1D4E90A5E206B4EEA030221
S315080018A0104308604869BEF1000F20F0030040EAC3
S315080018B0050040F0040C15D0B8F5005F42D0B8F129
S315080018C0000F51D1022D52D0012D47D055B94EE007
S315080018D00120BDE8F08100BF0B60486920F00700D1
S315080018E040EA020C6FF00F004AF6AB2250FA81F07C
S315080018F0CAF6AA22A0FB02231A0941F22453C0F60B
S3150800190001039A5C40F2FF335F284FF03F00C1F8AD
S3150800191014C021EA030100FA02F088BF0431C4E9C1
S3150800192016128860002301220020636584F835209A
S31508001930BDE8F081032220230320636584F835205F
S31508001940BDE8F081032DCDD8012240230120DFE830
S3150800195005F0030E030500BFE7E700BFAEF1C07050
S31508001960B0FA80F0400904E0032D04D3BAD1CEF3CF
S3150800197000600028B6D0012240230120636584F860
S315080019803520BDE8F081000070B590F834C0BCF190
S31508001990010F46D04FF0010C80F834C0D0F858E05B
S315080019A090F835C0BCF1010F38D14FF0020C80F821
S315080019B035C04FF0000CC0F854C0D0F800C0846899
S315080019C0056CC06DDCF80060402C26F48026CCF847
S315080019D00060CCF804300B4604BF13460A463F2184
S315080019E001FA00F0CCF80830CCF80C20CEF8080044
S315080019F0DCF8000040F01600CCF800002DB1DCF849
S31508001A00000040F00800CCF80000DCF8000040F0C8
S31508001A100100CCF80000002070BD00BF002180F84E
S31508001A203410022070BD00002DE9F04F82B000F19D
S31508001A303E4241F6004502F1FF77C4F2020508224C
S31508001A404FEAB726A84208BF0722072E38BF4FEA33
S31508001A50B7224FF0010A002400274FF00008009231
S31508001A6008E000BF023708F10108202F04F104043A
S31508001A7000F0B4800E680AFA08F916EA090FF1D0E0
S31508001A80D1F804A00AF0030BABF10106012E17D812
S31508001A900322866802FA07FECA6826EA0E06BA40D4
S31508001AA0324382604268CAF3001522EA090205FA3F
S31508001AB008F54FEA480C6FEA0E062A4342600BE027
S31508001AC00322BA40D643BBF1030FBC4604D1BC4639
S31508001AD04FF0030B22E000BFC2688D68324005FA5A
S31508001AE00CF52A43BBF1020FC26017D16FF003024F
S31508001AF002EA5802024404F01C030F25D2F820E03B
S31508001B0005FA03FA0D692EEA0A0E05FA03F343EA03
S31508001B100E031362D1F804A00AF0030B02680BFA4D
S31508001B200CF332401A431AF4403F4FF0010A0260A0
S31508001B3098D0002243F644030192C4F202031A68BD
S31508001B4043F6004E42F480421A601A68C4F2010E47
S31508001B5002F480420192019A28F003024FF6084CDB
S31508001B607244CFF6FF7C52F80C3004F00C060F25B1
S31508001B70B540AB43009D05FA06F6334342F80C30F0
S31508001B80DEF808204B6842EA090643F60C4CDD02EB
S31508001B9058BF22EA0906CEF80860C4F2010CDCF840
S31508001BA000209D0242EA090658BF22EA0906CCF837
S31508001BB00060DEF804209D0342EA090658BF22EABF
S31508001BC00906CEF80460DEF80020DB0342EA0906BF
S31508001BD058BF22EA0906CEF8006043E702B0BDE81E
S31508001BE0F08F000046F28050C2F20000006870478D
S31508001BF040F2000046F28051C2F20000C2F2000133
S31508001C0000780A68104408607047000080B543F6FB
S31508001C100040C4F20200016841F4007101600168E5
S31508001C2041F480610160016841F48071016003201C
S31508001C3000F0C4F80F2000F005F800F061F8002065
S31508001C4080BD000070B586B0002543F640010195B9
S31508001C50C4F202010A68044642F010020A600968E2
S31508001C6001A801F0100101910199694600F066F991
S31508001C70049E002E18BF012600F080F94DF68361F8
S31508001C80B040C4F21B31A0FB01014FF0FF3000EB5E
S31508001C90914141F6D80041F20002C2F20000C4F2B6
S31508001CA0000240F2E733C0E90021C0E902530561AA
S31508001CB0856100F0DDFB054610B1284606B070BD0B
S31508001CC041F6D800C2F2000000F08CFC0546002858
S31508001CD0F3D1362000F036F80F2C0DD836202146E1
S31508001CE00022002500F03EF840F20400C2F200008F
S31508001CF00460284606B070BD0125284606B070BDAA
S31508001D0082B0002043F640010190C4F202014A68FD
S31508001D1042F480424A604A6802F480420192019A7B
S31508001D2000900868002240F08050086008680F217B
S31508001D3000F08050009000986FF0010002B000F0AB
S31508001D4011B80000002848BF704700F01F010122A3
S31508001D5002FA01F14EF200124009CEF2000242F8F0
S31508001D602010704710B54EF60C5CCEF2000CDCF86D
S31508001D700030C3F3022E8EF00704042C28BF042477
S31508001D80BEF103034FF0FF3E0EFA04F438BF0023FA
S31508001D90A14399400EFA03F39A43114300F00F0248
S31508001DA0043A624409010C3200F16043B0F1FF3F86
S31508001DB0C8BF03F56442117010BD00004EF60C5101
S31508001DC0CEF200010A684FF6FF031A4060F30A22B2
S31508001DD042F0806040F0FD70086070472DE9F041E0
S31508001DE0002800F08B8043F60808C4F2020804466F
S31508001DF0D8F8F8030D4600F00700884207D288F89D
S31508001E00F853D8F8F80300F00700A84276D12068FE
S31508001E10810717D5410705D5D8F8001041F4E051D8
S31508001E20C8F80010010705D5D8F8001041F460413C
S31508001E30C8F80010D8F80010A26821F0F001114384
S31508001E40C8F80010C0073FD1D8F8F80300F007001B
S31508001E50A84207D988F8F853D8F8F80300F007001D
S31508001E60A8424BD12068410707D5D8F80010E26888
S31508001E7021F4E0511143C8F80010000708D5D8F836
S31508001E800000216920F4604040EAC100C8F800005B
S31508001E9000F09CF8D8F8001040F66862C1F3031108
S31508001EA0C0F60102515C40F24C0220FA01F140F200
S31508001EB00400C2F200000068C2F200021160FFF7D7
S31508001EC0C1FE0020BDE8F0816068811E022907D2A4
S31508001ED058F8081C89015CBF0120BDE8F08111E0B3
S31508001EE0012807D158F8081C89035CBF0120BDE802
S31508001EF0F08107E058F8081C890703D40120BDE8DB
S31508001F00F08100BFD8F8001021F003010843C8F893
S31508001F100000FFF767FE064641F28837D8F800004A
S31508001F20616800F00C00B0EB810F8DD0FFF75AFE08
S31508001F30801BB842F2D90320BDE8F0810F22026067
S31508001F4043F60802C4F20202136803F0030343606F
S31508001F50136803F0F0038360136803F4E053C36067
S31508001F60D2F800C04FF4E05303EADC030361D2F869
S31508001F70F80300F0070008607047000040F24C00C4
S31508001F8043F60801C2F20000C4F2020100680968BB
S31508001F9040F67862C1F38221C0F60102515CC8405E
S31508001FA07047000040F24C0043F60801C2F20000F8
S31508001FB0C4F202010068096840F67862C1F342314A
S31508001FC0C0F60102515CC8407047000010B543F6E0
S31508001FD00404C4F20204606800F00C0008280BD060
S31508001FE0042819BF42F20040C0F2F40041F600305E
S31508001FF0C0F2B70010BD00BF2068216823684902F7
S3150800200041F60031C0F2B70100F03F02C3F3881071
S315080020105CBF42F20041C0F2F401A1FB00010023BB
S31508002020FEF72AF921680222C1F3014102EB4101B8
S31508002030B0FBF1F010BD00002DE9F04182B0002898
S315080020406AD00446007843F60006C007C4F20206C2
S315080020500BD0B06800F00C00042840F0A18030686E
S31508002060800302D56068002856D0207880071AD5E4
S31508002070B06810F00C0F09D0B06800F00C00082802
S3150800208040F0A8807068400200F1A480306880079C
S3150800209002D5E06801283FD13068216920F0F800B0
S315080020A040EAC10030602078000739D4207840071C
S315080020B04ED4A5695DB3B06800F00C00082840F05E
S315080020C0BD80012D28D07068E16900F480028A423B
S315080020D022D1216A00F03F028A421DD147F6C0711B
S315080020E0626A0140B1EB821F16D1A26A0023CFF6BD
S315080020F0FF7303EBC23200F440316FF30F029142D3
S315080021000AD1E16A00F07060B0EB016F04D10020DB
S3150800211002B0BDE8F08100BF012002B0BDE8F08141
S315080021206069002840F20000C4F2472076D00121F9
S31508002130C0F8801EFFF756FD054600BF706F800782
S31508002140B4D4FFF74FFD401B0228F7D9DDE000BFE6
S31508002150306C10F080580AD100200190306C40F0A5
S3150800216080503064306C00F080500190019847F23E
S315080021700007C4F200073868C00541D4386840F43F
S3150800218080703860FFF72EFD054600BF3868C00529
S3150800219036D4FFF727FD401B0228F7D9B5E000BF64
S315080021A0B06800F00C00082803D1706840023FF5BB
S315080021B056AF6068B0F5803F07D0B0F5A02F40F065
S315080021C08D80306840F480203060306840F480307C
S315080021D030608DE0E068002852D00020C4F2472025
S315080021E001210160FFF7FEFC054600BF3068800745
S315080021F03FF552AFFFF7F6FC401B0228F6D984E0FC
S31508002200A068012805D005284ED1306F40F004009B
S315080022103067306F40F0010030674FE00021C0F8AA
S31508002220801EFFF7DFFC0546706F80077FF53EAF1F
S31508002230FFF7D8FC401B0228F6D966E00027C4F24F
S31508002240472700203866FFF7CDFC022D05460BD13F
S31508002250306880015ED5FFF7C5FC401B02284FF0A9
S315080022600300F5D954E700BF306880017FF54FAF0A
S31508002270FFF7B8FC401B02284FF00300F4D947E7E4
S315080022800020C4F2472000210160FFF7ABFC054699
S31508002290306880077FF507AFFFF7A4FC401B0228CC
S315080022A04FF00300F4D933E7316F002821F001011C
S315080022B03167316F21F0040131674DD0FFF792FC89
S315080022C0054641F2883700BF306F800756D4FFF7BE
S315080022D089FC401BB842F7D917E000BF31680028CF
S315080022E021F480313160316821F4802131604FD08A
S315080022F0FFF778FC054600BF306880033FF5B5AEAA
S31508002300FFF770FC401B6428F6D9032002B0BDE82D
S31508002310F08100BF04F11C052FCD08430021CFF63C
S31508002320FF7140EA821001EBC3316FF30F0140EAF7
S3150800233005600843706001203866FFF753FC0446C1
S31508002340306880013FF5E3AEFFF74CFC001B02281E
S315080023504FF00300F4D9DBE6FFF744FC054641F2EB
S31508002360883700BF306F800708D5FFF73BFC401B56
S31508002370B8424FF00300F5D9CAE600BFB8F1000F1E
S315080023807FF497AE306C20F08050306491E600BF41
S31508002390FFF728FC054600BF306880037FF565AE69
S315080023A0FFF720FC401B64284FF00300F4D9AFE682
S315080023B0704700007047000010B590F83C20012ACD
S315080023C04FF0020251D080F83D200268D2F804E0AE
S315080023D0D2F808C00C682EF07003234341F2FF744C
S315080023E0C4F20004A24253600EDC40F2FF73C4F24A
S315080023F000039A4216DCB2F1804F2BD040F200431C
S31508002400C4F2000324E000BF40F2FF33C4F2010324
S315080024109A4213DC41F60003C4F200039A4219D02B
S31508002420002313E040F60003C4F200039A4211D0D9
S3150800243040F60043C4F200030AE000BF44F200037A
S31508002440C4F201039A4205D040F20043C4F20103E4
S315080024509A4204D149682CF08003194391600121FE
S31508002460002280F83D1080F83C20104610BD000080
S31508002470002804BF0120704710B5044690F83D00B7
S3150800248028B9002084F83C00204600F01FF80220F6
S3150800249084F83D002068211D01F05AFF012084F8C8
S315080024A0460084F83E0084F83F0084F8400084F82B
S315080024B0410084F8420084F8430084F8440084F814
S315080024C0450084F83D00002010BD000080B582B0AC
S315080024D0006841F20041C4F20001884216D040F675
S315080024E00041C4F2000188420ED10020019043F653
S315080024F04000C4F20200016841F00801016000686A
S3150800250000F008000190019802B080BD00200090FC
S3150800251043F64000C4F202000168002241F020019F
S3150800252001600068012100F0200000900098372023
S31508002530FFF718FC372002B0BDE88040FFF702BC61
S3150800254090F83D1001291CBF01207047022180F830
S315080025503D10006841F2FF71C4F2000188420DDCAB
S3150800256040F2FF71C4F20001884215DCB0F1804FD9
S315080025702AD040F20041C4F2000123E040F2FF31C4
S31508002580C4F20101884213DC41F60001C4F20001DD
S31508002590884219D0002113E040F60001C4F2000178
S315080025A0884211D040F60041C4F200010AE000BF9B
S315080025B044F20001C4F20101884205D040F200410C
S315080025C0C4F20101884206D1816801F00701062993
S315080025D004BF00207047016841F001010160002036
S315080025E07047000090F83D1001291CBF0120704774
S315080025F0022180F83D10006841F2FF72C168C4F2FA
S315080026000002904241F00101C1600DDC40F2FF7109
S31508002610C4F20001884215DCB0F1804F2AD040F29E
S315080026200041C4F2000123E040F2FF31C4F2010187
S31508002630884213DC41F60001C4F20001884219D031
S31508002640002113E040F60001C4F20001884211D0CF
S3150800265040F60041C4F200010AE000BF44F200015E
S31508002660C4F20101884205D040F20041C4F20101DA
S31508002670884206D1816801F00701062904BF0020B7
S315080026807047016841F001010160002070470000B1
S3150800269080B590F83C20012A4FF0020200F0C28073
S315080026A080F83D20D0F800C04FF67772DCF8083085
S315080026B023EA0202CCF808200B684F2B28DC1F2BD4
S315080026C044DD202B45D0302B43D0402B40F0AC8046
S315080026D0D1F804E0C968DCF82030DCF8202022F0C4
S315080026E00102CCF82020DCF8182022F0F00242EA99
S315080026F0011123F00A0242EA0E02CCF81810CCF8AF
S315080027002020DCF8081041F0470121F0300180E074
S315080027106F2B27DDB3F5005F48D0B3F5805F7AD01D
S31508002720702B40F08180D1E901E3C968DCF8082004
S3150800273043EA0E0322F47F4243EA01211143CCF80F
S315080027400810DCF8081041F0770162E00BB1102B95
S315080027506AD1DCF8081021F07001194341F007012D
S3150800276057E000BF502B35D0602B5DD1D1F804E07F
S31508002770C968DCF82030DCF8202022F01002CCF8FA
S315080027802020DCF8182022F4704242EA013123F0B6
S31508002790A00242EA0E12CCF81810CCF82020DCF879
S315080027A0081041F0670121F0100132E0D1E901E398
S315080027B0C968DCF8082043EA0E0322F47F4243EA9C
S315080027C001211143CCF80810DCF8081041F48041C7
S315080027D01FE000BFD1F804E0C968DCF82030DCF857
S315080027E0202022F00102CCF82020DCF8182022F064
S315080027F0F00242EA011123F00A0242EA0E02CCF87C
S315080028001810CCF82020DCF8081041F0570121F008
S315080028102001CCF808100022012180F83D10002183
S3150800282080F83C10104680BD0122F5E7704700008D
S3150800283070B504460068C5680669B10716D515F06F
S31508002840020113D06FF0020101610121217780692D
S31508002850800703D02046FFF7E9FF05E0204600F091
S315080028608FF8204600F0EAF900202077700719D57E
S3150800287015F0040016D020686FF0040101610221EA
S315080028802177806910F4407F04D02046FFF7CEFFF9
S3150800289006E000BF204600F073F8204600F0CEF9A7
S315080028A000202077300717D515F0080014D02068C7
S315080028B06FF00801016104212177C069800703D000
S315080028C02046FFF7B3FF05E0204600F059F82046FA
S315080028D000F0B4F900202077F00619D515F010009D
S315080028E016D020686FF01001016108212177C069B0
S315080028F010F4407F04D02046FFF798FF06E000BF9B
S31508002900204600F03DF8204600F098F90020207790
S31508002910F00718BF15F0010002D1300609D412E0FD
S3150800292020686FF001010161204600F013FA3006B5
S3150800293009D515F0800006D020686FF08001016186
S315080029402046FFF735FD700609D515F0400006D07C
S3150800295020686FF040010161204600F00DFAB006CC
S3150800296058BF70BD15F0200008D021686FF020020E
S3150800297020460A61BDE87040FFF71CBD70BD000027
S31508002980704700002DE9F04190F83C30012B04BF58
S315080029900220BDE8F0814FEAB202032A00F2FC8069
S315080029A0DFE802F0023E7EBE036840F200471C6A7A
S315080029B01A6A24F0020422F001021A621A46D3F8AF
S315080029C004E052F818CF8E6843F48065C4F2010714
S315080029D0BD4244EA060405D1CE6824F00C0426F06C
S315080029E0040634430E68BD4207D1D1E905572EF4D3
S315080029F0407E45EA0E0545EA070E2CF07307374375
S31508002A00C3F804E09F614F6809695F631C629F69A8
S31508002A1047F008079F619F6927F004079F61B1E0A7
S31508002A20036840F200481C6A1A6A24F0200422F05F
S31508002A3010021A621A46D3F804E052F818CF8F68C3
S31508002A4043F48065C4F20108454544EA071407D1F2
S31508002A50CF686FF0400624F0C00406EA0716344330
S31508002A600F68454507D1D1E905562EF4406E4EEA62
S31508002A70850545EA860E2CF4E64646EA0727C3F896
S31508002A8004E09F614F6809699F631C629F6947F468
S31508002A9000679F619F6927F480679F6171E000BFA7
S31508002AA0036840F200481C6A1A6A24F4007422F487
S31508002AB080721A621A46D3F804E052F81CCF8F685F
S31508002AC043F48065C4F20108454544EA072408D161
S31508002AD0CF6840F2FF463F0224F4406427EA060620
S31508002AE034430F68454507D1D1E905562EF4405EB3
S31508002AF04EEA051545EA061E2CF073063743C3F859
S31508002B0004E0DF614F680969DF631C62DF6947F02B
S31508002B100807DF61DF6927F00407DF6132E000BFDD
S31508002B20036840F20045D3F820C01A6A43F4806768
S31508002B3022F480521A621A465C6852F81CEFD1F8E1
S31508002B4000808E68C4F20105AF4204D14D6924F4B1
S31508002B50804444EA85142CF4005747EA06372EF4D5
S31508002B60E64646EA08265C60DE614E6809691E6428
S31508002B701F62DF6947F40067DF61DF6927F4806752
S31508002B80DF6109021368194311600021002280F8E9
S31508002B903C200846BDE8F0810121002280F83C204F
S31508002BA00846BDE8F0810000002804BF01207047F0
S31508002BB010B5044690F83D0028B9002084F83C007A
S31508002BC0204600F01FF8022084F83D002068211DE9
S31508002BD001F0BEFB012084F8460084F83E0084F824
S31508002BE03F0084F8400084F8410084F8420084F8E5
S31508002BF0430084F8440084F8450084F83D0000202A
S31508002C0010BD000081B0006840F60001C4F2000162
S31508002C10884201D001B070470020009043F640007A
S31508002C20C4F20200016841F004010160006800F086
S31508002C3004000090009801B070470000704700003B
S31508002C4041B1082910D0042914BF00F1410200F14E
S31508002C503F020BE090F83E20012A1CBF0120704776
S31508002C60022280F83E2013E000F140021278012A81
S31508002C701CBF012070470222082907D0042914BF67
S31508002C8080F8412080F83F2002E000BF80F840200D
S31508002C90006801F01F010122036A02FA01F123EA22
S31508002CA001020262026A114341F2FF72C4F2000293
S31508002CB0904201620CDC40F2FF71C4F200018842C6
S31508002CC014DCB0F1804F37D040F2004116E000BF67
S31508002CD040F2FF31C4F20101884215DC41F60001D9
S31508002CE0C4F20001884227D0002115E040F6000111
S31508002CF0C4F2000188421FD040F60041C4F2000128
S31508002D00884219D01FE000BF44F20001C4F2010155
S31508002D10884211D040F20041C4F20101884212D122
S31508002D20416C40F2004340F48062C4F2010341F46E
S31508002D3000419A42416406D1816801F007010629DB
S31508002D4004BF00207047016841F0010101600020BE
S31508002D5070470000006841F20041C4F20001884251
S31508002D6008D041F20001C4F20001884218BF70473A
S31508002D70FEF73EBFFDF770BF7047000070B582B022
S31508002D80044690F8420020280AD113460A4600292C
S31508002D904FF0010018BF002B06D102B070BD00BF6E
S31508002DA0022002B070BD00BF012020630026222049
S31508002DB06663A262A385666484F842002168E06BB4
S31508002DC044F2256C44F2857E44F2A945C0F6000C0F
S31508002DD0C0F6000EC0F600050431C0E90FCEC0E902
S31508002DE01356FEF7D1FD01962068016801914168E6
S31508002DF001910199216929B350E8030F216840F42C
S31508002E00807041E80302EAB1206850E8030F2168A0
S31508002E1040F4807041E80302A2B1206850E8030F2D
S31508002E20216840F4807041E803025AB1206850E8EE
S31508002E30030F216840F4807041E8030212B120684C
S31508002E40DAE700BF206850E8050F216840F0010066
S31508002E5041E80502E2B1206850E8050F216840F014
S31508002E60010041E805029AB1206850E8050F21687B
S31508002E7040F0010041E8050252B1206850E8050F0C
S31508002E80216840F0010041E80502002ADAD100BFB6
S31508002E90206850E8050F216840F0400041E8050227
S31508002EA0DAB1206850E8050F216840F0400041E893
S31508002EB0050292B1206850E8050F216840F04000ED
S31508002EC041E805024AB1206850E8050F216840F03C
S31508002ED0400041E80502002ADAD1206B012839D1E1
S31508002EE00020009021680A6800924A680092009AB9
S31508002EF051E8031F226841F0100142E80313002B32
S31508002F003FF44BAF206850E8030F216840F01000EB
S31508002F1041E8030212B3206850E8030F216840F025
S31508002F20100041E80302CAB1206850E8030F21687F
S31508002F3040F0100041E8030282B1206850E8030F10
S31508002F40216840F0100041E80302002A4FF0000013
S31508002F50D8D122E7012002B070BD00BF002002B020
S31508002F6070BD00000A46014641F21040C2F2000058
S31508002F7007F096BE70470000B0B582B004460068F8
S31508002F800168C368426901F02F05202D03F020056A
S31508002F9006D12DB1204602B0BDE8B04001F05ABCBA
S31508002FA05FEA017C1EBF02F0010E03F4907212EB79
S31508002FB00E0255D1226B012A05D111F0100218BF55
S31508002FC013F0100236D10A0622D513F080021FD05C
S31508002FD094F84110212941D1A168B1F5805F03D148
S31508002FE02169002900F07282216A4A1C2262097846
S31508002FF04160E18C01390A04E1842FD1C16821F0CE
S315080030008001C160C16841F04001C16002B0B0BD35
S31508003010490623D513F0400120D0C16821F04001AC
S31508003020C1602021204684F8411002B0BDE8B040B6
S3150800303000F072BD0021019101680191416801917A
S3150800304001994169490600F18F80A18DE28DE38DD2
S31508003050002B1CBF891A5FEA01420CD102B0B0BD31
S31508003060CA0718BF13F4807240F038814A0700F186
S315080030703B8140E1206850E8030F226820F49070F5
S3150800308042E80303DBB1206850E8030F226820F406
S31508003090907042E8030393B1206850E8030F226852
S315080030A020F4907042E803034BB1206850E8030F00
S315080030B0226820F4907042E80303002BDAD12068D6
S315080030C050E8050F226820F0010042E80503DBB14D
S315080030D0206850E8050F226820F0010042E8050341
S315080030E093B1206850E8050F226820F0010042E8F5
S315080030F005034BB1206850E8050F226820F001004F
S3150800310042E80503002BDAD1202084F8420000208B
S315080031102063206850E8030F226820F0100042E878
S315080031200303DBB1206850E8030F226820F0100083
S3150800313042E8030393B1206850E8030F226820F0A1
S31508003140100042E803034BB1206850E8030F2268D9
S3150800315020F0100042E80303002BDAD1022289B2DC
S3150800316020466263B4E000BFE16B0A68526893B216
S31508003170002B3FF473AFA58DAB42BFF46FAFE2856A
S31508003180C969B1F5807F00F09C8050E8030F21687B
S3150800319020F4807041E80302E2B1206850E8030F8A
S315080031A0216820F4807041E803029AB1206850E84B
S315080031B0030F216820F4807041E8030252B12068A9
S315080031C050E8030F216820F4807041E803020AB131
S315080031D02068DAE7206850E8050F216820F001002A
S315080031E041E80502DAB1206850E8050F216820F0A9
S315080031F0010041E8050292B1206850E8050F2168F0
S3150800320020F0010041E805024AB1206850E8050FA0
S31508003210216820F0010041E80502002ADAD1206879
S3150800322050E8050F216820F0400041E80502DAB1B0
S31508003230206850E8050F216820F0400041E80502A3
S3150800324092B1206850E8050F216820F0400041E857
S3150800325005024AB1206850E8050F216820F04000B1
S3150800326041E80502002ADAD1202084F8420000202D
S315080032702063206850E8030F216820F0100041E819
S315080032800302DAB1206850E8030F216820F0100025
S3150800329041E8030292B1206850E8030F216820F044
S315080032A0100041E803024AB1206850E8030F21687C
S315080032B020F0100041E80302002ADAD1E06BFEF79D
S315080032C075F902206063A08DE18D401A81B220460F
S315080032D002B0BDE8B040FFF745BE00BF626C42F0E1
S315080032E0010262644A0706D5BEF1000F03D0626C7C
S315080032F042F0020262648A0706D5BEF1000F03D0C7
S31508003300626C42F004026264BCF1000F06D555EA0D
S315080033100E0203D0626C42F008026264626C002AF4
S315080033203FF49CAE11F0200118BF002D03D02046B3
S3150800333001F090FA20684169626C01F0400102F0E0
S315080033400802891800F0A28050E8030F216820F4CB
S31508003350907041E80302C2B3206850E8030F216861
S3150800336020F4907041E803027AB3206850E8030F0E
S31508003370216820F4907041E8030232B3206850E8CF
S31508003380030F216820F4907041E80302EAB120682F
S31508003390DAE700BF206850E8050F216820F0010031
S315080033A041E80502DAB1206850E8050F216820F0E7
S315080033B0010041E8050292B1206850E8050F21682E
S315080033C020F0010041E805024AB1206850E8050FDF
S315080033D0216820F0010041E80502002ADAD1206BB5
S315080033E0012824D1206850E8030F216820F0100036
S315080033F041E80302DAB1206850E8030F216820F09B
S31508003400100041E8030292B1206850E8030F2168D2
S3150800341020F0100041E803024AB1206850E8030F83
S31508003420216820F0100041E80302002ADAD12020A2
S3150800343084F84200002020632068416949063FD588
S3150800344050E8050F216820F0400041E805022AB33C
S31508003450206850E8050F216820F0400041E8050281
S31508003460E2B1206850E8050F216820F0400041E8E5
S3150800347005029AB1206850E8050F216820F040003F
S3150800348041E8050252B12068DAE700BF2046FFF797
S3150800349071FD0020606402B0B0BD00BFE06B78B17A
S315080034A044F29D41C0F600010165FEF7C9F80028FF
S315080034B03FF4D4ADE06B016D02B0BDE8B0400847FB
S315080034C0204602B0BDE8B040FFF754BD216A31F886
S315080034D0022B6FF35F22426021628AE5002804BF4F
S315080034E00120704710B5044690F8410028B900201D
S315080034F084F84000204600F021F8242084F8410092
S315080035002068C16821F40051C160204601F022FA02
S315080035102068016921F490410161416921F02A017D
S315080035204161C16841F40051C160002020216064F6
S3150800353084F8411084F84210606310BD2DE9F04FFD
S3150800354087B00446006844F60001C4F2000100266C
S315080035508842CDE90566CDE90366029600F09480B7
S3150800356041F20041C4F20101884200F0F78041F2BD
S315080035700001C4F20101884240F06081002743F649
S3150800358030000197C4F202004169002541F010019C
S3150800359041614169C4F2020501F0100101910199E6
S315080035A00197016802AE41F002010160016846F226
S315080035B0280801F0020101910199019701684FF06D
S315080035C0020941F00101016000684FF0030A00F0AA
S315080035D0010001900198802002904FF0070B05F535
S315080035E080603146C4F20208CDE90397CDF814A0ED
S315080035F0CDF818B0FEF718FA4FF40070CDE90209B5
S3150800360004A880E8800C28463146FEF70DFA41F2F8
S31508003610686508F59260C2F200054FF00066402121
S31508003620C5E9000605F108004FF4806980E88202C2
S315080036302846C5E90577C5E907776F62FEF7F2F808
S31508003640002818BFFDF710FBA563AC6341F20865B7
S3150800365008F58360C2F2000585E8C1002846C5E979
S315080036600379C5E90577C5E907776F62FEF7DAF8E2
S31508003670002818BFFDF7F8FAE563AC632520052195
S3150800368000222524D5E000BF43F630000196C4F297
S315080036900200016946F2280841F4802101610169A6
S315080036A0C4F2020801F4802101910199019601688A
S315080036B041F004010160006802A900F004000190CD
S315080036C001984FF4406002900220CDE903060320DA
S315080036D00590072006900020C4F2020000F500605D
S315080036E0FEF7A2F941F2C865C2F200054FF000677D
S315080036F04FF480692846C5E90087C5E90266C5E929
S315080037000496C5E90666C5E90866FEF78BF800283B
S3150800371018BFFDF7A9FAE563AC6341F2287508F10D
S315080037203000C2F200054021C5E9000705F108008E
S31508003730002280E806022846C5E90522C5E90722CF
S315080037406A62FEF76FF8002818BFFDF78DFAA563C1
S31508003750AC6327200421002227246AE0002643F6CA
S3150800376030000196C4F20200416946F2280841F089
S31508003770200141614169C4F2020801F0200101916A
S3150800378001990196016841F040010160006802A9AB
S3150800379000F04000019001984FF484400290022006
S315080037A0CDE9030603200590082006900020C4F200
S315080037B0020000F5C050FEF737F941F2E87508F542
S315080037C08F60C2F200054FF020674021C5E9000767
S315080037D005F108004FF4806980E842022846C5E9E9
S315080037E00566C5E907666E62FEF71CF8002818BF6D
S315080037F0FDF73AFAA563AC6341F2887508F580606F
S31508003800C2F20005C5E900072846C5E90266C5E90A
S315080038100496C5E90666C5E90866FEF703F80028B2
S3150800382018BFFDF721FAE563AC634720042100229F
S315080038304724FEF797FA2046FEF784FA07B0BDE854
S31508003840F08F000070B582B0044690F84200202838
S315080038500AD113460A4600294FF0010018BF002B6B
S3150800386006D102B070BD00BF022002B070BD00BF15
S31508003870002622202663A262A385666484F8420095
S315080038802168E06B44F2256C44F2857E44F2A94532
S31508003890C0F6000CC0F6000EC0F600050431C0E9FB
S315080038A00FCEC0E91356FEF76FF801962068016837
S315080038B00191416801910199216929B350E8030FE3
S315080038C0216840F4807041E80302EAB1206850E8B4
S315080038D0030F216840F4807041E80302A2B1206812
S315080038E050E8030F216840F4807041E803025AB19A
S315080038F0206850E8030F216840F4807041E803020D
S3150800390012B12068DAE700BF206850E8050F216881
S3150800391040F0010041E80502E2B1206850E8050FD1
S31508003920216840F0010041E805029AB1206850E894
S31508003930050F216840F0010041E8050252B12068F0
S3150800394050E8050F216840F0010041E80502002A09
S31508003950DAD100BF206850E8050F216840F0400022
S3150800396041E80502DAB1206850E8050F216840F001
S31508003970400041E8050292B1206850E8050F216829
S3150800398040F0400041E805024AB1206850E8050FBA
S31508003990216840F0400041E80502002ADAD10020FB
S315080039A002B070BD90F84230202B1CBF0220704731
S315080039B000294FF0010318BF002A01D118467047A5
S315080039C000230363816222218285C285436480F8CD
S315080039D042100169006819B1C16841F48071C1607B
S315080039E04169002341F001014161C16841F02001AC
S315080039F0C16018467047000010B5044640F214002E
S31508003A00C2F20000214601F0B3FD2046BDE8104091
S31508003A1004F0EABB7047000070B5044690F8410010
S31508003A2020281CBF022070BD00294FF0010553D085
S31508003A301346002A50D0002521202162A384E3845E
S31508003A40656484F841002668A06B44F2A94244F2F2
S31508003A509D7C44F64D0EC0F60002C0F6000CC0F67A
S31508003A60000EC0E91325321DC0E90FCEFDF78CFF05
S31508003A7020686FF0400140F8141B50E8000F2168D9
S31508003A8040F0800041E8050232B300BF206850E8E4
S31508003A90050F216840F0800041E80502F2B1206870
S31508003AA050E8050F216840F0800041E80502AAB1F8
S31508003AB0206850E8050F216840F0800041E80502BB
S31508003AC062B1206850E8050F216840F0800041E89F
S31508003AD00502002ADAD10025284670BD002070BDEF
S31508003AE0034690F8410020281CBF02207047002991
S31508003AF04FF0010018BF002A00D170471962002054
S31508003B0021219A84DA84586483F841101968CA68AE
S31508003B1042F08002CA607047704700007047000094
S31508003B20FEE7000080B5042009F0E6FA41F2083104
S31508003B30C0F601010831016007F0FEF940F25C6049
S31508003B40C2F200000121017080BD000080B541F27B
S31508003B50B85046F20041C2F20000C4F20001062243
S31508003B60002380E80E0000F10C014FF4403C4FF4AE
S31508003B70801E81E8085083618383FDF74DFB00288A
S31508003B8008BF80BDBDE88040FDF76EB880B541F23C
S31508003B90E05046F60001C2F20000C4F20001062217
S31508003BA0002380E80E0000F10C014FF4403C4FF46E
S31508003BB0801E81E8085083618383FDF72DFB00286A
S31508003BC008BF80BDBDE88040FDF74EB880B582B01D
S31508003BD0002043F630010190C4F202010A6842F45B
S31508003BE080020A600A6802F480020192019A009033
S31508003BF00868002240F4001008600868052100F4EF
S31508003C000010009000980C20FEF7ACF80C20FEF788
S31508003C1099F80E2005210022FEF7A4F80E20FEF7DB
S31508003C2091F8392005210022FEF79CF83920FEF785
S31508003C3089F83A2005210022FEF794F83A20FEF783
S31508003C4081F8452005210022FEF78CF84520FEF76D
S31508003C5079F8462005210022FEF784F8462002B0AE
S31508003C60BDE88040FEF76EB810B544F2552041F223
S31508003C702C52C0F60000C0F6010200210AF046F8F0
S31508003C8040F2C804C2F20004206040F6B53041F2A2
S31508003C90DC42C0F60000C0F6010200210AF036F840
S31508003CA0606040F6014041F20052C0F60000C0F6DE
S31508003CB0010200210AF02AF8A06044F2F51041F248
S31508003CC07452C0F60000C0F6010200210AF01EF880
S31508003CD0E06044F2851041F29852C0F60000C0F642
S31508003CE0010200210AF012F8206140F6714041F203
S31508003CF05052C0F60000C0F6010200210AF006F88C
S31508003D00606110BD81B0002143F630000091C4F215
S31508003D100200026842F002020260026802F0020231
S31508003D200092009A0091026842F04002026002681E
S31508003D3002F040020092009A0091026842F00102E5
S31508003D400260026802F001020092009A009102687D
S31508003D5042F008020260026802F008020092009A25
S31508003D600091026842F004020260026802F004024E
S31508003D700092009A0091016841F080010160006894
S31508003D8000F080000090009801B0704770B590B0C0
S31508003D9040F6000541F64800C4F200050021C2F2CB
S31508003DA00000A7224FF6FF73CDE90811CDE90611E9
S31508003DB0CDE90411C0E90052C0E90213016181612D
S31508003DC0FEF7F2FE002818BFFCF74EFF41F6480042
S31508003DD0C2F2000008A9FEF7EFFA002818BFFCF7A0
S31508003DE043FF41F648046020C2F200040190002611
S31508003DF001A920460822CDE902660596FEF7C2FD0E
S31508003E00002818BFFCF730FF206840F60041C4F2CE
S31508003E10000188420B9619D0A84234D100200A9096
S31508003E2043F63000C4F202000168032241F008019B
S31508003E3001600068012100F008000A900A984FF412
S31508003E4080400B9005F5013015E000BF002143F6D0
S31508003E5030000A91C4F20200026842F08002026051
S31508003E600068002200F080000A900A984FF4E0509B
S31508003E700B9005F505300223CDE90C310BA9CDE9E8
S31508003E800E23FDF7D1FD10B070BD0000B0B594B09B
S31508003E9040F6004541F69000C4F200050021C2F242
S31508003EA000004FF6FF720D91CDE90B110991CDE98E
S31508003EB00711CDE90511CDE90311CDE90111C0E9D5
S31508003EC00051C0E9021201618161FEF7D1FA0028AA
S31508003ED018BFFCF7C9FE4FF480500A9041F69000CF
S31508003EE0C2F200000AA9FEF7D3FB002818BFFCF7A8
S31508003EF0BBFE41F69000C2F20000FEF755FE002810
S31508003F0018BFFCF7B1FE41F690000024C2F200008B
S31508003F1008A9CDE90844FEF74FFA002818BFFCF7B0
S31508003F20A3FE6020019042F21070CDE9020441F62A
S31508003F309000C2F2000001A900220594FEF722FDB6
S31508003F40002818BFFCF790FE41F69000C2F2000068
S31508003F5001A90422FEF716FD002818BFFCF784FE07
S31508003F6041F69004C2F2000401A920460822FEF791
S31508003F7009FD002818BFFCF777FE20680021A84233
S31508003F800F911DD040F60001C4F20001884233D1DA
S31508003F9000200E9043F63000C4F2020001680322A6
S31508003FA041F0080101600068012100F008000E9048
S31508003FB00E984FF480400F9005F5003014E000BFCE
S31508003FC043F630000E91C4F20200026842F0800205
S31508003FD002600068002200F080000E900E984FF4F0
S31508003FE0E0500F9005F504300223CDE910310FA9F2
S31508003FF0CDE91223FDF718FD14B0B0BD80B582B027
S3150800400041F620100021C2F2000041F2004240F2BF
S31508004010E73CCDE90011C4F200025323C0E9021CB3
S315080040208021C0E900238161FEF722FA002818BF23
S31508004030FCF71AFE41F62010C2F200006946FEF7A8
S31508004040BBF9002818BFFCF70FFE02B080BD0000C0
S3150800405080B541F6681041F20001C2F20000C4F2D0
S31508004060010100234FF00C0C4FF4E13280E80E00FA
S31508004070C0E90333C0E905C3C361FFF72FFA002877
S3150800408008BF80BDBDE88040FCF7EEBD10B541F61F
S31508004090B01044F6000C48F2A062C2F20000C4F266
S315080040A0000CC0F201024FF4805300214FF4806ED9
S315080040B00C24C0E900C2C0E90231C0E904E4C0E941
S315080040C00611FFF70BFA002808BF10BDBDE810401F
S315080040D0FCF7CABD80B541F6F81041F20041C2F2BC
S315080040E00000C4F2010100234FF00C0C4FF4E1323A
S315080040F080E80E00C0E90333C0E905C3C361FFF7D2
S31508004100EDF9002808BF80BDBDE88040FCF7ACBDCE
S31508004110FEE70000FEE700000000000000000000C7
S31508004120EFF30980BFF36F8F154B1A681EF0100F57
S3150800413008BF20ED108A20E9F04F10602DE909002C
S315080041404FF0500080F31188BFF34F8FBFF36F8F86
S315080041500AF0AAFE4FF0000080F31188BDE80900B6
S3150800416019680868B0E8F04F1EF0100F08BFB0ECE9
S31508004170108A80F30988BFF36F8F704700BF00BFAE
S31508004180080100202DE9F0472DED048B40F2686800
S31508004190C2F2000841F6D06940F2B04A9FED138A90
S315080041A041F6904440F2E8469FED119A40F25C07CA
S315080041B008F58C75C2F20009C2F2000AC2F20004C0
S315080041C0C2F20006C2F20007284649465246B0EE39
S315080041D0480A03F0FFFD404621463246B0EE490A3A
S315080041E003F0F8FD388809F04FFDEDE71A1FD335BF
S315080041F0895C6E37B0B541F2AC30C2F2000005F00A
S315080042003FF841F2AD3440F62C55C2F20004C2F232
S31508004210000500BF204606F02BF8284604F054FF98
S31508004220012009F031FDF5E700000000000000005C
S31508004230074B19680868B0E8F04F80F30988BFF3A0
S315080042406F8F4FF0000080F31188704700BF00BFE2
S3150800425008010020012009F017FDFBE780B54EF2A2
S315080042601000CEF2000000680BF070FA012808BFB3
S3150800427080BDBDE880400AF037BF0000B0B592B0F7
S31508004280002443F64000CDE90A44CDE908440594E4
S31508004290CDE90344CDE901440094C4F20200016863
S315080042A0022541F080510160006800F080500090BE
S315080042B0009847F200000094C4F20000016841F437
S315080042C080410160006800F4804000900098012059
S315080042D006904FF4803007904FF480000D9006202A
S315080042E00E90A8200C95CDE90F050420119006A87C
S315080042F0FDF7A2FE08B172B6FEE70F20CDE901056B
S315080043004FF4A05004904FF48050059001A8052161
S315080043100394FDF763FD10B172B600BFFEE712B055
S31508004320B0BD00004EF68850CEF20000016841F498
S31508004330700101607047000041F6D800C2F2000023
S31508004340FEF776BA41F62010C2F20000FEF770BA00
S3150800435010B540F6FF3E0368C4F2000E40F2004C6A
S315080043607045C4F2010C27DCB0F1804F31D040F221
S315080043700042C4F2000290422BD040F60002C4F27A
S315080043800002904225D041F6FF72C4F20002904224
S3150800439029DC70453CDCB0F1804F5FD040F200422A
S315080043A0C4F20002904259D040F60002C4F200025C
S315080043B0904253D056E000BF40F60042C4F20002D5
S315080043C0904206D0604504D00022C4F20102904211
S315080043D0D9D14A6823F07003134341F6FF72C4F239
S315080043E000029042D5DD43F6FF72C4F20102904204
S315080043F022DC42F20002C4F2000290422ED00022D1
S31508004400C4F20102904229D0604527D02AE000BFB5
S3150800441040F60042C4F2000290421FD041F6000264
S31508004420C4F20002904219D041F60042C4F20002DA
S31508004430904213D016E000BF44F20002C4F2010213
S3150800444090420BD044F60002C4F20102904205D015
S3150800445044F20042C4F20102904203D1CA6823F42E
S315080044604073134323F080024B69D1F800E08C684F
S315080044701A430260C46240F48062C0F828E06245CC
S3150800448004BF09690163012141610169C90708BFC0
S3150800449010BD016921F00101016110BD806B002189
S315080044A0C185C184FEF766BD806B01684A6990F8CC
S315080044B04130212B2ED112F080022BD00022C2844B
S315080044C051E8031F026821F0C00142E80313EBB16B
S315080044D0016851E8031F026821F0C00142E803138E
S315080044E0A3B1016851E8031F026821F0C00142E840
S315080044F003135BB1016851E8031F026821F0C0018C
S3150800450042E8031313B10168DAE700BF202180F8F7
S31508004510411001684A6990F84230222B7CD112F08A
S31508004520400279D00022C28551E8031F026821F4AF
S31508004530907142E80313C3B3016851E8031F026888
S3150800454021F4907142E803137BB3016851E8031F15
S31508004550026821F4907142E8031333B3016851E805
S31508004560031F026821F4907142E80313EBB1016856
S31508004570DAE700BF016851E8051F026821F001016A
S3150800458042E80513DBB1016851E8051F026821F00E
S31508004590010142E8051393B1016851E8051F026855
S315080045A021F0010142E805134BB1016851E8051FE6
S315080045B0026821F0010142E80513002BDAD1016BEC
S315080045C0012924D1016851E8031F026821F010016E
S315080045D042E80313DBB1016851E8031F026821F0C2
S315080045E0100142E8031393B1016851E8031F0268FA
S315080045F021F0100142E803134BB1016851E8031F8B
S31508004600026821F0100142E80313002BDAD12021B9
S3150800461080F8421000210163416C41F010014164A9
S31508004620FEF7A8BC0168806B0968C90500F19F8080
S315080046300021C185016851E8031F026821F48071D1
S3150800464042E80313E3B1016851E8031F026821F445
S31508004650807142E803139BB1016851E8031F0268A1
S3150800466021F4807142E8031353B1016851E8031F2E
S31508004670026821F4807142E80313002BDAD100BFE7
S31508004680016851E8051F026821F0010142E8051397
S31508004690BBB3016851E8051F026821F0010142E831
S315080046A0051373B3016851E8051F026821F001017B
S315080046B042E805132BB3016851E8051F026821F08B
S315080046C0010142E80513002BDAD11AE0016851E826
S315080046D0051F026821F0400142E80513DBB10168B5
S315080046E051E8051F026821F0400142E8051393B11D
S315080046F0016851E8051F026821F0400142E80513E8
S315080047004BB1016851E8051F026821F0400142E8F3
S315080047100513002BDAD1202180F84210016B0129FC
S3150800472025D100BF016851E8031F026821F0100176
S3150800473042E80313DBB1016851E8031F026821F060
S31508004740100142E8031393B1016851E8031F026898
S3150800475021F0100142E803134BB1016851E8031F29
S31508004760026821F0100142E80313002BDAD1002178
S315080047704163016B012918BFFFF73EB9818DFEF72A
S31508004780F1BB0000806B01214163016B012918BF51
S31508004790FFF740B9818D4908FEF7E4BB0168806BD5
S315080047A00968C90548BFFFF7B7B90021C18400BF2A
S315080047B0016851E8051F026821F0800142E80513E7
S315080047C083B3016851E8051F026821F0800142E8B9
S315080047D005133BB3016851E8051F026821F0800103
S315080047E042E80513F3B1016851E8051F026821F094
S315080047F0800142E80513002BDAD113E0016851E87D
S31508004800031F026841F0400142E80313002B08BF6A
S315080048107047016851E8031F026841F0400142E809
S31508004820031393B1016851E8031F026841F0400180
S3150800483042E803134BB1016851E8031F026841F0CF
S31508004840400142E80313002BD8D17047806BFFF76D
S3150800485065B9000081B090F84210222920D18368FA
S31508004860B3F5805F08D10169002965D000F12801F8
S315080048700A6803685B680AE0014651F8282F13B9ED
S315080048800369002BF5D003685B6803F07F03137098
S315080048900A6801320A60C18D01390A04C18501D04E
S315080048A001B070470168CA6822F02002CA60CA6867
S315080048B022F48072CA604A6922F001024A61202203
S315080048C080F8422000224263036B012B3ED102632B
S315080048D051E8031F026821F0100142E8031301683A
S315080048E0DBB151E8031F026821F0100142E8031307
S315080048F0016893B151E8031F026821F0100142E8EC
S31508004900031301684BB151E8031F026821F0100137
S3150800491042E803130168002BDAD10A68D20606D5E5
S31508004920002200920A680092496800910099818DD8
S3150800493001B0FEF717BB00BF0168826A49686FF3CA
S315080049405F2122F8021B8262A5E700BF01B0FFF7CC
S3150800495053B8000010B504460068D4E902C22369BA
S31508004960016921F4405111430161626943EA0C016E
S31508004970E3691143C268194349F20C639A43114328
S31508004980C1604169A26921F4407141F200431143B3
S3150800499040F48062C4F201039A42416102D1FDF7F4
S315080049A001FB01E0FDF7EAFAE16963681922B1F54E
S315080049B0004FA0FB02011FD15A00DB0FFBF75CFC7E
S315080049C048F21F51C5F2EB11A0FB01235A096FF0FB
S315080049D0630302FB0300322303EBC000A0FB0101C3
S315080049E04FF4F87000EA111000EB0210C1F34211FF
S315080049F008442168886010BD9A009B0FFBF73CFCB1
S31508004A0048F21F51C5F2EB11A0FB01235A096FF0BA
S31508004A10630302FB0300322303EB0010A0FB010132
S31508004A20F02000EA511000EB0210C1F343110844CC
S31508004A302168886010BD000041F66810C2F20000C7
S31508004A40FEF79ABA41F6B010C2F20000FEF794BA21
S31508004A5041F6F810C2F20000FEF78EBAFEE7000033
S31508004A6042F2F06146F2810040F20002C2F2000111
S31508004A700023C0F60000C0F60002C1E900338B60CF
S31508004A80FBF772BCF0B581B040F2782441F2CC2035
S31508004A90C2F20004C0F601000830264646F8080FA0
S31508004AA0301D0021C6E901004BF6515040F20002C4
S31508004AB0F160C0F60000C0F600023146FBF754FC70
S31508004AC0402008F019FB054641F26C30C0F601009B
S31508004AD000F1080730682F606E6002683046294684
S31508004AE0904741F2E020C0F6010008302860FF2018
S31508004AF00022CFF60070CFF6FF7205F130034FF0B3
S31508004B00FF2107C3E8634CF6ED5040F20002C0F6F9
S31508004B100000C0F6000221462560FBF725FC302080
S31508004B2008F0EAFA0546204650F8081FC5E900705D
S31508004B300A682946904741F2F420C0F60100083079
S31508004B402860002344F8045F4CF6056040F2000232
S31508004B50C0F60000C0F600022146AB7201B0BDE8FF
S31508004B60F040FBF701BCFFE70446284608F0BFFA09
S31508004B70204600F075FA0000F0B581B02DED048BE3
S31508004B8040F268649FED318A9FED319AC2F20004C3
S31508004B902046B0EE480AF0EE490A06F07FFC0225E8
S31508004BA004F18000012604F1900302210122C4E9E0
S31508004BB0225608F081FF04F1980004F1A8030221A7
S31508004BC00122C4E9285608F077FF0027C4F208171F
S31508004BD004F58C70B0EE480AF0EE490AC4F8BC70C9
S31508004BE006F05CFC04F5CC7004F5D47302210122AE
S31508004BF0C4E9685608F060FF04F5D87004F5E07358
S31508004C0002210122C4E96E5608F056FF0020C4F2BC
S31508004C1034204AF26D414FF20E7204F5E473C3F282
S31508004C203951C3F23D5287C30120C4F2D81044F665
S31508004C302D5140F6995204F1B003C3F62C11C3F274
S31508004C40A44207C3BDEC048B01B0F0BDACC5273741
S31508004C5058FF7F3F2DE9F04381B040F2084840F203
S31508004C60C827C2F2000840F27840C2F2000708F1ED
S31508004C703403C2F200004FF400710122009707F0D6
S31508004C80D3F940F20805C2F2000540F654136E1C2B
S31508004C903830C2F200034FF400710422009607F080
S31508004CA0C3F940F2E849C2F2000940F634236E1D02
S31508004CB0C2F2000348464FF401710422009607F039
S31508004CC0B3F940F29436C2F20006381D06F15403D1
S31508004CD04FF404710122009500F062FD49F699101F
S31508004CE0C3F6B97041F6502541F26F210022786269
S31508004CF00020C2F20005C3F68321C4F2C82249F691
S31508004D009A13C5E92000C5F88800C5E91B0269673A
S31508004D10C5E94400C5F81801C5E93F02C5F80411FC
S31508004D20C5E96800C5F8A801C5E96302C5F8941184
S31508004D30C5E98C00C5F83802C5E98702C5F824120A
S31508004D400025C9F69913C4F249053B62C7E90A006A
S31508004D50C7E90C00B863C7E90F5041F69045C2F29F
S31508004D600005C5E92000C5F88800C5E91B02696782
S31508004D70C5E94400C5F81801C5E93F02C5F804119C
S31508004D80C5E96800C5F8A801C5E96302C5F8941124
S31508004D90C5E98C00C5F83802C5E98702C5F82412AA
S31508004DA049F69915C3F6C975C7E91100F864C7E944
S31508004DB0143546F26043C2F20003C7E91800C7E992
S31508004DC01600C3E92000C3F88800C3E91B02596727
S31508004DD040F230330027C2F20003C4F22E0746F22F
S31508004DE0F045C3E9000742F21017C2F20005C2F205
S31508004DF00007C5E92000C5F88800C5E91B026967F0
S31508004E000025C7E92000C7F88800C7E91B027967AB
S31508004E100027CCF25E05C4F21407C3E90200C3E911
S31508004E200400C3E90605C3E91000C3E90800C3E99D
S31508004E300A00C3E90C0741F6D067C2F2000700254D
S31508004E4044F2000407F1800CC4F27A45C4F2BF04A8
S31508004E508CE8310007F5887CC7E91B0279678CE87E
S31508004E60310007F5D07CC7E93F02C7F804118CE882
S31508004E70310007F50C7CC7E96302C7F894118CE882
S31508004E803100C7E98702C7F8241241F2C027C0F6E5
S31508004E9001070837C8F8007042F2FC670025C2F21D
S31508004EA00007C4F29635C7E903057961C7E90A051B
S31508004EB03963C7E91105F964C7E91805B966002712
S31508004EC0C4F2F017C3E90E00C3E91507D965002334
S31508004ED0C4F27013C6E903037161C6E90A033163B4
S31508004EE0C6E9110242F26C720023C2F20002C4F251
S31508004EF01643F164C2E903035161C2E90A03116367
S31508004F00C2E91103D164C2E91803916641F2A043CC
S31508004F1000210022C2F20003C4F2A001C4F2482212
S31508004F20C3E900129860C3E90400C3E90800C3E9AD
S31508004F300E121864C3E91200C3E91600C3E91C126D
S31508004F409867C3E92000C3E92400C3E92A12C3F815
S31508004F50B000C3E92E00C3E9320040F25853C2F24A
S31508004F600003C3E900129860C3E90400C3E9080016
S31508004F70C3E90E121864C3E91200C3E9160041F228
S31508004F808053C2F20003C9E90E12C9F84000C9E904
S31508004F901200C9E91600C3E900129860C3E90400C3
S31508004FA0C3E9080001B0BDE8F0837047826812B112
S31508004FB0014601201047704780B58AB0694608F057
S31508004FC086FC0299002818BF002108460AB080BD51
S31508004FD080B58AB0694608F07AFC0099002818BF9F
S31508004FE0002108460AB080BD70B5ADF5407D62ADBA
S31508004FF004462846FBF756FC00206E46E06030461D
S31508005000294608F088FCB6A9304608F060FCA8B91D
S315080050106D46B6AEB99B5BB1B698BB99BE9AC4E964
S3150800502012022165002021462A469847082809D1F8
S315080050302846314608F04BFC0028EBD003200DF536
S31508005040407D70BD062803D0092818BF0320F6E75F
S3150800505062A869462246002300F038FA0220EEE7E5
S31508005060B0B5ADF5367D62AD04462846FBF71AFCA9
S31508005070694628462246012300F028FAFBF773FB07
S3150800508070B5049C1546012906460BD019BB0F2D91
S315080050904FF0020013D893B930462946224608F045
S315080050A024FC13E0052B07D0012B07D10F2D05D8BB
S315080050B0304608F05CFC03E01F2D01D9022070BDC4
S315080050C005F580713046224608F0EAFB002818BF2D
S315080050D00120400070BDFBF746FB00002DE9F04FAC
S315080050E081B09A42044680F0F3801D468A4600261F
S315080050F0EB46202782F003001AF8009002F1010817
S315080051005FEA09600ED420460D215A4608F0EDFBE9
S315080051105FEA49604FEA89002AD400990844021DCB
S315080051202BE000BF09F0F00080380009052800F2DE
S31508005130DB80DFE800F003283744607BA84580F071
S31508005140D38088F003014FEA09301AF8011080B2BB
S3150800515040EA0113002B00F0C78009F0080002F1AD
S31508005160020846EAD006204600211A4625E000BF76
S31508005170009900F0FC00081A021F009220460D2133
S3150800518008F013FC9EE049F0020000F00F000F281B
S3150800519000F0AA8009F00F0120465A4608F0A5FB40
S315080051A0009AEBE709F0070007FA00F0103809F053
S315080051B0080140EAC12220460021002380E0A9F127
S315080051C0B00107293FD80920DFE801F08004446BC5
S315080051D08F8F8F8FA84580F0878088F003001AF894
S315080051E000300920002B00F0808013F0F0017CD1FC
S315080051F002F10208B7E709F0FE00C82874D188F062
S3150800520003001AF80010A9F1C800B0FA80F04009A6
S315080052100B0943EA001001F00F0143181F2B63D84E
S3150800522041EA004002F10208421C08E05FEA097000
S315080052305AD4012109F00700C0F208014218204695
S31508005240012105233CE0012109F00700C0F208010D
S31508005250421831E0B1460026002000BFA84543D2D7
S3150800526088F003011AF8011008F1010701F07F021E
S315080052708240164307300906B846EFD420460D216A
S315080052805A4608F032FB00980D2100EB860000F51F
S3150800529001722046009208F088FBB8464E46202741
S315080052A010E088F003001AF8000002F1020840EA4C
S315080052B0003000F00F10421C20460121012300BFD8
S315080052C000F016F8A8454246FFF414AFF00709D1D6
S315080052D06A4620460E2108F008FB009A20460F2150
S315080052E008F063FB082000E0092001B0BDE8F08F54
S315080052F02DE9F04186B01E461546012904462CD0F4
S31508005300002965D19EBB02AA20460D2108F0EDFAB8
S3150800531068BB00270DF11408002600BF25FA06F021
S31508005320C00713D00298324650F8041B0023029097
S31508005330059120460021CDF8008000F04BF8B0B961
S31508005340A6F10D00B0FA80F0400907430136102E89
S31508005350E4D1F80732D000200AE046F00400052818
S3150800536005D105AA20460D2108F0BFFA18B102207A
S3150800537006B0BDE8F081A8B2C0B12F0C00EB154508
S315080053800DF1080805983A4600F10801059103C889
S315080053903346CDE9020120460121CDF8008000F010
S315080053A019F80028E3D10137AF42EBD3012E03D118
S315080053B00598021D059202E0059A00E0029A204629
S315080053C00D2108F0F2FA002818BF01204000CFE7A7
S315080053D0FBF7C9F970B5049E1446012905460BD09A
S315080053E021BB0F2C4FF0020013D893B93268284618
S315080053F0214608F0DAFA14E0052B07D0012B07D16D
S315080054000F2C05D8284608F0B2FA03E01F2C01D95C
S31508005410022070BDD6E9002304F58071284608F0FD
S31508005420A9FA002818BF0120400070BDFBF79BF9B8
S3150800543070B58AB041F2B85401200021C2F20004C6
S315080054406D460890CDE90011CDE90211CDE90411A8
S31508005450CDE906100E26204629460996FBF78CFC50
S31508005460059641F2E0561C20C2F200060990304625
S315080054702946FBF781FC2046FCF75CF8204602210A
S31508005480FBF710FC3046FCF755F830460221FBF7CF
S3150800549009FC0AB070BD0000B0B588B00546082002
S315080054A005900020CDE90300CDE901108DF818001C
S315080054B0284614460793FBF76BFD28B101A907ABED
S315080054C028462246FBF706FC08B0B0BD2DE9F04792
S315080054D08CB00C46014620469A46154608F01BFA3B
S315080054E001260DF12C080DF104091AF001004FF000
S315080054F0010718BF022708D03EB92A6920464FF08F
S31508005500FF3108F052FA4FF0000A20466FF0010109
