:020000040800F2
:100000003872002039020008114100081D3B000829
:100010000D410008390B0008BD4A0008000000002F
:1000200000000000000000000000000091420008F5
:100030005D0C00080000000021410008BD420008DE
:10004000530200085302000853020008530200083C
:10005000530200085302000853020008530200082C
:10006000530200085302000853020008530200081C
:10007000150C000853020008210C00085302000868
:1000800053020008530200085302000853020008FC
:100090003D0B0008490B00085302000853020008FA
:1000A00053020008530200085302000853020008DC
:1000B00053020008530200085302000853020008CC
:1000C00053020008530200085302000853020008BC
:1000D00053020008994A000853020008A54A000884
:1000E000530200085302000853020008530200089C
:1000F000530200085302000853020008530200088C
:10010000530200085302000853020008530200087B
:10011000530200085302000899430008A543000851
:10012000530200082D0C0008390C00085302000887
:10013000530200085302000853020008530200084B
:10014000550B0008610B0008530200085302000819
:1001500053020008450C0008510C0008B14A000881
:10016000530200085302000853020008530200081B
:100170005302000853020008530200080000000068
:10018000530200085302000800F002F800F045F89E
:100190000AA090E8000C82448344AAF10107DA45E2
:1001A00001D100F03AF8AFF2090EBAE80F0013F0EF
:1001B000010F18BFFB1A43F001031847CC100100D0
:1001C000EC100100103A24BF78C878C1FAD8520761
:1001D00024BF30C830C144BF04680C6070470000C1
:1001E0000023002400250026103A28BF78C1FBD840
:1001F000520728BF30C148BF0B6070471FB50FF0D2
:1002000050FE9DE8030000F06BFB00F0BDF91FBD40
:1002100010B5002000F09AFB10BD00F0D8FB11468D
:10022000FFF7ECFF0CF0D8FE00F010FC03B4FFF772
:10023000EFFF03BC00F02AFB09488047094800474C
:10024000FEE7FEE7FEE7FEE7FEE7FEE7FEE7FEE786
:10025000FEE7FEE704480549054A064B70470000E3
:100260008543000889010008386C0020387200209E
:10027000386E0020386E002053EA020C00F06980CE
:100280002DE9F04B4FF00006002B1FBFB3FA83F5AA
:1002900003FA05F424FA05F65E4012BF1643B2FADB
:1002A00082F502FA05F4C5F120051EBF22FA05FC0D
:1002B00044EA0C04203556EA044C4FEA144418BFB3
:1002C000641C4FF000084FF00009904271EB030CE2
:1002D00039D3002919BFB1FA81F701FA07F6B0FA4C
:1002E00080F700FA07F6C7F120071EBF20FA07FCC7
:1002F00046EA0C062037B6FBF4FCA7EB0507103FD7
:1003000007F01F0BCBF120062CFA06F60CFA0BFBBC
:1003100044BFB3460026202FA4BF5E464FF0000B1B
:100320005BEA060C08BF4FF0010B19EB0B0948EB19
:100330000608ABFB027C06FB02CC0BFB03CCC01B0C
:1003400071EB0C01C1E70B46024641464846BDE849
:10035000F08B13B5084318BF4FF0FF300146AFF3E1
:100360000080BDE81C4070470B460146184600F06F
:10037000E3B910B5431C02E010F8011B71B181070D
:10038000FAD14FF0013202C88C1A8C4314EAC21120
:10039000F9D0C01A0A0603D0C01E10BDC01A10BD85
:1003A0000A0401D0801E10BD0902FCD0401E10BD01
:1003B000032A40F2308010F0030C00F0158011F891
:1003C000013BBCF1020F624498BF11F801CB00F869
:1003D000013B38BF11F8013BA2F1040298BF00F8BD
:1003E00001CB38BF00F8013B11F0030300F0678038
:1003F000083AC0F0088051F8043B083A51F804CBA1
:10040000A0E80810F5E7121D5CBF51F8043B40F866
:10041000043BAFF30080D20724BF11F8013B11F871
:1004200001CB48BF11F8012B24BF00F8013B00F8B5
:1004300001CB48BF00F8012B7047431A28BF9A42EE
:100440007FF6B6AF10441144032A40F2268010F024
:10045000030F1EBF11F8013D521E00F8013D10F0C0
:10046000030F7FF4F6AF11F0030300F08F81083A19
:10047000C0F00B8051F8043D083A51F804CD40F823
:10048000043D40F804CDFFF7F3BF121D5CBF51F8E7
:10049000043D40F8043DAFF30080D20724BF11F8BB
:1004A000013D11F801CD48BF11F8012C24BF00F81F
:1004B000013D00F801CD48BF00F8012C704710B590
:1004C000203AC0F00B80B1E81850A0E81850B1E80D
:1004D0001850A0E81850203ABFF4F5AF5FEA027C4C
:1004E00024BFB1E81850A0E8185044BF18C918C07C
:1004F000BDE810405FEA827C24BF51F8043B40F81D
:10050000043B08BF7047D20728BF31F8023B48BF01
:1005100011F8012B28BF20F8023B48BF00F8012B3F
:10052000704702F0FF0343EA032242EA024200F06E
:1005300002B84FF0000200B51346944696462039A3
:1005400022BFA0E80C50A0E80C50B1F12001BFF48C
:10055000F7AF090728BFA0E80C5048BF0CC05DF8F2
:1005600004EB890028BF40F8042B08BF704748BF40
:1005700020F8022B11F0804F18BF00F8012B7047B4
:10058000704770477047000070B5064C7C44064DBC
:100590007D4404E02046016808448047241DAC42A5
:1005A000F8D170BD180D0100300D010070B5064680
:1005B00000F072F9056806F10B0020F00704B44260
:1005C0009CBF002070BD2B466A68BAB11068A0427B
:1005D00010D304F1080188423CBF5068586007D32B
:1005E0005168101941601168091B0160586014605E
:1005F000101D70BD13465268002AE7D121462846D7
:1006000000F05AF90028DED170BD70B50446051F10
:1006100000F042F90068002C14BF446870BD002C43
:1006200018BFAC423CBF20466468F8D301680A1882
:10063000AA4218BF456003D12A68054611440160EB
:1006400028684119A1421CBF6C6070BD6168696077
:1006500021680844286070BD2DE9F04791460C469A
:10066000804600F019F90768604234EA000001D1C1
:10067000042C02D20520BDE8F087601E40F007067A
:1006800009F10B0020F007054D459CBF0020BDE897
:10069000F0873B467A6882B31468101D404206EA30
:1006A000000C644525D9A4EB0C00854221D8BCF18F
:1006B000000F0BD0104601686244A1EB0C011160E1
:1006C00041685160C0F800C058600346116805F1E8
:1006D0000800814205D35019491B0160156058601C
:1006E000034652F8040F58600020C8F80020BDE807
:1006F000F08713465268002ACED12946384600F0CA
:10070000DBF80028C5D10620BDE8F08710B500F061
:10071000CBF8006810BD10B5044600F0C5F80460C1
:1007200010BD10B5002000F032F9FFF771FDBDE8F3
:100730001040012000F0AAB82DE9F0410746154607
:100740000E461020FFF732FF04000AD06760C4E9AC
:10075000026500F0A5F80168216004600020BDE892
:10076000F0810120FBE7431A28BF9A427FF6A7AE2B
:100770001044114410F0030F1EBF11F8013D521E2A
:1007800000F8013D10F0030F7FF4F6AF103AC0F00F
:100790000A8010B531E9185020E91850103ABFF41A
:1007A000F9AFBDE81040530724BF31E9081020E934
:1007B000081044BF51F8043D40F8043D12F0030F07
:1007C00008BF7047D20728BF31F8023D48BF11F873
:1007D000012C28BF20F8023D48BF00F8012C7047CB
:1007E00030B44FF0013C50F8042B51F8043BCCFAE4
:1007F00052F4D51A20D1FCB950F8042B51F8043B1F
:10080000CCFA52F4D51A17D1B4B950F8042B51F8D8
:10081000043BCCFA52F4D51A0ED16CB950F8042B23
:1008200051F8043BCCFA52F4D51A05D1002CDAD099
:1008300030BC4FF00000704729BAB1FA81F111F0D5
:100840001801D1F120008440F2D1CA40CB4012F00F
:10085000FF0213F0FF0330BCD01A704780E8FF1F7F
:10086000C0F834D0C0F838E0C0F83CE04FF00000E9
:10087000704700BF80EC200B704700BF80EC200B5E
:10088000704700BFC0EC200B7047000001491820E2
:10089000ABBEFEE72600020000487047780000204B
:1008A00000487047A80000200048704770000020F2
:1008B000704770477047704738B504460A460020B5
:1008C0006946AFF30080002808BF38BD0246009992
:1008D000204600F0A1F8012038BD012000F0DCB86E
:1008E000F8B5AFF30080054600200C46102000BF8D
:1008F0000646A819A0420DD9324669460020AFF33A
:100900000080070008BF00F0C7F80098A04218BF99
:100910000546C419FFF7C0FF05600746F01D20F02B
:1009200007004619284600F00AF8B44208BFF8BD8F
:10093000A21B31463868BDE8F84000F06DB80021D0
:100940000160C0E901107047102070472DE9F041A7
:100950000646FFF7A5FF8046454613E016B1E0685E
:10096000B0420ED120682860D4E90101D8F80070A7
:1009700088472046FFF749FED8F80000B842EBD17F
:1009800000E025462C68002CE8D1BDE8F08110B5C8
:1009900000F06AF8BDE8104000F061B886469EE8B5
:1009A000FF1FDEF834D0DEF83CE0704790EC200BFF
:1009B000704700BF90EC200B704700BFD0EC200BBD
:1009C000704700000048704770000020704775466F
:1009D000FFF7F8FFAE4605006946534620F00700D2
:1009E000854618B020B5FFF735FCBDE820404FF034
:1009F00000064FF000074FF000084FF0000BAC4628
:100A0000ACE8C009ACE8C009ACE8C009ACE8C00972
:100A100021F007018D467047034640688C46002848
:100A200018BF88423CBF03464068F8D31868184492
:100A3000884207D00CF1030020F00700001D411A86
:100A4000521A0146081D0A60FFF7DFBD10B50446C3
:100A5000AFF300802046BDE81040FFF7E7BB002859
:100A600001D0FFF713BF704710B5002102A000F0BE
:100A70001AF8012010BD0000534947414252543A30
:100A80002041626E6F726D616C207465726D696E6B
:100A90006174696F6E00000010B500F01DF8BDE8CC
:100AA0001040FFF7DCBF70B505460C460A2000E099
:100AB0006D1C00F039F835B128780028F8D102E033
:100AC000641C00F031F814B120780028F8D1BDE89A
:100AD00070400A2000F028B810B5012805D0002188
:100AE00003A0FFF7E0FF012010BD09A1F8E7000017
:100AF00053494752544D454D3A204F7574206F6607
:100B00002068656170206D656D6F7279000000006E
:100B10003A2048656170206D656D6F727920636F52
:100B2000727275707465640008B569468DF80000CE
:100B30000320ABBE08BD0000FEE7000041F2F0500C
:100B4000C2F2000000F03CBA41F2F050C2F20000E4
:100B500000F036BA41F21860C2F2000000F030BA7C
:100B600041F21860C2F2000000F02ABAF0B581B07C
:100B70004FF4FA700CF05AFA42F22874C2F20004F0
:100B8000204605F0C5F902E002200CF04FFAD4E946
:100B90000067BE4203D1F7E70436B742F4D03568A8
:100BA000002DF9D02868C1682846884728688168E0
:100BB00028468847F0E700002DE9F04140F214058F
:100BC00040F2F41740F2D81641F6A014C2F2000524
:100BD00041F22128C2F20007C2F20006C2F200046C
:100BE000D6F80600A5F82D80C5F82F00D5F82D0001
:100BF0007A89294641F80E0FA1F82520D1F8230063
:100C000008224860204602F021FF0A200CF00EFA6C
:100C1000E6E7000041F20070C2F2000000F03EBDC5
:100C200041F26070C2F2000000F038BD41F2C070C5
:100C3000C2F2000000F032BD41F24060C2F200009A
:100C400000F02CBD41F62000C2F2000000F026BDED
:100C500041F2A060C2F2000000F020BD7047000029
:100C600040F27020C2F20000083008F025BF0000FA
:100C700072B600BFFEE7000070B540F27024C2F209
:100C800000044FF4FA7004F10C0500BF0CF0CEF92B
:100C900026690120AE42F9D0B0680168096888472A
:100CA0007668AE42F8D10120F0E7000090F82020ED
:100CB000013A012A08D8006800F1140200201368E4
:100CC00019431160704700BF00F1240201204FF466
:100CD00080211368194311607047000010B590F827
:100CE00020E0D0F800C0AEF1010EBEF1010FDCF83B
:100CF00008E00FD81EF0E05F16D0CEF3016E0120A1
:100D000000FA0EF018608B68C3B1486843EAC0036C
:100D100016E000BF00F1240101204FF480220B688F
:100D20001A430A6010BD00BF00F1240101204FF4F6
:100D300000120B681A430A6010BD00BF0868430523
:100D4000D1E9030403430CEB0E10C0F88031C0F866
:100D50008441097D012905D100F5C2710B6843F476
:100D600080730B605168C0F88C11126800F5C07177
:100D7000C0F88821002001220B681A430A6010BDC8
:100D8000B0B590F82020013A012A2FD846F2006031
:100D9000C4F20000026842F001020260026822F41C
:100DA0007C520260D1F814E0CC694A6A0368012CD5
:100DB00043EA022202600EF01F024FF0010303FA21
:100DC00002F2C3696FEA020C23EA0203C36113D083
:100DD0002CBBC36803EA0C03C360CB688C8844EA6D
:100DE000034300EBCE0423640B4611E0416A41F457
:100DF000802141620120B0BDC3681343C3600B680A
:100E00008C8844EA034300EBCE04236401F10C0315
:100E10008C681B8843EA044300EBCE046364436898
:100E20008D6943EA0204D1F810E0096A002D08BF79
:100E300003EA0C0444604369BEF1000F43EA020474
:100E400008BF03EA0C040129446102D1C1691143BE
:100E5000C161016821F0010101600020B0BD000006
:100E60007047000010B590F82040013C012C7BD861
:100E7000D0F800C0002900F08180DCF81040A40701
:100E800000F081800CEB011CDCF8B0410CF5D87E41
:100E900014F004049460DCF8B04119BFE408546015
:100EA000640D1460DEF800400CF5DA7E04F00204F4
:100EB000D460DCF8B44124075ABFDEF8004004F0E7
:100EC0000F0408241461DEF800400029C4F307244D
:100ED0009461DEF800404FEA14445461DCF8B82114
:100EE0001A70026802EB0112D2F8B8214FEA1222FE
:100EF0005A70026802EB0112D2F8B8214FEA12428E
:100F00009A70026802EB0112D2F8B8214FEA12621D
:100F1000DA70026802EB0112D2F8BC211A71026881
:100F200002EB0112D2F8BC214FEA12225A71026878
:100F300002EB0112D2F8BC214FEA12429A71026808
:100F400002EB0112D2F8BC214FEA1262DA7100689A
:100F500014BF00F1100100F10C01002020220B68E9
:100F60001A430A6010BD00BF00F1240101204FF4B4
:100F700080220B681A430A6010BD00BFDCF80C40E9
:100F8000A4077FF47FAF00F1240101204FF4001289
:100F90000B681A430A6010BD90F82010013901292E
:100FA00084BF002070470068816882688068C1F350
:100FB0008061C2F3C0621144C0F3007008447047FE
:100FC0002DE9F04F81B0044600684669D0F80490DE
:100FD0008768D0F80CB0D0F810A0D0F81880F107CE
:100FE00004D1002530071DD424E000BFF90710D03C
:100FF0000121BA07816009D4780700F1AF80380772
:1010000000F1B680204600F0DFFA02E0204600F052
:10101000DDFA0025F80500F18780F80300F1B180C2
:10102000300707D51BF0100004D0206845F4007588
:101030001021C160700708D51BF0080005D020689A
:101040000821C160204600F00DFAB00706D52068DF
:10105000C068800702D0204600F006FA700607D567
:101060001AF0100004D0206845F480651021016159
:10107000B00608D51AF0080005D0206808210161E3
:10108000204600F06DFAF00606D52068006980075A
:1010900002D0204600F066FAB00308D519F010001F
:1010A00005D0206810214160204600F05DFAF00371
:1010B00008D519F0080005D02068082141602046B5
:1010C00000F08EFA300440F19B805FEA497040F1F5
:1010D000948006F4807008EA102028435FEA887143
:1010E000014648BF41F00201B20558BF01465FEA20
:1010F00048700D4648BF45F00405700558BF0D46C1
:10110000300540F17A8018F0700000F076801038D9
:10111000000905286CD8DFE800F003595D616569B6
:1011200045F0080564E000BF20684FF48071BA05FF
:1011300081600BD4780515D438051DD4204600F005
:1011400047FAF8037FF56CAF1BE000BF204600F0C4
:1011500041FAF8037FF564AF13E000BF4FF4006578
:1011600058E700BF05F50055F8037FF559AF08E0D3
:101170004FF480554EE700BF05F58045F8037FF535
:101180004FAF20684FF48031BA0381600AD47803EE
:1011900010D4380314D4204600F01EFA30073FF56F
:1011A00041AF47E7204600F019FA30073FF53AAF64
:1011B00040E700BF05F5004530073FF533AF39E79D
:1011C00005F5803530073FF52DAF33E745F01005C5
:1011D0000EE000BF45F020050AE000BF45F04005E5
:1011E00006E000BF45F0800502E000BF45F48075D1
:1011F0002068816921F070018161206804214160CB
:1012000055B1606A40EA05012046616201B0BDE85F
:10121000F04FFFF725BE00BF01B0BDE8F08F000022
:10122000B0B5C8B1044690F8200010B9204600F0CF
:1012300071F82068016841F00101016000F0EEFCE6
:10124000054600BF20684168C90707D100F0E6FCE9
:10125000401B0B28F6D312E00120B0BD016821F03D
:101260000201016000F0DAFC054600BF2068416819
:1012700089070DD500F0D2FC401B0B28F6D3606A1D
:10128000052140F400306062012084F82010B0BDD8
:10129000217E0268012922F0800208BF80320260AC
:1012A000617E0268012922F0400208BF40320260DC
:1012B000A17E0268012922F0200208BF20320260CC
:1012C000E17E0268012922F0100218BF103202608C
:1012D000217F0268012922F0080208BF083202605B
:1012E000617F0268012922F0040208BF0432026013
:1012F000D4E901C2D4E9033561691A432A43114391
:10130000ACF101021143C16100200121606284F847
:101310002010B0BDB0B586B0006846F60002C4F239
:10132000000200219042CDE90411CDE902110191A2
:1013300044D046F20041C4F20001884240F08F8060
:1013400040F25061C2F200010A6843F64000C4F264
:101350000200531C0B6052B900210091016841F05A
:1013600000710160016801F0007100910099002195
:10137000009150F8102C42F0080240F8102C50F860
:10138000100C022200F00800009000980320019049
:1013900004900920059040F20040C4F20200CDE91B
:1013A000022100F5006001A900F05AFB1420002181
:1013B0000022142500F0F2FC152445E043F640001D
:1013C000C4F202000091016841F08061016001688F
:1013D00001F080610091009940F25061C2F2000179
:1013E0000A68531C0B6052B900210091016841F05A
:1013F00000710160016801F0007100910099002105
:10140000009150F8102C42F0020240F8102C50F8D5
:10141000100C00F002000090009860200190022063
:10142000CDE90201032004900920059040F200401C
:10143000C4F2020001A900F013FB402005210022A4
:10144000402500F0ABFC4124284600F097FC2046E4
:101450000521002200F0A2FC204600F08FFC06B01F
:10146000B0BD000070470000B0B586B040F238242F
:10147000C2F2000404F10802002123460546FFF7EA
:10148000F1FC41F2F050C2F20000854241D041F23D
:101490001860C2F20000854239D1A06840F23321C1
:1014A000884234D1D4E9001041F29844C2F20004D9
:1014B0000BBAC4E90010CABA1B0C090C23804BBA42
:1014C000638003BA1B0C00EE102A9FED241AA38040
:1014D000B8EEC00A80EE010AC9BA84ED020A00EE35
:1014E000101AB8EEC00A80EE010AC1BA84ED030AF0
:1014F00000EE101AB8EEC00A80EE010A010C000ED0
:101500002175607584ED040A00F088FB606206B006
:10151000B0BD04F1140E9EE8215004F108030ECB77
:101520008DE8215040F2A840C2F20000049409F076
:10153000EFFC04F1140E9EE8215004F108030ECBD9
:101540008DE8211040F2E040C2F200000494CDF892
:101550000CE009F0DDFC06B0B0BD00BF0000C842E1
:10156000704700007047000070470000B0B50446A7
:1015700090F8200001281DD1022084F82000206866
:10158000016821F00101016000F048FB054600BF41
:1015900020684068C00713D000F040FB401B0B28B8
:1015A000F6D3606A40F400306062052084F82000C1
:1015B0000120B0BD606A40F4002060620120B0BD2F
:1015C00000206062B0BD000070470000704700005E
:1015D000704700007047000070470000704700002F
:1015E0007047000070B5866D044600F017FB94F854
:1015F000351002292ED105462068216C026822F0A0
:1016000016020260426922F08002426109B9A16CAF
:1016100019B1016821F008010160016821F00101A0
:1016200001600068C00708D000F0F8FA401B0528E8
:1016300018D820680068C007F6D1E06D3F2101FA94
:1016400000F0B060012084F835000020002184F80B
:10165000341070BD802060650120002184F83410B2
:1016600070BD00BF20206065032084F83500002194
:1016700084F8341070BD000090F83510022909D1AB
:10168000052180F835100068016821F00101016032
:10169000002070478021416501207047F0B581B07E
:1016A00004460020009040F25C00C2F20000026894
:1016B000D4E9166048F2B51337680821C1F64E33F5
:1016C00081403942A2FB03250CD0226813685B07D6
:1016D00008D5136823F004031360B160616D41F015
:1016E0000101616501218140394208D022685269B7
:1016F000120604D5B160616D41F0020161650421FB
:101700008140394208D022681268920704D5B1603E
:10171000616D41F00401616510218140394217D0AB
:1017200020680268120713D5B1600268016852038D
:1017300008D4C90508D4016821F008010160216CB2
:1017400021B905E008033FD4216C09B12046884740
:10175000E16D202000FA01F23A4241D0206803688E
:10176000DB063DD5B26094F835300268052B1BD1FD
:1017700022F016020260426922F080024261226C6D
:101780000AB9A26C1AB1026822F0080202603F2076
:101790008840B060012084F83500216D00200029C8
:1017A00084F8340052D157E00168520310D4C905BF
:1017B00012D4016821F010010160012084F8350085
:1017C000002084F8340007E0A16C0029BED1BFE7F7
:1017D000080301D4616C00E0E16B09B12046884741
:1017E000606DC8B3606DC0072ED0052084F8350049
:1017F0002068A90A026822F001020260009A013200
:101800008A4200921AD80268D20717D0009A013291
:101810008A42009212D80268D2070FD0009A013291
:101820008A4200920AD80268D20707D0009A013291
:101830008A42009202D80268D207DFD1012084F8E0
:101840003500002084F83400E16C29B1204601B055
:10185000BDE8F040084700BF01B0F0BD2DE9F04100
:10186000044600F0DBF9002C4ED00546022084F837
:1018700035000020216884F83400086820F0010059
:1018800008600868C00708D000F0C8F9401B0528A8
:101890006CD821680868C007F6D1086848F23F0292
:1018A000CFF21002D4E90135024004F10C0E9EE89B
:1018B000C1511A432A4310433043384340EA0800D9
:1018C000626A40EA0C00042A40EA0E0320D1D4E9FF
:1018D0000A5E206B4EEA0302104308604869BEF1BD
:1018E000000F20F0030040EA050040F0040C15D082
:1018F000B8F5005F42D0B8F1000F51D1022D52D09F
:10190000012D47D055B94EE00120BDE8F08100BF60
:101910000B60486920F0070040EA020C6FF00F00EE
:101920004AF6AB2250FA81F0CAF6AA22A0FB0223A3
:101930001A0940F64C13C0F601039A5C40F2FF33DB
:101940005F284FF03F00C1F814C021EA030100FAFC
:1019500002F088BF0431C4E9161288600023012216
:101960000020636584F83520BDE8F0810322202340
:101970000320636584F83520BDE8F081032DCDD8C0
:10198000012240230120DFE805F0030E030500BF1C
:10199000E7E700BFAEF1C070B0FA80F0400904E0A4
:1019A000032D04D3BAD1CEF300600028B6D00122B3
:1019B00040230120636584F83520BDE8F0810000F4
:1019C00070B590F834C0BCF1010F46D04FF0010C57
:1019D00080F834C0D0F858E090F835C0BCF1010F61
:1019E00038D14FF0020C80F835C04FF0000CC0F831
:1019F00054C0D0F800C08468056CC06DDCF800608D
:101A0000402C26F48026CCF80060CCF804300B463D
:101A100004BF13460A463F2101FA00F0CCF8083013
:101A2000CCF80C20CEF80800DCF8000040F01600DE
:101A3000CCF800002DB1DCF8000040F00800CCF834
:101A40000000DCF8000040F00100CCF800000020AD
:101A500070BD00BF002180F83410022070BD00006E
:101A60002DE9F04F82B000F13E4241F6004502F10F
:101A7000FF77C4F2020508224FEAB726A84208BF42
:101A80000722072E38BF4FEAB7224FF0010A002481
:101A900000274FF00008009208E000BF023708F16D
:101AA0000108202F04F1040400F0B4800E680AFA43
:101AB00008F916EA090FF1D0D1F804A00AF0030BD7
:101AC000ABF10106012E17D80322866802FA07FE41
:101AD000CA6826EA0E06BA40324382604268CAF3F8
:101AE000001522EA090205FA08F54FEA480C6FEAE8
:101AF0000E062A4342600BE00322BA40D643BBF1F4
:101B0000030FBC4604D1BC464FF0030B22E000BFDC
:101B1000C2688D68324005FA0CF52A43BBF1020F0A
:101B2000C26017D16FF0030202EA5802024404F0C7
:101B30001C030F25D2F820E005FA03FA0D692EEAFE
:101B40000A0E05FA03F343EA0E031362D1F804A068
:101B50000AF0030B02680BFA0CF332401A431AF432
:101B6000403F4FF0010A026098D0002243F6440340
:101B70000192C4F202031A6843F6004E42F4804216
:101B80001A601A68C4F2010E02F480420192019AAE
:101B900028F003024FF6084C7244CFF6FF7C52F84F
:101BA0000C3004F00C060F25B540AB43009D05FA40
:101BB00006F6334342F80C30DEF808204B6842EA60
:101BC000090643F60C4CDD0258BF22EA0906CEF89E
:101BD0000860C4F2010CDCF800209D0242EA09060C
:101BE00058BF22EA0906CCF80060DEF804209D0305
:101BF00042EA090658BF22EA0906CEF80460DEF878
:101C00000020DB0342EA090658BF22EA0906CEF8A3
:101C1000006043E702B0BDE8F08F000046F23850A4
:101C2000C2F200000068704740F2000046F23851EE
:101C3000C2F20000C2F2000100780A681044086095
:101C40007047000080B543F60040C4F2020001680E
:101C500041F400710160016841F480610160016834
:101C600041F480710160032000F0C4F80F2000F0FF
:101C700005F800F061F8002080BD000070B586B066
:101C8000002543F640010195C4F202010A680446AA
:101C900042F010020A60096801A801F010010191E8
:101CA0000199694600F066F9049E002E18BF0126CE
:101CB00000F080F94DF68361B040C4F21B31A0FB07
:101CC00001014FF0FF3000EB914141F6101041F25D
:101CD0000002C2F20000C4F2000240F2E733C0E9A1
:101CE0000021C0E902530561856100F0DDFB054676
:101CF00010B1284606B070BD41F61010C2F20000C7
:101D000000F08CFC05460028F3D1362000F036F8B0
:101D10000F2C0DD8362021460022002500F03EF879
:101D200040F20400C2F200000460284606B070BD14
:101D30000125284606B070BD82B0002043F6400160
:101D40000190C4F202014A6842F480424A604A6843
:101D500002F480420192019A00900868002240F04B
:101D60008050086008680F2100F0805000900098B3
:101D70006FF0010002B000F011B80000002848BF69
:101D8000704700F01F01012202FA01F14EF2001229
:101D90004009CEF2000242F82010704710B54EF60E
:101DA0000C5CCEF2000CDCF80030C3F3022E8EF097
:101DB0000704042C28BF0424BEF103034FF0FF3EA8
:101DC0000EFA04F438BF0023A14399400EFA03F33E
:101DD0009A43114300F00F02043A624409010C32A5
:101DE00000F16043B0F1FF3FC8BF03F564421170DA
:101DF00010BD00004EF60C51CEF200010A684FF6FD
:101E0000FF031A4060F30A2242F0806040F0FD7048
:101E1000086070472DE9F041002800F08B8043F600
:101E20000808C4F202080446D8F8F8030D4600F08A
:101E30000700884207D288F8F853D8F8F80300F072
:101E40000700A84276D12068810717D5410705D53C
:101E5000D8F8001041F4E051C8F80010010705D58A
:101E6000D8F8001041F46041C8F80010D8F800100C
:101E7000A26821F0F0011143C8F80010C0073FD15B
:101E8000D8F8F80300F00700A84207D988F8F853FB
:101E9000D8F8F80300F00700A8424BD120684107AA
:101EA00007D5D8F80010E26821F4E0511143C8F8D2
:101EB0000010000708D5D8F80000216920F4604020
:101EC00040EAC100C8F8000000F09CF8D8F8001003
:101ED00040F29022C1F30311C0F60102515C40F2BE
:101EE0005C0220FA01F140F20400C2F20000006836
:101EF000C2F200021160FFF7C1FE0020BDE8F081D0
:101F00006068811E022907D258F8081C89015CBF4D
:101F10000120BDE8F08111E0012807D158F8081C24
:101F200089035CBF0120BDE8F08107E058F8081C78
:101F3000890703D40120BDE8F08100BFD8F8001064
:101F400021F003010843C8F80000FFF767FE0646CA
:101F500041F28837D8F80000616800F00C00B0EB5F
:101F6000810F8DD0FFF75AFE801BB842F2D90320B3
:101F7000BDE8F0810F22026043F60802C4F20202BB
:101F8000136803F003034360136803F0F0038360F6
:101F9000136803F4E053C360D2F800C04FF4E05379
:101FA00003EADC030361D2F8F80300F007000860DD
:101FB0007047000040F25C0043F60801C2F20000E6
:101FC000C4F202010068096840F2A022C1F3822134
:101FD000C0F60102515CC8407047000040F25C004E
:101FE00043F60801C2F20000C4F202010068096869
:101FF00040F2A022C1F34231C0F60102515CC84058
:102000007047000010B543F60404C4F2020460688F
:1020100000F00C0008280BD0042819BF42F2004041
:10202000C0F2F40041F60030C0F2B70010BD00BFAE
:10203000206821682368490241F60031C0F2B701E7
:1020400000F03F02C3F388105CBF42F20041C0F2CF
:10205000F401A1FB00010023FEF70EF92168022222
:10206000C1F3014102EB4101B0FBF1F010BD0000F2
:102070002DE9F04182B000286AD00446007843F68A
:102080000006C007C4F202060BD0B06800F00C00D6
:10209000042840F0A1803068800302D560680028E1
:1020A00056D0207880071AD5B06810F00C0F09D0F0
:1020B000B06800F00C00082840F0A880706840026A
:1020C00000F1A4803068800702D5E06801283FD184
:1020D0003068216920F0F80040EAC10030602078C3
:1020E000000739D4207840074ED4A5695DB3B068A5
:1020F00000F00C00082840F0BD80012D28D0706849
:10210000E16900F480028A4222D1216A00F03F0294
:102110008A421DD147F6C071626A0140B1EB821F4D
:1021200016D1A26A0023CFF6FF7303EBC23200F48C
:1021300040316FF30F0291420AD1E16A00F0706002
:10214000B0EB016F04D1002002B0BDE8F08100BF08
:10215000012002B0BDE8F0816069002840F2000073
:10216000C4F2472076D00121C0F8801EFFF756FD4B
:10217000054600BF706F8007B4D4FFF74FFD401BCA
:102180000228F7D9DDE000BF306C10F080580AD18A
:1021900000200190306C40F080503064306C00F0D2
:1021A00080500190019847F20007C4F20007386898
:1021B000C00541D4386840F480703860FFF72EFDC8
:1021C000054600BF3868C00536D4FFF727FD401B21
:1021D0000228F7D9B5E000BFB06800F00C0008286D
:1021E00003D1706840023FF556AF6068B0F5803F9C
:1021F00007D0B0F5A02F40F08D80306840F48020EB
:102200003060306840F4803030608DE0E068002855
:1022100052D00020C4F2472001210160FFF7FEFCEC
:10222000054600BF306880073FF552AFFFF7F6FC68
:10223000401B0228F6D984E0A068012805D00528B3
:102240004ED1306F40F004003067306F40F0010035
:1022500030674FE00021C0F8801EFFF7DFFC054625
:10226000706F80077FF53EAFFFF7D8FC401B022858
:10227000F6D966E00027C4F2472700203866FFF74A
:10228000CDFC022D05460BD1306880015ED5FFF7ED
:10229000C5FC401B02284FF00300F5D954E700BFEE
:1022A000306880017FF54FAFFFF7B8FC401B022874
:1022B0004FF00300F4D947E70020C4F24720002183
:1022C0000160FFF7ABFC0546306880077FF507AF7C
:1022D000FFF7A4FC401B02284FF00300F4D933E7BA
:1022E000316F002821F001013167316F21F00401C5
:1022F00031674DD0FFF792FC054641F2883700BFA9
:10230000306F800756D4FFF789FC401BB842F7D9DD
:1023100017E000BF3168002821F480313160316856
:1023200021F4802131604FD0FFF778FC054600BFD3
:10233000306880033FF5B5AEFFF770FC401B6428A2
:10234000F6D9032002B0BDE8F08100BF04F11C05FE
:102350002FCD08430021CFF6FF7140EA821001EB38
:10236000C3316FF30F0140EA05600843706001203C
:102370003866FFF753FC0446306880013FF5E3AE52
:10238000FFF74CFC001B02284FF00300F4D9DBE6FA
:10239000FFF744FC054641F2883700BF306F8007E5
:1023A00008D5FFF73BFC401BB8424FF00300F5D9BE
:1023B000CAE600BFB8F1000F7FF497AE306C20F092
:1023C0008050306491E600BFFFF728FC054600BF4F
:1023D000306880037FF565AEFFF720FC401B642862
:1023E0004FF00300F4D9AFE67047000070470000DB
:1023F00010B590F83C20012A4FF0020251D080F82D
:102400003D200268D2F804E0D2F808C00C682EF033
:102410007003234341F2FF74C4F20004A2425360EC
:102420000EDC40F2FF73C4F200039A4216DCB2F1F4
:10243000804F2BD040F20043C4F2000324E000BFE1
:1024400040F2FF33C4F201039A4213DC41F6000369
:10245000C4F200039A4219D0002313E040F60003AF
:10246000C4F200039A4211D040F60043C4F20003C4
:102470000AE000BF44F20003C4F201039A4205D00F
:1024800040F20043C4F201039A4204D149682CF09F
:102490008003194391600121002280F83D1080F8EB
:1024A0003C20104610BD0000002804BF01207047EA
:1024B00010B5044690F83D0028B9002084F83C008F
:1024C000204600F01FF8022084F83D002068211DFE
:1024D00001F06EFF012084F8460084F83E0084F885
:1024E0003F0084F8400084F8410084F8420084F8FA
:1024F000430084F8440084F8450084F83D0000203F
:1025000010BD000080B582B0006841F20041C4F205
:102510000001884216D040F60041C4F20001884212
:102520000ED10020019043F64000C4F20200016881
:1025300041F008010160006800F008000190019876
:1025400002B080BD0020009043F64000C4F20200BB
:102550000168002241F0200101600068012100F0C3
:102560002000009000983720FFF718FC372002B0B9
:10257000BDE88040FFF702BC90F83D1001291CBF68
:1025800001207047022180F83D10006841F2FF7180
:10259000C4F2000188420DDC40F2FF71C4F2000178
:1025A000884215DCB0F1804F2AD040F20041C4F2DD
:1025B000000123E040F2FF31C4F20101884213DC44
:1025C00041F60001C4F20001884219D0002113E055
:1025D00040F60001C4F20001884211D040F60041EB
:1025E000C4F200010AE000BF44F20001C4F201019C
:1025F000884205D040F20041C4F20101884206D170
:10260000816801F00701062904BF002070470168B6
:1026100041F00101016000207047000090F83D107A
:1026200001291CBF01207047022180F83D1000687D
:1026300041F2FF72C168C4F20002904241F0010110
:10264000C1600DDC40F2FF71C4F20001884215DC6C
:10265000B0F1804F2AD040F20041C4F2000123E0E3
:1026600040F2FF31C4F20101884213DC41F600015F
:10267000C4F20001884219D0002113E040F60001A5
:10268000C4F20001884211D040F60041C4F20001BA
:102690000AE000BF44F20001C4F20101884205D003
:1026A00040F20041C4F20101884206D1816801F084
:1026B0000701062904BF00207047016841F00101AD
:1026C000016000207047000080B590F83C20012A8E
:1026D0004FF0020200F0C28080F83D20D0F800C028
:1026E0004FF67772DCF8083023EA0202CCF80820B3
:1026F0000B684F2B28DC1F2B44DD202B45D0302BC3
:1027000043D0402B40F0AC80D1F804E0C968DCF83D
:102710002030DCF8202022F00102CCF82020DCF868
:10272000182022F0F00242EA011123F00A0242EAE4
:102730000E02CCF81810CCF82020DCF8081041F07C
:10274000470121F0300180E06F2B27DDB3F5005FFA
:1027500048D0B3F5805F7AD0702B40F08180D1E90A
:1027600001E3C968DCF8082043EA0E0322F47F4243
:1027700043EA01211143CCF80810DCF8081041F0BD
:10278000770162E00BB1102B6AD1DCF8081021F060
:102790007001194341F0070157E000BF502B35D0BD
:1027A000602B5DD1D1F804E0C968DCF82030DCF89A
:1027B000202022F01002CCF82020DCF8182022F48F
:1027C000704242EA013123F0A00242EA0E12CCF834
:1027D0001810CCF82020DCF8081041F0670121F037
:1027E000100132E0D1E901E3C968DCF8082043EACE
:1027F0000E0322F47F4243EA01211143CCF8081072
:10280000DCF8081041F480411FE000BFD1F804E07B
:10281000C968DCF82030DCF8202022F00102CCF876
:102820002020DCF8182022F0F00242EA011123F007
:102830000A0242EA0E02CCF81810CCF82020DCF88C
:10284000081041F0570121F02001CCF808100022B7
:10285000012180F83D10002180F83C10104680BD19
:102860000122F5E77047000070B504460068C568AE
:102870000669B10716D515F0020113D06FF00201F9
:102880000161012121778069800703D02046FFF78D
:10289000E9FF05E0204600F08FF8204600F0EAF955
:1028A00000202077700719D515F0040016D0206895
:1028B0006FF00401016102212177806910F4407FEB
:1028C00004D02046FFF7CEFF06E000BF204600F010
:1028D00073F8204600F0CEF900202077300717D596
:1028E00015F0080014D020686FF008010161042180
:1028F0002177C069800703D02046FFF7B3FF05E0CA
:10290000204600F059F8204600F0B4F90020207766
:10291000F00619D515F0100016D020686FF01001E0
:10292000016108212177C06910F4407F04D020465E
:10293000FFF798FF06E000BF204600F03DF8204674
:1029400000F098F900202077F00718BF15F001007B
:1029500002D1300609D412E020686FF00101016154
:10296000204600F013FA300609D515F0800006D095
:1029700020686FF0800101612046FFF735FD700689
:1029800009D515F0400006D020686FF040010161C4
:10299000204600F00DFAB00658BF70BD15F02000BB
:1029A00008D021686FF0200220460A61BDE870401F
:1029B000FFF71CBD70BD0000704700002DE9F0411D
:1029C00090F83C30012B04BF0220BDE8F0814FEAB3
:1029D000B202032A00F2FC80DFE802F0023E7EBE73
:1029E000036840F200471C6A1A6A24F0020422F0CD
:1029F00001021A621A46D3F804E052F818CF8E6822
:102A000043F48065C4F20107BD4244EA060405D1DF
:102A1000CE6824F00C0426F0040634430E68BD4250
:102A200007D1D1E905572EF4407E45EA0E0545EA67
:102A3000070E2CF073073743C3F804E09F614F681B
:102A400009695F631C629F6947F008079F619F697E
:102A500027F004079F61B1E0036840F200481C6A58
:102A60001A6A24F0200422F010021A621A46D3F8DF
:102A700004E052F818CF8F6843F48065C4F201086F
:102A8000454544EA071407D1CF686FF0400624F0AB
:102A9000C00406EA071634430F68454507D1D1E95B
:102AA00005562EF4406E4EEA850545EA860E2CF456
:102AB000E64646EA0727C3F804E09F614F680969C4
:102AC0009F631C629F6947F400679F619F6927F4B9
:102AD00080679F6171E000BF036840F200481C6A94
:102AE0001A6A24F4007422F480721A621A46D3F827
:102AF00004E052F81CCF8F6843F48065C4F20108EB
:102B0000454544EA072408D1CF6840F2FF463F021A
:102B100024F4406427EA060634430F68454507D18C
:102B2000D1E905562EF4405E4EEA051545EA061E2B
:102B30002CF073063743C3F804E0DF614F6809697E
:102B4000DF631C62DF6947F00807DF61DF6927F098
:102B50000407DF6132E000BF036840F20045D3F8AC
:102B600020C01A6A43F4806722F480521A621A461F
:102B70005C6852F81CEFD1F800808E68C4F2010541
:102B8000AF4204D14D6924F4804444EA85142CF406
:102B9000005747EA06372EF4E64646EA08265C6008
:102BA000DE614E6809691E641F62DF6947F40067D1
:102BB000DF61DF6927F48067DF6109021368194369
:102BC00011600021002280F83C200846BDE8F08119
:102BD0000121002280F83C200846BDE8F081000079
:102BE000002804BF0120704710B5044690F83D004E
:102BF00028B9002084F83C00204600F01FF802208D
:102C000084F83D002068211D01F0D2FB012084F8EA
:102C1000460084F83E0084F83F0084F8400084F8C1
:102C2000410084F8420084F8430084F8440084F8AA
:102C3000450084F83D00002010BD000081B0006810
:102C400040F60001C4F20001884201D001B0704793
:102C50000020009043F64000C4F20200016841F0F9
:102C600004010160006800F004000090009801B0C9
:102C7000704700007047000041B1082910D00429B6
:102C800014BF00F1410200F13F020BE090F83E203A
:102C9000012A1CBF01207047022280F83E2013E069
:102CA00000F140021278012A1CBF01207047022265
:102CB000082907D0042914BF80F8412080F83F205C
:102CC00002E000BF80F84020006801F01F010122EF
:102CD000036A02FA01F123EA01020262026A114365
:102CE00041F2FF72C4F20002904201620CDC40F239
:102CF000FF71C4F20001884214DCB0F1804F37D07C
:102D000040F2004116E000BF40F2FF31C4F2010181
:102D1000884215DC41F60001C4F20001884227D048
:102D2000002115E040F60001C4F2000188421FD0E6
:102D300040F60041C4F20001884219D01FE000BFF4
:102D400044F20001C4F20101884211D040F2004176
:102D5000C4F20101884212D1416C40F2004340F4B8
:102D60008062C4F2010341F400419A42416406D1F9
:102D7000816801F00701062904BF0020704701683F
:102D800041F001010160002070470000006841F23D
:102D90000041C4F20001884208D041F20001C4F2AF
:102DA0000001884218BF7047FEF73EBFFDF758BFCD
:102DB0007047000070B582B0044690F842002028A9
:102DC0000AD113460A4600294FF0010018BF002B14
:102DD00006D102B070BD00BF022002B070BD00BFBE
:102DE00001202063002622206663A262A385666418
:102DF00084F842002168E06B44F2856C44F2E57E81
:102E000044F20955C0F6000CC0F6000EC0F60005ED
:102E10000431C0E90FCEC0E91356FEF7D1FD01968B
:102E2000206801680191416801910199216929B3E4
:102E300050E8030F216840F4807041E80302EAB1D2
:102E4000206850E8030F216840F4807041E80302D5
:102E5000A2B1206850E8030F216840F4807041E877
:102E600003025AB1206850E8030F216840F48070D3
:102E700041E8030212B12068DAE700BF206850E899
:102E8000050F216840F0010041E80502E2B1206829
:102E900050E8050F216840F0010041E805029AB1B1
:102EA000206850E8050F216840F0010041E8050264
:102EB00052B1206850E8050F216840F0010041E858
:102EC0000502002ADAD100BF206850E8050F21680A
:102ED00040F0400041E80502DAB1206850E8050FF3
:102EE000216840F0400041E8050292B1206850E8B6
:102EF000050F216840F0400041E805024AB1206812
:102F000050E8050F216840F0400041E80502002A22
:102F1000DAD1206B012839D10020009021680A689D
:102F200000924A680092009A51E8031F226841F01B
:102F3000100142E80313002B3FF44BAF206850E828
:102F4000030F216840F0100041E8030212B320682B
:102F500050E8030F216840F0100041E80302CAB1B5
:102F6000206850E8030F216840F0100041E8030298
:102F700082B1206850E8030F216840F0100041E85A
:102F80000302002A4FF00000D8D122E7012002B04E
:102F900070BD00BF002002B070BD00000A460146AF
:102FA00041F22040C2F2000006F02EBD7047000042
:102FB000B0B582B0044600680168C368426901F098
:102FC0002F05202D03F0200506D12DB1204602B09B
:102FD000BDE8B04001F06EBC5FEA017C1EBF02F0AC
:102FE000010E03F4907212EB0E0255D1226B012AEE
:102FF00005D111F0100218BF13F0100236D10A06E5
:1030000022D513F080021FD094F84110212941D11C
:10301000A168B1F5805F03D12169002900F07282B7
:10302000216A4A1C226209784160E18C01390A0454
:10303000E1842FD1C16821F08001C160C16841F0F5
:103040004001C16002B0B0BD490623D513F0400174
:1030500020D0C16821F04001C1602021204684F8C1
:10306000411002B0BDE8B04000F054BD0021019114
:10307000016801914168019101994169490600F196
:103080008F80A18DE28DE38D002B1CBF891A5FEA32
:1030900001420CD102B0B0BDCA0718BF13F4807250
:1030A00040F038814A0700F13B8140E1206850E858
:1030B000030F226820F4907042E80303DBB120681C
:1030C00050E8030F226820F4907042E8030393B1A4
:1030D000206850E8030F226820F4907042E8030350
:1030E0004BB1206850E8030F226820F4907042E84A
:1030F0000303002BDAD1206850E8050F226820F086
:10310000010042E80503DBB1206850E8050F2268A2
:1031100020F0010042E8050393B1206850E8050F54
:10312000226820F0010042E805034BB1206850E816
:10313000050F226820F0010042E80503002BDAD1D8
:10314000202084F8420000202063206850E8030F0C
:10315000226820F0100042E80303DBB1206850E849
:10316000030F226820F0100042E8030393B12068A7
:1031700050E8030F226820F0100042E803034BB12F
:10318000206850E8030F226820F0100042E8030393
:10319000002BDAD1022289B220466263B4E000BF7C
:1031A000E16B0A68526893B2002B3FF473AFA58DB0
:1031B000AB42BFF46FAFE285C969B1F5807F00F023
:1031C0009C8050E8030F216820F4807041E80302DE
:1031D000E2B1206850E8030F216820F4807041E8D4
:1031E00003029AB1206850E8030F216820F4807030
:1031F00041E8030252B1206850E8030F216820F42F
:10320000807041E803020AB12068DAE7206850E8DC
:10321000050F216820F0010041E80502DAB12068BD
:1032200050E8050F216820F0010041E8050292B145
:10323000206850E8050F216820F0010041E80502F0
:103240004AB1206850E8050F216820F0010041E8EC
:103250000502002ADAD1206850E8050F216820F025
:10326000400041E80502DAB1206850E8050F216806
:1032700020F0400041E8050292B1206850E8050FB7
:10328000216820F0400041E805024AB1206850E87A
:10329000050F216820F0400041E80502002ADAD13C
:1032A000202084F8420000202063206850E8030FAB
:1032B000216820F0100041E80302DAB1206850E8EC
:1032C000030F216820F0100041E8030292B120684A
:1032D00050E8030F216820F0100041E803024AB1D2
:1032E000206850E8030F216820F0100041E8030235
:1032F000002ADAD1E06BFEF775F902206063A08D39
:10330000E18D401A81B2204602B0BDE8B040FFF71F
:1033100045BE00BF626C42F0010262644A0706D5F6
:10332000BEF1000F03D0626C42F0020262648A07B1
:1033300006D5BEF1000F03D0626C42F00402626455
:10334000BCF1000F06D555EA0E0203D0626C42F0C4
:1033500008026264626C002A3FF49CAE11F0200106
:1033600018BF002D03D0204601F0A4FA206841695F
:10337000626C01F0400102F00802891800F0A2809E
:1033800050E8030F216820F4907041E80302C2B3B3
:10339000206850E8030F216820F4907041E8030290
:1033A0007AB3206850E8030F216820F4907041E858
:1033B000030232B3206850E8030F216820F49070B4
:1033C00041E80302EAB12068DAE700BF206850E86C
:1033D000050F216820F0010041E80502DAB12068FC
:1033E00050E8050F216820F0010041E8050292B184
:1033F000206850E8050F216820F0010041E805022F
:103400004AB1206850E8050F216820F0010041E82A
:103410000502002ADAD1206B012824D1206850E867
:10342000030F216820F0100041E80302DAB12068A0
:1034300050E8030F216820F0100041E8030292B128
:10344000206850E8030F216820F0100041E80302D3
:103450004AB1206850E8030F216820F0100041E8CD
:103460000302002ADAD1202084F8420000202063E1
:103470002068416949063FD550E8050F216820F0D2
:10348000400041E805022AB3206850E8050F216892
:1034900020F0400041E80502E2B1206850E8050F45
:1034A000216820F0400041E805029AB1206850E808
:1034B000050F216820F0400041E8050252B1206864
:1034C000DAE700BF2046FFF771FD0020606402B01C
:1034D000B0BD00BFE06B78B144F2FD41C0F6000121
:1034E0000165FEF7C9F800283FF4D4ADE06B016D2B
:1034F00002B0BDE8B0400847204602B0BDE8B04089
:10350000FFF754BD216A31F8022B6FF35F2242604E
:1035100021628AE5002804BF0120704710B50446E7
:1035200090F8410028B9002084F84000204600F0BF
:1035300021F8242084F841002068C16821F400515A
:10354000C160204601F036FA2068016921F49041FB
:103550000161416921F02A014161C16841F40051D2
:10356000C16000202021606484F8411084F842107A
:10357000606310BD2DE9F04F87B00026CDE90566E8
:10358000CDE903660446006844F60001C4F2000178
:103590008842029600F0938041F20041C4F201019A
:1035A000884200F0F68041F20001C4F20101884235
:1035B00040F05F81002743F630000197C4F202001B
:1035C0004169002541F0100141614169C4F20205E1
:1035D00001F01001019101990197016802AE41F0DB
:1035E00002010160016846F2280801F00201019120
:1035F0000199019701684FF0020941F00101016052
:1036000000684FF0030A00F001000190019880204B
:1036100002904FF0070B05F580603146C4F20208B6
:10362000CDE90397CDF814A0CDF818B0FEF718FA3D
:103630004FF40070CDE9020904A880E8800C284608
:103640003146FEF70DFA41F2A06508F59260C2F22C
:1036500000054FF000664021C5E9000605F10800AD
:103660004FF4806980E882022846C5E90577C5E9FC
:1036700007776F62FEF7F2F8002818BFFDF7F8FA37
:10368000A563AC6341F2406508F58360C2F20005B2
:1036900085E8C1002846C5E90379C5E90577C5E98C
:1036A00007776F62FEF7DAF8002818BFFDF7E0FA37
:1036B000E563AC632520052100222524D4E043F6F0
:1036C00030000196C4F20200016946F2280841F474
:1036D000802101610169C4F2020801F48021019195
:1036E00001990196016841F004010160006802A996
:1036F00000F00400019001984FF440600290022015
:10370000CDE9030603200590072006900020C4F2AF
:10371000020000F50060FEF7A3F941F20075C2F265
:1037200000054FF000674FF480692846C5E900871F
:10373000C5E90266C5E90496C5E90666C5E90866F5
:10374000FEF78CF8002818BFFDF792FAE563AC632A
:1037500041F2607508F13000C2F200054021C5E970
:10376000000705F10800002280E806022846C5E9A6
:103770000522C5E907226A62FEF770F8002818BF23
:10378000FDF776FAA563AC632720042100222724E5
:103790006AE0002643F630000196C4F20200416957
:1037A00046F2280841F0200141614169C4F2020853
:1037B00001F02001019101990196016841F0400159
:1037C0000160006802A900F04000019001984FF4E8
:1037D000844002900220CDE90306032005900820D2
:1037E00006900020C4F2020000F5C050FEF738F940
:1037F00041F6200508F58F60C2F200054FF0206702
:103800004021C5E9000705F108004FF4806980E810
:1038100042022846C5E90566C5E907666E62FEF7FD
:103820001DF8002818BFFDF723FAA563AC6341F229
:10383000C07508F58060C2F20005C5E9000728469A
:10384000C5E90266C5E90496C5E90666C5E90866E4
:10385000FEF704F8002818BFFDF70AFAE563AC6329
:103860004720042100224724FEF798FA2046FEF75D
:1038700085FA07B0BDE8F08F70B582B0044690F8C5
:10388000420020280AD113460A4600294FF00100C1
:1038900018BF002B06D102B070BD00BF022002B0DD
:1038A00070BD00BF002622202663A262A385666445
:1038B00084F842002168E06B44F2856C44F2E57EB6
:1038C00044F20955C0F6000CC0F6000EC0F6000523
:1038D0000431C0E90FCEC0E91356FEF771F8019626
:1038E000206801680191416801910199216929B31A
:1038F00050E8030F216840F4807041E80302EAB108
:10390000206850E8030F216840F4807041E803020A
:10391000A2B1206850E8030F216840F4807041E8AC
:1039200003025AB1206850E8030F216840F4807008
:1039300041E8030212B12068DAE700BF206850E8CE
:10394000050F216840F0010041E80502E2B120685E
:1039500050E8050F216840F0010041E805029AB1E6
:10396000206850E8050F216840F0010041E8050299
:1039700052B1206850E8050F216840F0010041E88D
:103980000502002ADAD100BF206850E8050F21683F
:1039900040F0400041E80502DAB1206850E8050F28
:1039A000216840F0400041E8050292B1206850E8EB
:1039B000050F216840F0400041E805024AB1206847
:1039C00050E8050F216840F0400041E80502002A58
:1039D000DAD1002002B070BD90F84230202B1CBF1D
:1039E0000220704700294FF0010318BF002A01D1BF
:1039F0001846704700230363816222218285C285B5
:103A0000436480F842100169006819B1C16841F44B
:103A10008071C1604169002341F001014161C168C9
:103A200041F02001C16018467047000010B50446FF
:103A300040F21400C2F20000214601F0E3FD2046EE
:103A4000BDE8104004F0B0BC7047000070B50446FB
:103A500090F8410020281CBF022070BD00294FF0C3
:103A6000010553D01346002A50D0002521202162A1
:103A7000A384E384656484F841002668A06B44F263
:103A8000095244F2FD7C44F6AD0EC0F60002C0F6C9
:103A9000000CC0F6000EC0E91325321DC0E90FCEA0
:103AA000FDF78EFF20686FF0400140F8141B50E8CE
:103AB000000F216840F0800041E8050232B300BFEA
:103AC000206850E8050F216840F0800041E80502B9
:103AD000F2B1206850E8050F216840F0800041E80D
:103AE0000502AAB1206850E8050F216840F0800067
:103AF00041E8050262B1206850E8050F216840F0F6
:103B0000800041E80502002ADAD10025284670BD70
:103B1000002070BD7047000070470000FEE7000005
:103B200080B5042008F0F0FA40F23071C0F60101CF
:103B30000831016006F0C4F840F25460C2F200009F
:103B40000121017080BD000080B541F2F05046F2C5
:103B50000041C2F20000C4F200010622002380E806
:103B60000E0000F10C014FF4403C4FF4801E81E840
:103B7000085083618383FDF753FB002808BF80BD95
:103B8000BDE88040FDF774B880B541F2186046F694
:103B90000001C2F20000C4F200010622002380E806
:103BA0000E0000F10C014FF4403C4FF4801E81E800
:103BB000085083618383FDF733FB002808BF80BD75
:103BC000BDE88040FDF754B880B582B0002043F6D0
:103BD00030010190C4F202010A6842F480020A60D6
:103BE0000A6802F480020192019A0090086800229B
:103BF00040F4001008600868052100F400100090EF
:103C000000980C20FEF7CAF80C20FEF7B7F80E203B
:103C100005210022FEF7C2F80E20FEF7AFF839208A
:103C200005210022FEF7BAF83920FEF7A7F83A205E
:103C300005210022FEF7B2F83A20FEF79FF8452052
:103C400005210022FEF7AAF84520FEF797F8462046
:103C500005210022FEF7A2F8462002B0BDE8804010
:103C6000FEF78CB810B544F2B52040F65412C0F6F9
:103C70000000C0F60102002109F01AFA40F2D00457
:103C8000C2F20004206040F66D3040F60412C0F627
:103C90000000C0F60102002109F00AFA606040F657
:103CA000B93040F62812C0F60000C0F6010200212B
:103CB00009F0FEF9A06044F2792040F69C12C0F6AB
:103CC0000000C0F60102002109F0F2F9E06044F2C0
:103CD000851040F6C012C0F60000C0F601020021B7
:103CE00009F0E6F9206140F6794040F67812C0F616
:103CF0000000C0F60102002109F0DAF9606110BD90
:103D000081B0002143F630000091C4F20200026845
:103D100042F002020260026802F002020092009A7F
:103D20000091026842F040020260026802F0400224
:103D30000092009A0091026842F00102026002685B
:103D400002F001020092009A0091026842F008021B
:103D50000260026802F008020092009A0091026874
:103D600042F004020260026802F004020092009A2B
:103D70000091016841F080010160006800F080005E
:103D80000090009801B0704770B590B040F6000503
:103D900041F68000C4F200050021C2F20000A72213
:103DA0004FF6FF73CDE90811CDE90611CDE90411F5
:103DB000C0E90052C0E9021301618161FEF710FF02
:103DC000002818BFFCF754FF41F68000C2F2000043
:103DD00008A9FEF70DFB002818BFFCF749FF41F6C4
:103DE00080046020C2F200040190002601A9204650
:103DF0000822CDE902660596FEF7E0FD002818BF0F
:103E0000FCF736FF206840F60041C4F2000188420A
:103E10000B9619D0A84234D100200A9043F6300006
:103E2000C4F202000168032241F008010160006849
:103E3000012100F008000A900A984FF480400B908E
:103E400005F5013015E000BF002143F630000A916E
:103E5000C4F20200026842F08002026000680022A0
:103E600000F080000A900A984FF4E0500B9005F59E
:103E700005300223CDE90C310BA9CDE90E23FDF766
:103E8000EFFD10B070BD0000B0B594B040F6004535
:103E900041F6C800C4F200050021C2F200004FF64E
:103EA000FF720D91CDE90B110991CDE90711CDE913
:103EB0000511CDE90311CDE90111C0E90051C0E9B7
:103EC000021201618161FEF7EFFA002818BFFCF7CA
:103ED000CFFE4FF480500A9041F6C800C2F20000B5
:103EE0000AA9FEF7F1FB002818BFFCF7C1FE41F656
:103EF000C800C2F20000FEF773FE002818BFFCF7EE
:103F0000B7FE41F6C8000024C2F2000008A9CDE9BE
:103F10000844FEF76DFA002818BFFCF7A9FE6020E0
:103F2000019042F21070CDE9020441F6C800C2F2DD
:103F3000000001A900220594FEF740FD002818BFEB
:103F4000FCF796FE41F6C800C2F2000001A9042267
:103F5000FEF734FD002818BFFCF78AFE41F6C804BE
:103F6000C2F2000401A920460822FEF727FD00281E
:103F700018BFFCF77DFE20680021A8420F911DD0DC
:103F800040F60001C4F20001884233D100200E90B7
:103F900043F63000C4F202000168032241F0080138
:103FA00001600068012100F008000E900E984FF4A7
:103FB00080400F9005F5003014E000BF43F630005C
:103FC0000E91C4F20200026842F0800202600068B2
:103FD000002200F080000E900E984FF4E0500F90F9
:103FE00005F504300223CDE910310FA9CDE91223E4
:103FF000FDF736FD14B0B0BD80B582B041F6581063
:104000000021C2F2000041F2004240F2E73CCDE95B
:104010000011C4F200025323C0E9021C8021C0E950
:1040200000238161FEF740FA002818BFFCF720FE4C
:1040300041F65810C2F200006946FEF7D9F900288F
:1040400018BFFCF715FE02B080BD000080B541F638
:10405000A01041F20001C2F20000C4F201010023ED
:104060004FF00C0C4FF4E13280E80E00C0E903334E
:10407000C0E905C3C361FFF74DFA002808BF80BD42
:10408000BDE88040FCF7F4BD10B541F6E81044F6F9
:10409000000C48F2A062C2F20000C4F2000CC0F2B0
:1040A00001024FF4805300214FF4806E0C24C0E9CC
:1040B00000C2C0E90231C0E904E4C0E90611FFF71B
:1040C00029FA002808BF10BDBDE81040FCF7D0BD9C
:1040D00080B541F6302041F20041C2F20000C4F246
:1040E000010100234FF00C0C4FF4612280E80E0018
:1040F000C0E90333C0E905C3C361FFF70BFA002829
:1041000008BF80BDBDE88040FCF7B2BDFEE70000FF
:10411000FEE70000000000000000000000000000BA
:10412000EFF30980BFF36F8F154B1A681EF0100F65
:1041300008BF20ED108A20E9F04F10602DE909003A
:104140004FF0500080F31188BFF34F8FBFF36F8F94
:104150000AF07CF84FF0000080F31188BDE80900F8
:1041600019680868B0E8F04F1EF0100F08BFB0ECF7
:10417000108A80F30988BFF36F8F704700BF00BFBC
:10418000100100202DE9F04F81B02DED0A8B82B097
:1041900040F26064C2F200049FED328A9FED329AD1
:1041A0009FED32AA9FED32BA41F2186B9FED31CAF2
:1041B00040F61C174FF4FA7804F59075C2F2000B24
:1041C000C2F20007404608F031FF41F6087140F2A4
:1041D000A8422846C2F20001C2F20002B0EE480A2C
:1041E000F0EE490A03F032FF41F6C84140F2E042E6
:1041F0002046C2F20001C2F20002B0EE4A0AF0EE1E
:104200004B0A03F023FF40F2D810C2F200004089AD
:1042100041F29849013800BA000CC2F2000929F8AD
:10422000160FD9F80AA005F00BFD01684FF0010840
:104230008E69594652464B46CDF80080B047A9F1E9
:10424000060094ED330AD4ED340A94ED7B1AD4EDD4
:104250007C1A90ED002A3846F0EE4C2A06F064FDF8
:10426000B0E700BF6666E638F1A23E3B66660639F7
:104270003577D63D0000000080B541F2B830C2F27B
:10428000000004F0CDFC00BF012008F0CFFEFBE7EA
:10429000074B19680868B0E8F04F80F30988BFF34E
:1042A0006F8F4FF0000080F31188704700BF00BF90
:1042B00010010020012008F0B9FEFBE780B54EF2A6
:1042C0001000CEF2000000680AF012FC012808BFBE
:1042D00080BDBDE880400AF0D9B80000B0B592B00A
:1042E000002443F64000CDE90A44CDE90844059492
:1042F000CDE90344CDE901440094C4F20200016811
:10430000022541F080510160006800F0805000906B
:10431000009847F200000094C4F20000016841F4E4
:1043200080410160006800F4804000900098012006
:1043300006904FF4803007904FF480000D900620D7
:104340000E90A8200C95CDE90F050420119006A829
:10435000FDF78EFE08B172B6FEE70F20CDE901052C
:104360004FF4A05004904FF48050059001A805210F
:104370000394FDF74FFD10B172B600BFFEE712B017
:10438000B0BD00004EF68850CEF20000016841F446
:10439000700101607047000041F61010C2F2000089
:1043A000FEF762BA41F65810C2F20000FEF75CBA9E
:1043B00010B540F6FF3E0368C4F2000E40F2004C18
:1043C0007045C4F2010C27DCB0F1804F31D040F2CF
:1043D0000042C4F2000290422BD040F60002C4F228
:1043E0000002904225D041F6FF72C4F200029042D2
:1043F00029DC70453CDCB0F1804F5FD040F20042D8
:10440000C4F20002904259D040F60002C4F2000209
:10441000904253D056E000BF40F60042C4F2000282
:10442000904206D0604504D00022C4F201029042BE
:10443000D9D14A6823F07003134341F6FF72C4F2E6
:1044400000029042D5DD43F6FF72C4F201029042B1
:1044500022DC42F20002C4F2000290422ED000227E
:10446000C4F20102904229D0604527D02AE000BF63
:1044700040F60042C4F2000290421FD041F6000212
:10448000C4F20002904219D041F60042C4F2000288
:10449000904213D016E000BF44F20002C4F20102C1
:1044A00090420BD044F60002C4F20102904205D0C3
:1044B00044F20042C4F20102904203D1CA6823F4DC
:1044C0004073134323F080024B69D1F800E08C68FD
:1044D0001A430260C46240F48062C0F828E062457A
:1044E00004BF09690163012141610169C90708BF6E
:1044F00010BD016921F00101016110BD806B002137
:10450000C185C184FEF752BD806B01684A6990F88D
:104510004130212B2ED112F080022BD00022C284F8
:1045200051E8031F026821F0C00142E80313EBB118
:10453000016851E8031F026821F0C00142E803133B
:10454000A3B1016851E8031F026821F0C00142E8ED
:1045500003135BB1016851E8031F026821F0C00139
:1045600042E8031313B10168DAE700BF202180F8A5
:10457000411001684A6990F84230222B7CD112F038
:10458000400279D00022C28551E8031F026821F45D
:10459000907142E80313C3B3016851E8031F026836
:1045A00021F4907142E803137BB3016851E8031FC3
:1045B000026821F4907142E8031333B3016851E8B3
:1045C000031F026821F4907142E80313EBB1016804
:1045D000DAE700BF016851E8051F026821F0010118
:1045E00042E80513DBB1016851E8051F026821F0BC
:1045F000010142E8051393B1016851E8051F026803
:1046000021F0010142E805134BB1016851E8051F93
:10461000026821F0010142E80513002BDAD1016B99
:10462000012924D1016851E8031F026821F010011B
:1046300042E80313DBB1016851E8031F026821F06F
:10464000100142E8031393B1016851E8031F0268A7
:1046500021F0100142E803134BB1016851E8031F38
:10466000026821F0100142E80313002BDAD1202167
:1046700080F8421000210163416C41F01001416457
:10468000FEF794BC0168806B0968C90500F19F8042
:104690000021C185016851E8031F026821F480717F
:1046A00042E80313E3B1016851E8031F026821F4F3
:1046B000807142E803139BB1016851E8031F02684F
:1046C00021F4807142E8031353B1016851E8031FDC
:1046D000026821F4807142E80313002BDAD100BF95
:1046E000016851E8051F026821F0010142E8051345
:1046F000BBB3016851E8051F026821F0010142E8DF
:10470000051373B3016851E8051F026821F0010128
:1047100042E805132BB3016851E8051F026821F038
:10472000010142E80513002BDAD11AE0016851E8D3
:10473000051F026821F0400142E80513DBB1016862
:1047400051E8051F026821F0400142E8051393B1CA
:10475000016851E8051F026821F0400142E8051395
:104760004BB1016851E8051F026821F0400142E8A1
:104770000513002BDAD1202180F84210016B0129AA
:1047800025D100BF016851E8031F026821F0100124
:1047900042E80313DBB1016851E8031F026821F00E
:1047A000100142E8031393B1016851E8031F026846
:1047B00021F0100142E803134BB1016851E8031FD7
:1047C000026821F0100142E80313002BDAD1002126
:1047D0004163016B012918BFFFF728B9818DFEF7EE
:1047E000DDBB0000806B01214163016B012918BF13
:1047F000FFF72AB9818D4908FEF7D0BB0168806BAD
:104800000968C90548BFFFF785B90021C18400BF09
:10481000016851E8051F026821F0800142E8051394
:1048200083B3016851E8051F026821F0800142E866
:1048300005133BB3016851E8051F026821F08001B0
:1048400042E80513F3B1016851E8051F026821F041
:10485000800142E80513002BDAD113E0016851E82A
:10486000031F026841F0400142E80313002B08BF18
:104870007047016851E8031F026841F0400142E8B7
:10488000031393B1016851E8031F026841F040012E
:1048900042E803134BB1016851E8031F026841F07D
:1048A000400142E80313002BD8D17047806BFFF71B
:1048B00033B9000081B090F84210222920D18368DA
:1048C000B3F5805F08D10169002965D000F12801A6
:1048D0000A6803685B680AE0014651F8282F13B99B
:1048E0000369002BF5D003685B6803F07F03137046
:1048F0000A6801320A60C18D01390A04C18501D0FC
:1049000001B070470168CA6822F02002CA60CA6814
:1049100022F48072CA604A6922F001024A612022B0
:1049200080F8422000224263036B012B3ED10263D8
:1049300051E8031F026821F0100142E803130168E7
:10494000DBB151E8031F026821F0100142E80313B4
:10495000016893B151E8031F026821F0100142E899
:10496000031301684BB151E8031F026821F01001E5
:1049700042E803130168002BDAD10A68D20606D593
:10498000002200920A680092496800910099818D86
:1049900001B0FEF703BB00BF0168826A49686FF38C
:1049A0005F2122F8021B8262A5E700BF01B0FFF77A
:1049B0003DB8000010B504460068D4E902C223697E
:1049C000016921F4405111430161626943EA0C011C
:1049D000E3691143C268194349F20C639A431143D6
:1049E000C1604169A26921F4407141F20043114361
:1049F00040F48062C4F201039A42416102D1FDF7A2
:104A0000EDFA01E0FDF7D6FAE16963681922B1F524
:104A1000004FA0FB02011FD15A00DB0FFBF72CFC5B
:104A200048F21F51C5F2EB11A0FB01235A096FF0A8
:104A3000630302FB0300322303EBC000A0FB010170
:104A40004FF4F87000EA111000EB0210C1F34211AC
:104A500008442168886010BD9A009B0FFBF70CFC8E
:104A600048F21F51C5F2EB11A0FB01235A096FF068
:104A7000630302FB0300322303EB0010A0FB0101E0
:104A8000F02000EA511000EB0210C1F3431108447A
:104A90002168886010BD000041F6A010C2F200003D
:104AA000FEF786BA41F6E810C2F20000FEF780BABF
:104AB00041F63020C2F20000FEF77ABAFEE70000AD
:104AC00042F2287146F2F90040F20002C2F20001FF
:104AD0000023C0F60000C0F60002C1E900338B607D
:104AE000FBF742BCF0B581B040F2702440F2F460B4
:104AF000C2F20004C0F601000830264646F8080F4E
:104B0000301D0021C6E901004AF6655040F200025E
:104B1000F160C0F60000C0F600023146FBF724FC4D
:104B2000402007F0F1FA054640F29470C0F601000B
:104B300000F1080730682F606E6002683046294631
:104B4000904740F20870C0F6010008302860FF204E
:104B50000022CFF60070CFF6FF7205F130034FF060
:104B6000FF2107C3E8634BF6016040F20002C0F684
:104B70000000C0F6000221462560FBF7F5FB30205F
:104B800007F0C2FA0546204650F8081FC5E9007034
:104B90000A682946904740F21C70C0F601000830B0
:104BA0002860002344F8045F4BF6196040F20002CD
:104BB000C0F60000C0F600022146AB7201B0BDE8AD
:104BC000F040FBF7D1BBFFE70446284607F099FA0F
:104BD000204600F08FFA0000F0B581B02DED048B77
:104BE00040F260649FED3D8A9FED3D9AC2F2000461
:104BF0002046B0EE480AF0EE490A05F045FC0227CF
:104C000004F18000012504F1900302210122C4E98E
:104C1000227507F0DEFF04F1980004F1A8030221D9
:104C20000122C4E9287507F0D4FF0020C4F208105F
:104C30000026C4F8C00004F59070B0EE480AF0EE0B
:104C4000490A84F8B46005F01FFC04F5D07004F53F
:104C5000D87302210122C4E96A7507F0BAFF04F58E
:104C6000DC7004F5E47302210122C4E9707507F0D9
:104C7000B0FF0020C4F27020C4F8D0014FF07E5085
:104C800049F69A11C4E9760000200022C4F2D90145
:104C9000C4F27A40C4F2FA32C4F8E01184F8D45174
:104CA000C4E98E200020C4F21020C4F8B00045F6FC
:104CB000DC3047F62253C3F63B60C4F20C13C4E960
:104CC0002E030020C4F2C820C4F8C01084F8B460D9
:104CD000C4E94602BDEC048B01B0F0BDACC527377A
:104CE00058FF7F3F2DE9F04381B040F2004840F289
:104CF000C027C2F2000840F27040C2F2000708F17B
:104D00003403C2F200004FF400710122009706F054
:104D100095F940F20805C2F2000540F65C136E1CDE
:104D20003830C2F200034FF400710422009606F0FE
:104D300085F940F2E049C2F2000940F63C236E1DBD
:104D4000C2F2000348464FF401710422009606F0B7
:104D500075F940F28C36C2F20006381D06F1540394
:104D60004FF404710122009500F056FD41F68823AE
:104D700041F26F2100220020C2F20003C3F683211A
:104D8000C4F2C82249F6991C49F69A15C3E92000D5
:104D9000C3F88800C3E91B025967C3E94400C3F89C
:104DA0001801C3E93F02C3F80411C3E96800C3F85E
:104DB000A801C3E96302C3F89411C3E98C00C3F8E6
:104DC0003802C3E98702C3F824120023C3F6C97C62
:104DD000C9F69915C4F25403C7F824C03D62C7E967
:104DE0000A00C7E90C00B863C7E90F3041F6C843B1
:104DF000C2F20003C7E91100F864C3E92000C3F858
:104E00008800C3E91B025967C3E94400C3F81801CD
:104E1000C3E93F02C3F80411C3E96800C3F8A8015D
:104E2000C3E96302C3F89411C3E98C00C3F83802E4
:104E3000C3E98702C3F82412C7E9145C46F2184399
:104E400046F2A845C2F20003C2F20005C7E9180005
:104E5000C7E91600C3E92000C3F88800C3E91B02B4
:104E6000596740F228330027C5E92000C5F88800BB
:104E7000C5E91B02696748F20005C2F20003C4F2EB
:104E80002E07CCF26605C3E90007C3E90200C3E9B7
:104E90000400C3E90605002742F24815CCF22407B6
:104EA000C2F20005C5E92000C5F88800C5E91B026B
:104EB00069670025C3E91000C3E90800C3E90A07D0
:104EC00041F60877C4F21405C2F20007C3E90C05E5
:104ED000002544F2000407F1800CC4F27A45C4F2C4
:104EE000BF048CE8310007F5887CC7E91B027967AD
:104EF0008CE8310007F5D07CC7E93F02C7F8041100
:104F00008CE8310007F50C7CC7E96302C7F89411FF
:104F10008CE83100C7E98702C7F8241240F2E8673D
:104F2000C0F601070837C8F8007042F23477002550
:104F3000C2F20007C4F29635C7E903057961C7E9F3
:104F40000A053963C7E91105F964C7E91805B966A7
:104F50000027C4F2F017C3E90E00C3E91507D965AD
:104F60000023C4F27013C6E903037161C6E90A03A2
:104F70003163C6E9110242F2A4720023C2F20002B8
:104F8000C4F21643F164C2E903035161C2E90A03A2
:104F90001163C2E91103D164C2E91803916641F2B9
:104FA000D84300210022C2F20003C4F2A001C4F2DF
:104FB0004822C3E900129860C3E90400C3E908006D
:104FC000C3E90E121864C3E91200C3E91600C3E96D
:104FD0001C129867C3E92000C3E92400C3E92A1220
:104FE000C3F8B000C3E92E00C3E9320040F25053C9
:104FF000C2F20003C3E900129860C3E90400C3E9E8
:105000000800C3E90E121864C3E91200C3E91600D0
:1050100041F2B853C2F20003C9E90E12C9F84000C8
:10502000C9E91200C9E91600C3E900129860C3E992
:105030000400C3E9080001B0BDE8F083704782684E
:1050400012B1014601201047704780B58AB0694609
:1050500007F06DFC0299002818BF002108460AB02D
:1050600080BD80B58AB0694607F061FC00990028D0
:1050700018BF002108460AB080BD000070B5ADF52C
:10508000407D62AD04462846FBF7E8FB00206E46F3
:10509000E0603046294607F06EFCB6A9304607F0BE
:1050A00046FCA8B96D46B6AEB99B5BB1B698BB9944
:1050B000BE9AC4E912022165002021462A4698477B
:1050C000082809D12846314607F031FC0028EBD0EA
:1050D00003200DF5407D70BD062803D0092818BFB8
:1050E0000320F6E762A869462246002300F038FA5A
:1050F0000220EEE7B0B5ADF5367D62AD0446284638
:10510000FBF7ACFB694628462246012300F028FA4B
:10511000FBF707FB70B5049C1546012906460BD02A
:1051200019BB0F2D4FF0020013D893B93046294612
:10513000224607F00AFC13E0052B07D0012B07D10C
:105140000F2D05D8304607F042FC03E01F2D01D992
:10515000022070BD05F580713046224607F0D0FB75
:10516000002818BF0120400070BDFBF7DAFA0000EC
:105170002DE9F04F81B09A42044680F0F3801D463D
:105180008A460026EB46202782F003001AF800909A
:1051900002F101085FEA09600ED420460D215A464B
:1051A00007F0D3FB5FEA49604FEA89002AD40099EF
:1051B0000844021D2BE000BF09F0F0008038000910
:1051C000052800F2DB80DFE800F003283744607B2D
:1051D000A84580F0D38088F003014FEA09301AF81F
:1051E000011080B240EA0113002B00F0C78009F0E3
:1051F000080002F1020846EAD006204600211A46BD
:1052000025E000BF009900F0FC00081A021F009280
:1052100020460D2107F0F9FB9EE049F0020000F066
:105220000F000F2800F0AA8009F00F0120465A460F
:1052300007F08BFB009AEBE709F0070007FA00F094
:10524000103809F0080140EAC1222046002100235D
:1052500080E0A9F1B00107293FD80920DFE801F07B
:105260008004446B8F8F8F8FA84580F0878088F0F3
:1052700003001AF800300920002B00F0808013F0A2
:10528000F0017CD102F10208B7E709F0FE00C8285E
:1052900074D188F003001AF80010A9F1C800B0FA20
:1052A00080F040090B0943EA001001F00F01431898
:1052B0001F2B63D841EA004002F10208421C08E0BB
:1052C0005FEA09705AD4012109F00700C0F2080111
:1052D00042182046012105233CE0012109F0070086
:1052E000C0F20801421831E0B1460026002000BF9C
:1052F000A84543D288F003011AF8011008F101070C
:1053000001F07F028240164307300906B846EFD409
:1053100020460D215A4607F018FB00980D2100EB9E
:10532000860000F501722046009207F06EFBB84639
:105330004E46202710E088F003001AF8000002F122
:10534000020840EA003000F00F10421C2046012104
:10535000012300BF00F016F8A8454246FFF414AF41
:10536000F00709D16A4620460E2107F0EEFA009AAE
:1053700020460F2107F049FB082000E0092001B07A
:10538000BDE8F08F2DE9F04186B01E461546012993
:1053900004462CD0002965D19EBB02AA20460D21CF
:1053A00007F0D3FA68BB00270DF11408002600BFF0
:1053B00025FA06F0C00713D00298324650F8041BB5
:1053C00000230290059120460021CDF8008000F0D6
:1053D0004BF8B0B9A6F10D00B0FA80F040090743D0
:1053E0000136102EE4D1F80732D000200AE046F052
:1053F0000400052805D105AA20460D2107F0A5FACD
:1054000018B1022006B0BDE8F081A8B2C0B12F0CDF
:1054100000EB15450DF1080805983A4600F1080122
:10542000059103C83346CDE9020120460121CDF89C
:10543000008000F019F80028E3D10137AF42EBD328
:10544000012E03D10598021D059202E0059A00E0A5
:10545000029A20460D2107F0D8FA002818BF012033
:105460004000CFE7FBF75DF970B5049E14460129B3
:1054700005460BD021BB0F2C4FF0020013D893B977
:1054800032682846214607F0C0FA14E0052B07D001
:10549000012B07D10F2C05D8284607F098FA03E016
:1054A0001F2C01D9022070BDD6E9002304F58071BC
:1054B000284607F08FFA002818BF0120400070BD71
:1054C000FBF72FF970B58AB041F2F05401200021AA
:1054D000C2F200046D460890CDE90011CDE9021139
:1054E000CDE90411CDE906100E262046294609967D
:1054F000FBF746FC059641F218661C20C2F2000636
:10550000099030462946FBF73BFC2046FCF72EF875
:1055100020460221FBF7CAFB3046FCF727F830464D
:105520000221FBF7C3FB0AB070BD0000B0B588B024
:105530000546082005900020CDE90300CDE90110C3
:105540008DF81800284614460793FBF725FD28B16F
:1055500001A907AB28462246FBF7C0FB08B0B0BD47
:105560002DE9F0478CB00C46014620469A46154678
:1055700007F001FA01260DF12C080DF104091AF0CB
:1055800001004FF0010718BF022708D03EB92A6971
:1055900020464FF0FF3107F038FA4FF0000A20465E
:1055A0006FF00101424607F0D0F92046494607F066
:1055B000BEF920BB049B8BB101980699099AC5E9F5
:1055C00012022965384629462246984707280BD0FB
:1055D000082805D10B98296A884203D0013ECEE7FE
:1055E00009280CD1FBF79DF86A4620464FF0FF31A1
:1055F00007F0ABF900982861204607F0DFF90CB0FE
:10560000BDE8F08770B5044610F8011BA5291DD12F
:10561000017A84F82810416800686162A17A2062EA
:1056200084F82910B4F80B00617B608584F82C1095
:10563000FCF7F4FA034641F6A010C2F2000021463E
:105640000E22A361BDE87040FEF7C6B90078A52818
:1056500001D101253BE0A078A52801D1022536E043
:10566000E078A52801D1032531E02079A52801D1D2
:1056700004252CE06079A52801D1052527E0A07933
:10568000A52801D1062522E0E079A52801D107252A
:105690001DE0207AA52801D1082518E0607AA52808
:1056A00001D1092513E0A07AA52801D10A250EE031
:1056B000E07AA52801D10B2509E0207BA52801D19E
:1056C0000C2504E0607BA52818BF70BD0D25C5F131
:1056D0000E06611920463246FAF7AFFE41F6A010D9
:1056E000A119C2F200002A46BDE87040FEF7C4B816
:1056F000014641F6A010C2F200000E22FEF76CB97E
:1057000010B50446FCF78AFAA169411A0020312934
:1057100088BF0120E07510BD2DE9F04780468079F3
:105720004FF0000A58B36FF01F070024D8F8145048
:10573000E819B0F92010404605F07EFB8146FCF7E1
:105740006DFA05EB49118969D8F81450401A0928F7
:1057500005EB0700B0F920104FF00006404688BF67
:10576000012605F069FB05EB4010C67598F80600A8
:1057700001344AEA060A844207F12007D6D30AF028
:105780000100BDE8F0870000F0B581B00446B0F933
:10579000040081423CD30A30814239D8A079B8B3A1
:1057A000204605F049FB0546013031D00A9E676965
:1057B000FCF734FA07EB451189699FED161A401A78
:1057C000092860694FF0000100EB451488BF0121F2
:1057D000E175308800EE100AB8EEC00A80EE010ACA
:1057E00084ED010A708802EE100AB8EEC22A82EE39
:1057F000011A84ED021A20EE010A94ED041A84EDD8
:10580000030A31EE000A84ED040AFCF707FAA061EE
:1058100001B0F0BD0000C8422DE9F047054640F256
:10582000A870DDF82080C0F6010008300F4628601F
:10583000284641469946924605F0B4FABAF1000F5F
:10584000C5F81490AF8009D0AAF1010003280AF02E
:10585000030C09D20020BCF1000F27D1284685F89F
:1058600006A0BDE8F08700BF0AF0FC004142A9F1A4
:10587000800208F101006FF0030300BFC618F4783E
:1058800004333C4422F8804F34793C4414847479C6
:105890003C44A2F84040B679CC183E440434A2F807
:1058A0006060EBD1181DBCF1000FD7D018F80010C4
:1058B00042013944BCF1010F29F80210CED0411C3D
:1058C00018F8012049013A44BCF1020F29F80120DF
:1058D000C4D0023018F800104001394429F80010F3
:1058E000284685F806A0BDE8F08706F082BB80B5A3
:1058F000AFF30080BDE8804006F003BC80B5AFF395
:105900000080BDE8804006F0FCBB03C844F64E4270
:10591000C0F24302000A82EA112240EA016042F624
:105920002B31C4F2437148401043B0FA80F0400973
:10593000704740F63431C2F20001884238BFFAF7AE
:1059400064BE01F50071884201D201F067BFFAF729
:105950005CBE10B582B00446002808BF012401A82F
:1059600008212246FAF778FE18B1204601F0BAFF66
:1059700000E0019802B010BD2DE9F04F8FB08A46CB
:105980001821984617460446FAF7D3FD03201AF06B
:105990000106207603D01AF00E0F03D10DE05FEA66
:1059A0008A7004D4032020760FB0BDE8F08F0AF08F
:1059B0000C000C2801D10220F5E7DDF86090484684
:1059C000FFF743FB00280D9000F04F810546E06093
:1059D00000200E900DF1380C484600210F220023C4
:1059E00006960897CDF82880CDF800C0FFF792FB07
:1059F0000E9820F001084846FFF733FB0746681C65
:105A00000D9029780DA8FD4300F0C0F90D9E0028E7
:105A100016F8011B08BF3846FF294FF00001079018
:105A20000D9604940CD0002216F8013B03F07F077A
:105A30008F403A431B0601F10701F5D4B1180D96CA
:105A40000B91711C0D9108EB05093578002000229F
:105A5000CDF824A011F8013B03F07F0787403A43BB
:105A60001B0600F10700F5D401EB020B0EAF0D9100
:105A70000E9100BF594524D23846294600F086F9D8
:105A800080463846294600F081F982463846294644
:105A900000F07CF90E990023002200BF11F8014BA1
:105AA00004F07F069E403243260603F10703F5D437
:105AB000C8450E9103D80AEB0803994505D3C145A3
:105AC000D8D208980A9900F053F9002800F0DB803A
:105AD0000799002A00EB010300F0C9800BEB0200DC
