:020000040800F2
:10000000085400202D020008992400081D21000832
:100010009524000849050008E12B000800000000B5
:100020000000000000000000000000004125000862
:10003000B906000800000000D1240008752500085A
:10004000470200084702000847020008470200086C
:10005000470200084702000847020008470200085C
:10006000470200084702000847020008470200084C
:100070009D05000847020008AD050008470200087A
:10008000470200084702000847020008470200082C
:100090004D0500085D0500084702000847020008FA
:1000A00047020008492600084702000847020008E6
:1000B00047020008470200084702000847020008FC
:1000C00047020008470200084702000847020008EC
:1000D00047020008B12B000847020008C12B0008A6
:1000E00047020008470200084702000847020008CC
:1000F00047020008470200084702000847020008BC
:1001000047020008470200084702000847020008AB
:100110004702000847020008470200085926000865
:1001200047020008BD050008CD0500084702000889
:10013000470200084702000847020008470200087B
:100140006D0500087D050008470200084702000809
:1001500047020008DD050008ED050008D12B000866
:10016000470200084702000847020008470200084B
:10017000470200084702000847020008000000008C
:10018000470200084702000800F002F800F03EF8BD
:100190000AA090E8000C82448344AAF10107DA45E2
:1001A00001D100F033F8AFF2090EBAE80F0013F0F6
:1001B000010F18BFFB1A43F001031847D84A00008B
:1001C000F84A0000103A24BF78C878C1FAD852071C
:1001D00024BF30C830C144BF04680C6070470000C1
:1001E0000023002400250026103A28BF78C1FBD840
:1001F000520728BF30C148BF0B6070471FB504F0DD
:10020000CDFC00F023F91FBD10B510BD00F062F960
:100210001146FFF7F3FF02F0CDFD00F080F903B4C3
:10022000FFF7F2FF03BC00F087F9000009488047A0
:1002300009480047FEE7FEE7FEE7FEE7FEE7FEE7C8
:10024000FEE7FEE7FEE7FEE704480549054A064BE0
:10025000704700003526000889010008084E00207C
:1002600008540020085000200850002053EA020CD7
:1002700000F069802DE9F04B4FF00006002B1FBF06
:10028000B3FA83F503FA05F424FA05F65E4012BFCB
:100290001643B2FA82F502FA05F4C5F120051EBF35
:1002A00022FA05FC44EA0C04203556EA044C4FEAD5
:1002B000144418BF641C4FF000084FF0000990422E
:1002C00071EB030C39D3002919BFB1FA81F701FA98
:1002D00007F6B0FA80F700FA07F6C7F120071EBF4D
:1002E00020FA07FC46EA0C062037B6FBF4FCA7EB25
:1002F0000507103F07F01F0BCBF120062CFA06F67E
:100300000CFA0BFB44BFB3460026202FA4BF5E4669
:100310004FF0000B5BEA060C08BF4FF0010B19EB26
:100320000B0948EB0608ABFB027C06FB02CC0BFB7F
:1003300003CCC01B71EB0C01C1E70B4602464146E2
:100340004846BDE8F08B13B5084318BF4FF0FF30A7
:100350000146AFF30080BDE81C407047032A40F21D
:10036000308010F0030C00F0158011F8013BBCF157
:10037000020F624498BF11F801CB00F8013B38BF6F
:1003800011F8013BA2F1040298BF00F801CB38BF7D
:1003900000F8013B11F0030300F06A80083AC0F056
:1003A000088051F8043B083A51F804CBA0E8081043
:1003B000F5E7121D5CBF51F8043B40F8043BAFF376
:1003C0000080D20724BF11F8013B11F801CB48BFD0
:1003D00011F8012B24BF00F8013B00F801CB48BF06
:1003E00000F8012B704702F0FF0343EA032242EAC0
:1003F000024200F002B84FF0000200B513469446E6
:100400009646203922BFA0E80C50A0E80C50B1F16C
:100410002001BFF4F7AF090728BFA0E80C5048BF80
:100420000CC05DF804EB890028BF40F8042B08BF1E
:10043000704748BF20F8022B11F0804F18BF00F81A
:10044000012B7047704770477047000070B5064C2D
:100450007C44064D7D4404E0204601680844804702
:10046000241DAC42F8D170BD60480000684800000F
:1004700010B5203AC0F00B80B1E81850A0E8185031
:10048000B1E81850A0E81850203ABFF4F5AF5FEA81
:10049000027C24BFB1E81850A0E8185044BF18C926
:1004A00018C0BDE810405FEA827C24BF51F8043BCD
:1004B00040F8043B08BF7047D20728BF31F8023B21
:1004C00048BF11F8012B28BF20F8023B48BF00F8B5
:1004D000012B7047754600F02BF8AE4605006946C3
:1004E000534620F00700854618B020B5FFF7ACFE54
:1004F000BDE820404FF000064FF000074FF0000825
:100500004FF0000BAC46ACE8C009ACE8C009ACE861
:10051000C009ACE8C00921F007018D46704710B54D
:100520000446AFF300802046BDE81040FFF777BED9
:10053000004870471000002001491820ABBEFEE7BC
:100540002600020070470000FEE7000080B540F280
:10055000BC00C2F2000000F0B7F880BD80B540F2E8
:10056000BC00C2F2000000F0AFF880BD80B540F2E0
:10057000E400C2F2000000F0A7F880BD80B540F2B0
:10058000E400C2F2000000F09FF880BD012002F0FC
:1005900031FCFBE7012002F02DFCFBE780B540F2C7
:1005A000CC10C2F2000000F031FB80BD80B540F2FB
:1005B0002C20C2F2000000F029FB80BD80B540F283
:1005C0008C20C2F2000000F021FB80BD80B540F21B
:1005D0000C10C2F2000000F019FB80BD80B540F2A3
:1005E000EC20C2F2000000F011FB80BD80B540F2AB
:1005F0006C10C2F2000000F009FB80BDD0F800C012
:100600006FF00F024AF6AB2352FA8CF2CAF6AA2315
:100610000146A2FB0330000905A31B5C40F2FF303A
:100620002CEA00005F2A88BF0430C1E91603704736
:1006300000061016000610168269816AB2F5005F86
:1006400006D06AB9022912D0012914D0D1B90EE01E
:10065000032917D8DFE801F0020B020F01207047D1
:1006600003293CBF012070471CBF00207047C06AAF
:10067000C0F300607047C06AA0F1C070B0FA80F0AB
:10068000400970470020704780B5D0F800C0D0F80E
:1006900008E0DCF80000BEF1400F20F48020CCF828
:1006A00000000846CCF8043004BF10460A46CCF8D7
:1006B0000800CCF80C2080BD7047000072B600BF67
:1006C000FEE70000704700002DE9F04F81B00446BE
:1006D00000684669D0F804908768D0F80CB0D0F86C
:1006E00010A0D0F81880F10703D1002530071CD4E2
:1006F00023E0F90710D00121BA07816009D47807F7
:1007000000F1AA80380700F1B080204600F01EFA00
:1007100002E0204600F01CFA0025F80500F1848074
:10072000F80300F1AA80300707D51BF0100004D0B1
:10073000206845F400751021C160700708D51BF0D2
:10074000080005D020680821C160204600F0F4F9B7
:10075000B00706D52068C068800702D0204600F0A8
:10076000EDF9700607D51AF0100004D0206845F4A2
:10077000806510210161B00608D51AF0080005D087
:10078000206808210161204600F0DAF9F00606D55C
:1007900020680069800702D0204600F0D3F9B0033A
:1007A00008D519F0100005D02068102141602046BE
:1007B00000F0CAF9F00308D519F0080005D0206848
:1007C00008214160204600F0CDF9300440F18F80CF
:1007D0005FEA497040F1888006F4807008EA1020D2
:1007E00028435FEA8871014648BF41F00201B20523
:1007F00058BF01465FEA48700D4648BF45F0040502
:10080000700558BF0D4630056ED518F070006BD0DE
:1008100010380009052862D8DFE800F00353565964
:100820005C5F45F008055AE020684FF48071BA0516
:1008300081600AD4780512D4380519D4204600F016
:1008400089F9F8037FF56FAF17E0204600F084F9CF
:10085000F8037FF568AF10E04FF400655DE705F53C
:100860000055F8037FF55FAF07E04FF4805554E77C
:1008700005F58045F8037FF556AF20684FF48031C9
:10088000BA0381600AD478030FD4380313D4204606
:1008900000F064F930073FF548AF4EE7204600F01E
:1008A0005FF930073FF541AF47E705F500453007F1
:1008B0003FF53BAF41E705F5803530073FF535AFF4
:1008C0003BE745F010050AE045F0200507E045F05C
:1008D000400504E045F0800501E045F4807520689E
:1008E000816921F0700181612068042141602DB18E
:1008F000606A284360622046FFF7E4FE01B0BDE86D
:10090000F08F0000B0B5C8B1044690F8200010B9CF
:10091000204600F077F82068016841F0010101608D
:1009200000F0A8FB054600BF20684168C90707D151
:1009300000F0A0FB401B0B28F6D312E00120B0BD55
:10094000016821F00201016000F094FB054600BF40
:100950002068416889070DD500F08CFB401B0B28EF
:10096000F6D3606A052140F400306062012084F80B
:100970002010B0BD217E0268012922F0800308BF4B
:1009800042F080030360617E0268012922F0400387
:1009900008BF42F040030360A17E0268012922F0F3
:1009A000200308BF42F020030360E17E02680129B2
:1009B00042F0100308BF22F010030360217F026899
:1009C000012922F0080308BF42F008030360617F99
:1009D0000268012922F0040308BF42F00403036007
:1009E000D4E901C2D4E9033561691A432A431143AA
:1009F000ACF101021143C16100200121606284F861
:100A00002010B0BDB0B586B00021CDE90411CDE90C
:100A10000211006846F60002C4F200029042019101
:100A200036D046F20041C4F20001884240F0828094
:100A300040F27001C2F200010A6843F64000C4F2BD
:100A40000200531C0B6052B900210091016841F073
:100A500000710160016801F00071009100990021AE
:100A6000009150F8101C152441F0080140F8101CAA
:100A700050F8100C142500F0080000900098032096
:100A8000019040F20040C4F2020000F5006036E040
:100A900043F64000C4F202000091016841F0806119
:100AA0000160016801F080610091009940F27001DD
:100AB000C2F200010A68531C0B6052B90021009178
:100AC000016841F000710160016801F0007100915E
:100AD00000990021009150F8101C412441F00201BE
:100AE00040F8101C50F8100C402500F00200009057
:100AF00000986020019040F20040C4F20200022100
:100B0000029100210391032104910921059101A97A
:100B100000F0DCF928460521002200F055FB2846AC
:100B200000F04EFB20460521002200F04DFB204640
:100B300000F046FB06B0B0BD7047000070470000F3
:100B400070470000704700007047000070470000C9
:100B500070470000704700007047000070470000B9
:100B6000704700007047000070B5866D044600F0C5
:100B700081FA94F83510022925D105462068216CA8
:100B8000026822F016020260426922F0800242618D
:100B900009B9A16C19B1016821F00801016001686F
:100BA00021F00101016000BF20680068C0070ED07D
:100BB00000F060FA401B0628F6D320206065032071
:100BC00084F835000CE080206065012008E0E06DCD
:100BD0003F2101FA00F0B060012084F835000020C8
:100BE000002184F8341070BD90F83510022909D125
:100BF000052180F835100068016821F001010160CD
:100C0000002070478021416501207047F0B581B018
:100C100004460020009040F20000C2F2000002688A
:100C2000D4E9166048F2B51337680821C1F64E338F
:100C300081403942A2FB03250CD0226813685B0770
:100C400008D5136823F004031360B160616D41F0AF
:100C50000101616501218140394208D02268526951
:100C6000120604D5B160616D41F002016165042195
:100C70008140394208D022681268920704D5B160D9
:100C8000616D41F00401616510218140394215D048
:100C900020680268120711D5B1600268016852032A
:100CA00006D4C90506D4016821F00801016001E0FD
:100CB000080342D4216C09B120468847E16D202009
:100CC00000FA01F23A4244D020680368DB0640D5BE
:100CD000B26094F835300268052B1ED122F016025E
:100CE0000260426922F080024261226C0AB9A26C61
:100CF0001AB1026822F0080202603F208840B0600A
:100D0000012084F83500216D0020002984F834008A
:100D100040D02046884701B0F0BD0168520310D48E
:100D2000C90512D4016821F010010160012084F886
:100D30003500002084F8340007E0A16C0029BBD105
:100D4000BCE7080301D4616C00E0E16B09B1204607
:100D50008847606DF0B1606DC00717D0052084F83A
:100D600035002068A90A026822F00102026000BF73
:100D7000009A01328A42009202D80268D207F7D163
:100D8000012084F83500002084F83400E16C09B1BA
:100D90002046884701B0F0BD2DE9F041044600F03F
:100DA00069F9C4B10546022084F8350000202168A5
:100DB00084F83400086820F0010008602668306874
:100DC000C0070BD000F056F9401B0528F6D90321C7
:100DD0002022032042E00120BDE8F081306848F283
:100DE0003F01CFF21001251D00EA010C2ECDD4E900
:100DF000050E41EA0C01114319432943D4E9077850
:100E0000084340EA0E01606A3943042841EA0801B8
:100E100003D1D4E90B2311431943316071690428CC
:100E200021F0070141EA00050CD1D4E90A1045EA96
:100E3000010538B12046FFF7FFFB18B10121402220
:100E400001200BE020467561FFF7D8FBE16D3F22E2
:100E500002FA01F18160002201210020626584F81C
:100E60003510BDE8F0810000B0B5044690F83400BC
:100E7000012828D0012084F83400A56D94F83500AD
:100E800001281DD1022084F835000020606520462D
:100E9000FFF7FAFBE26D3F23206803FA02F2216CB0
:100EA000AA60026842F01602026019B1016841F0BE
:100EB00008010160016841F0010101600020B0BD3E
:100EC000002084F834000220B0BD00002DE9F04F6E
:100ED00083B000F13E4202F1FF724FEAB22241F6C6
:100EE00000470192C4F2020708224FF0010E0025CC
:100EF0004FF0000A4FF00008B84208BF07220092E6
:100F00000AE000BF08F101080AF1040AB8F1100F65
:100F100005F1020500F0A4800C680EFA08FB14EA43
:100F20000B09EFD04C6804F0030CACF1010EBEF1DC
:100F3000010F11D80322876802FA05F6CA68B74381
:100F4000AA403A4382604268C4F3001722EA0B02C7
:100F500007FA08F73A434260BCF1030F1CD0C2689D
:100F600003238E6803FA05F7BA4306FA05F73A43F6
:100F7000BCF1020FC2600FD16FF0030202EA580207
:100F800002440AF01C060F23176A03FA06F40B69E1
:100F9000A743B3403B431362026803234F68AB404F
:100FA0009A4307F00303AB401A4317F4403F4FF056
:100FB000010E0260A6D0002243F644030292C4F25E
:100FC00002031A6843F6004442F480421A601A6829
:100FD000C4F2010402F480420292029A28F0030251
:100FE0004FF6084B2244CFF6FF7B52F80B300AF045
:100FF0000C070F26BE4023EA060C019B009E072B20
:1010000038BF1E4606FA07F747EA0C0342F80B30D2
:10101000A2684B6842EA090743F60C4CDE0258BF4F
:1010200022EA0907A760C4F2010CDCF800209E0246
:1010300042EA090758BF22EA0907CCF80070626843
:101040009E0342EA090758BF22EA0907676022683F
:10105000DB0342EA090358BF22EA0903236051E790
:1010600003B0BDE8F08F0000002A08BF09048161C9
:101070007047000044F22C60C2F200000068704724
:1010800040F2040044F22C61C2F20000C2F20001FE
:1010900000780A68104408607047000080B543F685
:1010A0000040C4F20200016841F40071016001686F
:1010B00041F480610160016841F4807101600320A6
:1010C00000F092F80F2000F005F800F055F800202D
:1010D00080BD0000B0B586B0002543F644010195FF
:1010E000C4F202010A68044642F001020A6009687B
:1010F00001A801F0010101910199694600F028F968
:1011000000F05EF94DF683614000C4F21B31A0FB94
:1011100001014FF0FF3000EB914140F24C300022D2
:10112000C2F20000C4F2010240F2E733C0E900213C
:10113000C0E902530561856100F08AFB0546C0B92C
:1011400040F24C30C2F2000000F0D4FB054680B9FA
:10115000192000F035F80F2C0AD81920214600225A
:1011600000F032F840F20800C2F20000046000E033
:101170000125284606B0B0BD80B582B0002043F6F8
:1011800040010190C4F202014A6842F480424A6080
:101190004A6802F480420192019A00900868002295
:1011A00040F08050086008680F2100F080500090E7
:1011B00000986FF0010000F007F802B080BD000059
:1011C00080B501F09DFD80BD70B514460D46064604
:1011D00001F0A6FD2946224601F060F9014630469D
:1011E00001F0A6FD70BD000080B501F0BBFD80BD23
:1011F0002DE9F041002800F08B8043F60808C4F286
:1012000002080446D8F8F8030D4600F007008842AB
:1012100007D288F8F853D8F8F80300F00700A8427E
:1012200076D12068810717D5410705D5D8F8001079
:1012300041F4E051C8F80010010705D5D8F80010B6
:1012400041F46041C8F80010D8F80010A26821F0FD
:10125000F0011143C8F80010C0073FD1D8F8F803D7
:1012600000F00700A84207D988F8F853D8F8F80327
:1012700000F00700A8424BD12068410707D5D8F8F5
:101280000010E26821F4E0511143C8F80010000793
:1012900008D5D8F80000216920F4604040EAC10078
:1012A000C8F8000000F09EF8D8F8001044F6B632F6
:1012B000C1F30311C0F60002515C40F2000220FAB3
:1012C00001F140F20800C2F200000068C2F2000220
:1012D0001160FFF7FFFE0020BDE8F0816068811E0D
:1012E000022907D258F8081C89015CBF0120BDE81B
:1012F000F08110E0012807D158F8081C89035CBF71
:101300000120BDE8F08106E058F8081C890702D4E6
:101310000120BDE8F081D8F8001021F00301084356
:10132000C8F80000FFF7A6FE064641F2883700BF66
:10133000D8F80000616800F00C00B0EB810F8DD090
:10134000FFF798FE801BB842F2D90320BDE8F08178
:101350000F22026043F60802C4F20202136803F08F
:1013600003034360136803F0F0038360136803F41E
:10137000E053C360D2F800C04FF4E05303EADC034B
:101380000361D2F8F80300F007000860704700001E
:1013900040F20000C2F200000068704780B5FFF71D
:1013A000F7FF43F60801C4F20201096844F6C632A9
:1013B000C1F38221C0F60002515CC84080BD00002C
:1013C00080B5FFF7E5FF43F60801C4F202010968A2
:1013D00044F6C632C1F34231C0F60002515CC84047
:1013E00080BD000010B543F60404C4F20204606836
:1013F00000F00C0008280AD0042819BF42F200406F
:10140000C0F2F40041F60030C0F2B70010BD206811
:1014100021682368490241F60031C0F2B70100F0AB
:101420003F02C3F388105CBF42F20041C0F2F401F6
:10143000A1FB00010023FEF719FF21680222C1F37E
:10144000014102EB4101B0FBF1F010BD2DE9F0418B
:1014500082B0002800F09F800446007843F6000622
:10146000C007C4F2020641D0B06800F00C000428A6
:1014700005D13068800339D56068B8BB8BE0B068AF
:1014800000F00C00082802D170684002F1D46568B1
:10149000B5F5803F06D03068B5F5A02F06D140F4F1
:1014A00080203060306840F4803005E020F48030E7
:1014B0003060306820F480203060FFF7DBFD002DC5
:1014C000054610D03068800310D4FFF7D3FD401BD1
:1014D0006428F7D922E100BFFFF7CCFD401B642848
:1014E0004FF0030054D830688003F5D4207880078B
:1014F0001AD5B06810F00C0F09D0B06800F00C00DD
:10150000082840F08C807068400200F188803068C4
:10151000800702D5E06801283DD13068216920F0BC
:10152000F80040EAC10030602078000737D4207806
:1015300040074AD4A56955B3B06800F00C000828EC
:1015400040F0A080012D26D07068E16900F480028F
:101550008A4220D1216A00F03F028A421BD147F61D
:10156000C071626A0140B1EB821F14D1A16A4FF6CB
:10157000FF73C903994300F44032A1F580318A42D8
:1015800009D1E16A00F07060B0EB016F03D1002077
:1015900002B0BDE8F081012002B0BDE8F0816069D1
:1015A000002840F20000C4F247205AD00121C0F8C0
:1015B000801EFFF75FFD0546706F8007B7D4FFF709
:1015C00059FD401B0228F7D9A8E0306C4FF0000805
:1015D000C0000CD4CDF80480306C4FF0010840F00E
:1015E00080503064306C00F080500190019847F2D8
:1015F0000007C4F200073868C00525D4386840F4F5
:1016000080703860FFF736FD054600BF3868C005BA
:101610001AD4FFF72FFD401B0228F7D97EE0E068BF
:10162000002851D00020C4F2472001210160FFF7BB
:1016300021FD0546306880073FF56FAFFFF71AFDC3
:10164000401B0228F6D969E0A568012D05D0306F4E
:10165000052D4DD140F004003067306F40F001009F
:101660004CE00021C0F8801EFFF704FD054600BFD6
:10167000706F80077FF55BAFFFF7FCFC401B022813
:10168000F6D94BE00027C4F2472700203866FFF761
:10169000F1FC022D05460BD13068800156D5FFF7CD
:1016A000E9FC401B02284FF00300F5D970E700BFAA
:1016B000306880017FF56BAFFFF7DCFC401B022830
:1016C0004FF00300F4D963E70020C4F24720002163
:1016D0000160FFF7CFFC0546306880077FF524AF37
:1016E000FFF7C8FC401B02284FF00300F4D94FE776
:1016F00020F001003067306F20F004003067FFF702
:10170000B9FC002D054641F2883713D0306F8007B1
:1017100013D4FFF7AFFC401BB842F7D9032002B047
:10172000BDE8F081FFF7A6FC401BB8424FF0030074
:101730003FF62EAF306F8007F4D4B8F1000F3FF4BE
:10174000F9AE306C20F080503064F3E604F11C05F3
:101750002FCD084340EA8210D9034FF6FF72914320
:10176000A1F5803140EA05600843706001203866C9
:10177000FFF780FC044600BF306880013FF507AFEB
:10178000FFF778FC001B02284FF00300F4D9FFE6B6
:10179000704700007047000010B590F83C20012A07
:1017A0004FF0020252D0012380F83C3080F83D20F7
:1017B0000268D2F804E0D2F808C00C682EF070037A
:1017C000234341F2FF74C4F20004A24253600DDCD3
:1017D00040F2FF73C4F200039A4215DCB2F1804F6D
:1017E00029D040F20043C4F2000322E040F2FF336C
:1017F000C4F201039A4212DC41F60003C4F2000372
:101800009A4218D0002312E040F60003C4F200030D
:101810009A4210D040F60043C4F2000309E044F2BB
:101820000003C4F201039A4205D040F20043C4F21F
:1018300001039A4204D149682CF080031943916056
:101840000121002280F83D1080F83C20104610BD98
:10185000002804BF0120704710B5044690F83D00F1
:1018600028B9002084F83C00204600F01FF8022030
:1018700084F83D002068211D00F0F6FE012084F868
:10188000460084F83E0084F83F0084F8400084F865
:10189000410084F8420084F8430084F8440084F84E
:1018A000450084F83D00002010BD000080B582B0E6
:1018B000006841F20041C4F20001884201D002B048
:1018C00080BD0020019043F64000C4F20200016890
:1018D000002241F0200101600068052100F0200095
:1018E000019001983720FFF76FFC3720FFF768FC65
:1018F00002B080BD90F83D1001291CBF0120704747
:10190000022180F83D10006841F2FF72C168C4F204
:101910000002904241F00101C1600DDC40F2FF7114
:10192000C4F20001884215DCB0F1804F29D040F2AA
:101930000041C4F2000122E040F2FF31C4F2010193
:10194000884212DC41F60001C4F20001884218D03E
:10195000002112E040F60001C4F20001884210D0DC
:1019600040F60041C4F2000109E044F20001C4F273
:101970000101884205D040F20041C4F201018842D1
:1019800006D1816801F00701062904BF00207047D5
:10199000016841F0010101600020704770470000BC
:1019A000B0B504460068C168026902EA0105A907EA
:1019B0001DD4680731D4280747D4E8065CD4E8076B
:1019C00073D128067BD4680606D520686FF04001E5
:1019D0000161204600F08CF8A80658BFB0BD206811
:1019E0006FF0200101612046FFF7D4FEB0BD6FF01B
:1019F00002010161012121778069800703D020461F
:101A0000FFF7CCFF05E0204600F064F8204600F028
:101A100063F8002020776807CDD520686FF00401B7
:101A2000016102212177806910F4407F03D02046B4
:101A3000FFF7B4FF05E0204600F04CF8204600F028
:101A40004BF8002020772807B7D520686FF00801F1
:101A5000016104212177C069800703D02046FFF788
:101A60009DFF05E0204600F035F8204600F034F8F0
:101A700000202077E806A2D520686FF010010161F0
:101A800008212177C06910F4407F03D02046FFF77A
:101A900085FF05E0204600F01DF8204600F01CF808
:101AA00000202077E8073FF48CAF20686FF0010139
:101AB0000161204600F012F828067FF584AF206807
:101AC0006FF0800101612046FFF762FE68067FF536
:101AD00083AF7AE7704700007047000080B5006868
:101AE0000021C4F20101884208BFFFF7C9FA80BD96
:101AF0007047000070B582B0044690F8420020287C
:101B000022D100294FF0010518BF002A1DD0012560
:101B1000002620462563666300F0D4FF206B012871
:101B200013D10196206801680191406801900198E5
:101B3000206850E8030F216840F0100041E80302DC
:101B4000002AF5D1002500E00225284602B070BD2C
:101B500080B501F061F880BD7047000070B582B0BB
:101B6000036804461868D9685D6900F02F02202ACE
:101B700001F0200205D122B1204600F0D1FE02B0D2
:101B800070BD5FEA007C08D005F0010E11F4907F73
:101B90008EF001054FD1002D4DD0226B0840C106BB
:101BA0003FD5012A3DD10020019018680190586866
:101BB000019001985869400600F19C80A08DE18D4C
:101BC000E28D002A1CBF401A5FEA004102D102B038
:101BD00070BD00BF216851E8031F226821F4907195
:101BE00042E80313002BF5D1216851E8051F226854
:101BF00021F0010142E80513002BF5D1202184F8E2
:101C000042100021216300BF216851E8031F2268B0
:101C100021F0100142E80313002BF5D1022161638A
:101C2000AEE0010600F1B2804006D0D5204600F0BB
:101C30005DFE02B070BDC30718BF11F4807303D0FE
:101C4000636C43F00103636400F00406012383EA3C
:101C500096062E4303D1666C46F00206666400F0D9
:101C6000020683EA56032B4303D1636C43F004035B
:101C7000636452EA0E0218BF0122BCF1000F04D5C2
:101C80001AB1626C42F008026264626C002A9ED053
:101C90000840800602D5204600F042FE20684069D8
:101CA000616C00F0400001F00801401878D0204637
:101CB00000F0F4FD2068406940066CD5206850E8CB
:101CC000050F216820F0400041E80502002AF5D107
:101CD000E06B00285FD042F29D71C0F60001016503
:101CE000FEF782FF00283FF472AFE06B016D88477A
:101CF00002B070BDE06B016849688AB2002A3FF407
:101D000066AFA38D9A42BFF462AFE185C069B0F5BA
:101D1000807F30D0206850E8030F216820F4807065
:101D200041E80302002AF5D1206850E8050F216838
:101D300020F0010041E80502002AF5D1206850E8B2
:101D4000050F216820F0400041E80502002AF5D186
:101D5000202084F842000020206300BF206850E863
:101D6000030F216820F0100041E80302002AF5D19A
:101D7000E06BFEF7F9FE02206063A08DE18D401A52
:101D800081B22046FFF7E4FE02B070BD204600F0AD
:101D9000E5FE02B070BD2046FFF7DEFE02B070BD6A
:101DA0002046FFF7D9FE0020606402B070BD00003D
:101DB000002804BF0120704710B5044690F8410088
:101DC00028B9002084F84000204600F021F82420A3
:101DD00084F841002068C16821F40051C1602046A8
:101DE00000F002FE2068016921F49041016141691F
:101DF00021F02A014161C16841F40051C160002015
:101E00002021606484F8411084F84210606310BDA2
:101E10002DE9F04F87B00026CDE90566CDE90366D0
:101E20000446006844F60001C4F2000188420296AC
:101E300000F0918041F20041C4F20101884200F0BB
:101E4000F28041F20001C4F20101884240F05D815C
:101E5000002743F630000197C4F2020041690025D3
:101E600041F0100141614169C4F2020501F0100125
:101E7000019101990197016802AE41F002010160F0
:101E8000016846F2280801F00201019101990197C9
:101E900001684FF0020941F00101016000684FF054
:101EA000030A00F0010001900198802002904FF099
:101EB000070B05F580603146C4F20208CDE90397AF
:101EC000CDF814A0CDF818B0FFF700F84FF400706B
:101ED000CDE9020904A880E8800C28463146FEF7C7
:101EE000F5FF40F26C1508F59260C2F200054FF064
:101EF00000664021C5E9000605F108004FF480693D
:101F000080E882022846C5E90577C5E907776F6250
:101F1000FEF742FF002818BFFEF7D0FBA563AC63B5
:101F200040F20C1508F58360C2F2000585E8C10097
:101F30002846C5E90379C5E90577C5E907776F62E2
:101F4000FEF72AFF002818BFFEF7B8FBE56305F18E
:101F500038002525D0E043F630000196C4F2020097
:101F6000016946F2280841F4802101610169C4F247
:101F7000020801F48021019101990196016841F064
:101F800004010160006802A900F0040001900198BA
:101F90004FF4406002900220CDE903060320059033
:101FA000072006900020C4F2020000F50060FEF752
:101FB0008DFF40F2CC15C2F200054FF000674FF4E0
:101FC00080692846C5E90087C5E90266C5E9049627
:101FD000C5E90666C5E90866FEF7DEFE002818BFFB
:101FE000FEF76CFBE563AC6340F22C2508F1300092
:101FF000C2F200054021C5E9000705F108000022F2
:1020000080E806022846C5E90522C5E907226A627A
:10201000FEF7C2FE002818BFFEF750FBA56305F1CE
:102020003800272568E0002643F630000196C4F208
:102030000200416946F2280841F0200141614169EE
:10204000C4F2020801F02001019101990196016892
:1020500041F040010160006802A900F040000190D9
:1020600001984FF4844002900220CDE9030603203A
:102070000590082006900020C4F2020000F5C05030
:10208000FEF724FF40F2EC2508F58F60C2F2000550
:102090004FF020674021C5E9000705F108004FF423
:1020A000806980E842022846C5E90566C5E90766F9
:1020B0006E62FEF771FE002818BFFEF7FFFAA563F7
:1020C000AC6340F28C2508F58060C2F20005C5E9DA
:1020D00000072846C5E90266C5E90496C5E9066613
:1020E000C5E90866FEF758FE002818BFFEF7E6FAB5
:1020F000E56305F1380047250460284605210022E4
:10210000FFF762F82846FFF75BF807B0BDE8F08FED
:10211000704700007047000070470000FEE70000B5
:1021200080B500F06BFD40F29430C2F20000FFF782
:10213000E1FB80BD80B540F2BC0046F20041C2F236
:102140000000C4F200010622002380E80E0000F126
:102150000C014FF4403C4FF4801E81E8085083612D
:102160008383FEF7CFFB002818BFFEF7A7FA80BDD8
:1021700080B540F2E40046F60001C2F20000C4F26D
:1021800000010622002380E80E0000F10C014FF44C
:10219000403C4FF4801E81E8085083618383FEF742
:1021A000B1FB002818BFFEF789FA80BD80B582B068
:1021B000002043F630010190C4F202010A6842F4A3
:1021C00080020A600A6802F480020192019A00907B
:1021D0000868002240F4001008600868052100F437
:1021E0000010009000980C20FEF7EEFF0C20FEF788
:1021F000E7FF0E2005210022FEF7E6FF0E20FEF786
:10220000DFFF392005210022FEF7DEFF3920FEF72F
:10221000D7FF3A2005210022FEF7D6FF3A20FEF72D
:10222000CFFF452005210022FEF7CEFF4520FEF717
:10223000C7FF462005210022FEF7C6FF4620FEF715
:10224000BFFF02B080BD000080B542F26D5044F681
:102250001842C0F60000C0F60002002100F008FE9F
:1022600040F2B801C2F20001086040F28D5044F61D
:10227000D032C0F60000C0F60002002100F0F8FDE8
:1022800040F2B001C2F20001086040F2955044F6FD
:10229000F432C0F60000C0F60002002100F0E8FDB4
:1022A00040F2B401C2F20001086042F2355044F637
:1022B0003C42C0F60000C0F60002002100F0D8FD4C
:1022C00040F62021C2F20001086080BD70B586B0E2
:1022D000002543F630000595CDE90355CDE90155BC
:1022E0000095C4F20200016841F6004441F0020189
:1022F00001600168C4F2020401F00201009100993A
:1023000000950168002241F04001016001684FF42E
:10231000806601F04001009100990095016841F04C
:1023200001010160016801F001010091009900952F
:10233000016841F008010160016801F008010091A5
:1023400000990095016841F004010160016801F005
:102350000401009100990095016841F0800101603D
:1023600000684FF4806100F08000009000982046E3
:10237000FEF77AFE01200196CDE9020501A920466B
:102380000495FEF7A3FD06B070BD000010B582B045
:1023900040F2943041F20041C2F20000C4F2000168
:1023A0000024532240F2E73380E816008021CDE973
:1023B0000044C3608161FFF74BFA002818BFFEF7A5
:1023C0007DF940F29430C2F200006946CDE9004444
:1023D000FFF7E2F9002818BFFEF770F902B010BD50
:1023E00080B540F2DC3041F20001C2F20000C4F2DC
:1023F000010100234FF00C0C4FF4E13280E80E0095
:10240000C0E90333C0E905C3C361FFF7D1FC00286D
:1024100018BFFEF753F980BD10B540F2244044F6D2
:10242000000C48F2A062C2F20000C4F2000CC0F23C
:1024300001024FF4805300214FF4806E0C24C0E958
:1024400000C2C0E90231C0E904E4C0E90611FFF7A7
:10245000AFFC002818BFFEF731F910BD80B540F27F
:102460006C4041F20041C2F20000C4F201010023BD
:102470004FF00C0C4FF4E13280E80E00C0E903335A
:10248000C0E905C3C361FFF793FC002818BFFEF73E
:1024900015F980BDFEE70000FEE7000000F0070030
:1024A00080F00703042B28BF04234FF0FF3C0338C0
:1024B0000CFA03F338BF0020994381400CFA00F076
:1024C00022EA0000084370470000000000000000FE
:1024D000EFF30980BFF36F8F154B1A681EF0100FD2
:1024E00008BF20ED108A20E9F04F10602DE90900A7
:1024F0004FF0500080F31188BFF34F8FBFF36F8F01
:1025000001F0CCFC4FF0000080F31188BDE8090019
:1025100019680868B0E8F04F1EF0100F08BFB0EC63
:10252000108A80F30988BFF36F8F704700BF00BF28
:10253000A8050020012000F05DFCFBE70000000082
:10254000074B19680868B0E8F04F80F30988BFF3BB
:102550006F8F4FF0000080F31188704700BF00BFFD
:10256000A805002080B500F0F5FB80BD012000F03B
:1025700041FCFBE780B54EF21000CEF2000000688F
:1025800002F0B8F8012818BF01F062FD80BD00001C
:1025900070B592B006AC20463021FDF72CFF002527
:1025A00043F640000595CDE90355CDE90155009569
:1025B000C4F202000168022641F080510160006807
:1025C00000F080500090009847F200000095C4F29F
:1025D0000000016841F480410160006800F480401F
:1025E00000900098012006904FF4803007904FF43F
:1025F00080000D9006200E90A8200C96CDE90F06C5
:10260000042011902046FEF721FF88B90F20CDE964
:1026100001064FF4A05004904FF48050059001A89B
:1026200005210395FEF7E4FD002804BF12B070BD3C
:10263000FEF744F84EF68850CEF20000016841F4EF
:10264000700101607047000080B540F24C30C2F26A
:102650000000FFF7A5F980BD80B540F29430C2F2CA
:102660000000FFF79DF980BD10B540F6FF3E0368FE
:10267000C4F2000E40F2004C7045C4F2010C0FDCB5
:10268000B0F1804F19D040F20042C4F200029042F3
:1026900013D040F60002C4F2000290420DD010E0C8
:1026A00040F60042C4F20002904206D0604504D0D9
:1026B0000022C4F20102904203D14A6823F0700361
:1026C000134341F6FF72C4F2000290420DDC7045E4
:1026D0001FDCB0F1804F41D040F20042C4F2000252
:1026E00090423BD040F6000221E043F6FF72C4F274
:1026F0000102904220DC42F20002C4F20002904249
:102700002CD00022C4F20102904227D0604525D08F
:1027100028E040F60042C4F2000290421ED041F68A
:102720000002C4F20002904218D041F60042C4F206
:102730000002904212D015E044F20002C4F20102FD
:1027400090420BD044F60002C4F20102904205D040
:1027500044F20042C4F20102904203D1CA6823F459
:102760004073134323F080024B69D1F800E08C687A
:102770001A430260C46240F48062C0F828E06245F7
:1027800004BF09690163012141610169C90708BFEB
:1027900010BD016921F00101016110BD80B5806BA0
:1027A0000021C185C184FFF7D7F980BD10B5846BC6
:1027B0002068406994F84110212907D110F0800069
:1027C00004D00020E084204600F09CF82068406996
:1027D00094F84210222907D110F0400004D00020C4
:1027E000E085204600F05AF8606C40F0100060640C
:1027F0002046FFF7B1F910BD80B50168806B09680C
:10280000C9052FD40021C185016851E8031F026862
:1028100021F4807142E80313002BF5D1016851E8DF
:10282000051F026821F0010142E80513002BF5D1D4
:10283000016851E8051F026821F0400142E80513D4
:10284000002BF5D1202180F84210016B012909D11C
:10285000016851E8031F026821F0100142E80313E8
:10286000002BF5D100214163016B012903D1818D3A
:10287000FFF76EF980BDFFF74BFC80BD80B5806B24
:1028800001214163016B012904D1818D4908FFF7C2
:102890005FF980BDFFF73EFC80BD0000016851E894
:1028A000031F026821F4907142E80313002BF5D155
:1028B000016851E8051F026821F0010142E8051393
:1028C000002BF5D1016B01290AD100BF016851E845
:1028D000031F026821F0100142E80313002BF5D119
:1028E000202180F8421000210163704780B5016803
:1028F000CA6822F04002CA60202180F84110FFF728
:102900000BFC80BD016851E8031F026821F0C00183
:1029100042E80313002BF5D1202180F841107047C5
:1029200080B582B090F8421022291ED18268B2F59B
:10293000805F02D1016900294AD0816AB2F5805FC7
:1029400007D00AB9026922B10268526802F07F0218
:1029500001E0026852680A700121826A11448162B2
:10296000C18D01390A04C18501D002B080BD016862
:10297000CA6822F02002CA60CA6822F48072CA6063
:102980004A6922F001024A61202180F842100021A8
:102990004163026B012A23D1016300BF016851E842
:1029A000031F026821F0100142E80313002BF5D148
:1029B00001680A68D20606D5002201920A680192CF
:1029C000496801910199818DFFF7C2F802B080BD7D
:1029D0000168826A49686FF35F2111800221BCE7B8
:1029E000FFF796FB02B080BD10B504460068D4E93D
:1029F00002C22369016921F44051114301616269F6
:102A000043EA0C01E3691143C268194349F20C63BC
:102A10009A431143C1604169A26921F4407141F2B6
:102A20000043114340F48062C4F201039A424161C1
:102A300002D1FEF7C5FC01E0FEF7B0FCE169636876
:102A40001922B1F5004FA0FB02011CD15A00DB0F87
:102A5000FDF70CFC48F21F51C5F2EB11A0FB01235E
:102A60005A096FF0630302FB0300322303EBC0003B
:102A7000A0FB01014FF4F87000EA111000EB021006
:102A8000C1F342111AE09A009B0FFDF7EFFB48F2E9
:102A90001F51C5F2EB11A0FB01235A096FF063032C
:102AA00002FB0300322303EB0010A0FB0101F02026
:102AB00000EA511000EB0210C1F3431122680843F1
:102AC000906010BD70B582B0134600260446816246
:102AD00083854664222084F842000A462168E06B20
:102AE00042F2F97C42F67D0E42F2AD75C0F6000C62
:102AF000C0F6000EC0F600050431C0E90FCEC0E9F3
:102B00001356FEF7B1F901962068016801914068FB
:102B100001900198206948B1206850E8030F2168AE
:102B200040F4807041E80302002AF5D1206850E8A3
:102B3000050F216840F0010041E80502002AF5D1A7
:102B4000206850E8050F216840F0400041E8050288
:102B5000002AF5D1002002B070BD000090F84110AD
:102B6000212923D18168B1F5805F01D1016931B19B
:102B7000016A02684B1C03620978516007E0016A30
:102B8000036831F8022B6FF35F225A600162C18C37
:102B900001390A04C18418BF70470068C16821F078
:102BA0008001C160C16841F04001C1607047000010
:102BB00080B540F2DC30C2F20000FEF7CFFF80BDEE
:102BC00080B540F22440C2F20000FEF7C7FF80BD8E
:102BD00080B540F26C40C2F20000FEF7BFFF80BD3E
:102BE000FEE7000080B500F0DDF880BD80B500F0A4
:102BF000D1F880BD80B500F0C5F880BD80B540F249
:102C0000244040F27B01C2F20000C2F20001122215
:102C1000FEF770FF80BD000080B586B040F2244210
:102C2000C2F20002904208BF122915D1684600F096
:102C300021F840F290009DE80E50C2F2000080E8BA
:102C40000E10BDF81410C0F810E0818240F2A80008
:102C5000C2F2000000F04EF840F2244040F27B0146
:102C6000C2F20000C2F200011222FEF743FF06B0DA
:102C700080BD000080B500210160416081608182DB
:102C80000161C16040F27B01C2F200010A784B7819
:102C900091F802C063F30A2291F803E00280DA0897
:102CA0006CF34A120B7942804FEA8E0242EA9C1C76
:102CB00003F001024CEA822282804A795B0862F3C7
:102CC000CA13C38093090372C2F301124272CA8805
:102CD0000B8942814A8983810B7BC2814A7BC989E6
:102CE00003744274418280BD10B50446FFF786FF2D
:102CF000204610BD10B50446FEF7BCF9206010BD9B
:102D0000002848BF704700F01F01012202FA01F1BC
:102D10004EF200124009CEF2000242F82010704735
:102D20004EF60C50CEF200000068C0F3022070474F
:102D30004EF6145300F00F02CEF2000309011A44BC
:102D400000F16043B0F1FF3FC8BF03F5644211706A
:102D5000704700004EF61F50CEF2000000210170B7
:102D6000704700004EF60C51CEF200010A684FF693
:102D7000FF031A4060F30A2242F0806040F0FD70C9
:102D80000860704780B540F27800C2F20000FFF79B
:102D9000ABFF80BD80B540F27900C2F20000FFF7C2
:102DA000A3FF80BD80B540F27A00C2F20000FFF7B9
:102DB0009BFF80BD72B6FEF771F9FFF7E9FBFFF7E5
:102DC00085FAFFF7F3F9FFF7B5F9FFF7D1F9FFF748
:102DD00007FBFFF721FBFFF741FBFFF7D7FAFFF7F0
:102DE0009FF900F017F8FFF72FFA00F027F800BF5F
:102DF000FEE70000EFF3058100291CBF6FF005001E
:102E00007047002804BF0020704780B500F070FFB5
:102E1000002080BDEFF3058000281CBF6FF0050087
:102E2000704740F27400C2F200000168002911BF2F
:102E30004FF0FF30012101600020704710B5EFF323
:102E4000058000281CBF6FF0050010BD40F274041F
:102E5000C2F20004206801281CBF4FF0FF3010BDF3
:102E6000FFF780FB0220206000F0BCFF002010BDB7
:102E700070B584B08E46002100280391EFF30581E0
:102E80004DD000294BD1F2B19369002B08BF182314
:102E9000382B15D81179C90712D155699468116872
:102EA0004FEA950C002D08BF4FF0800C9CB1D668FE
:102EB0005C2E0FD375B1156965B1012484B922E088
:102EC000002004B070BD002118234FF0800C0024B6
:102ED00034B918E00CB9D46874B14FF0FF3494B130
:102EE000012C1CD194681269CDE900326246734608
:102EF000029401F0C3FB11E01469002C18BF4FF0DD
:102F0000FF34002CECD103AC00931FFA8CF2734613
:102F1000019401F07FFB012801D000200390039869
:102F200004B070BDF0B581B00D4644F6F85140F2E2
:102F3000A856C2F20001C2F200060F6831680446CA
:102F4000081D00F05BFD601C0AD14DB13068011D09
:102F500044F6D050C2F2000000F0AEFD01B0F0BD6A
:102F60003068E41944600AD340F2B850C2F200005D
:102F700000683168043100F081FD01B0F0BD40F21D
:102F8000B050C2F2000000683168043100F076FDF4
:102F900044F65C50C2F2000001688C4238BF046005
:102FA00001B0F0BD70B5044600F09EFD44F2306003
:102FB000C2F20000016840F2A85501310160C2F27E
:102FC0000005296844F6C456C2F2000641B13068D3
:102FD00060B92868E16AC06A884298BF2C6005E041
:102FE0002C600068012801D100F0C4F944F23C6073
:102FF000C2F20000016801310160616444F2406185
:10300000C2F20001E06A0A68904288BF086040F29C
:10301000C05100EB8000C2F2000101EB8000211DD5
:1030200000F04AFD00F084FD306880B12868E16A54
:10303000C06A884228BF70BD4EF60450CEF2000030
:103040004FF080510160BFF34F8FBFF36F8F70BDA2
:1030500070B582B000F048FD44F6FC56C2F200069E
:10306000306850BB44F6FC44C2F20004204600F035
:10307000F5FC44F61055C2F20005284600F0EEFCBF
:1030800040F2AC50C2F20000046040F2BC50C2F208
:10309000000040F2B44240F2545305600025C2F2F1
:1030A0000002C2F200030A201021009500F0E8FFA0
:1030B000306010B103A100F0E5FD00F039FD02B071
:1030C00070BD00BF546D725100000000F0B581B0BA
:1030D00044F23465C2F200052868E0B144F6E456D3
:1030E00044F23067C2F20006C2F2000700F0FCFCB6
:1030F000F068C468201D00F081FC38680138386031
:1031000028680138286000F013FD204600F058F8C8
:1031100028680028EAD101B0F0BD000080B5026C3B
:10312000002A08BF80BDD0E902C31344C3606345D1
:1031300024BF0368C360C36808461946FDF70EF94B
:1031400080BD000070B5866B036C0446E3B1154684
:103150001AB3E0681A46FDF701F9E168206C2268AD
:10316000091A9142E16003D2A16840420844E0603C
:10317000A81EB0FA80F040093146002E18BF012188
:103180000840361A002516E02068002598B9A06886
:1031900001F074FBA56005460DE060681A46FDF776
:1031A000DDF8216CD4E901020025084460609042FA
:1031B00024BF20686060711C2846A16370BD0000B8
:1031C00010B5044690F85900022808BF10BD012828
:1031D00003D030B9206B00F0C3FC204600F0C0FCE7
:1031E00010BD4FF0500080F31188BFF36F8FBFF315
:1031F0004F8F00BFFEE7000040F2AC51C2F2000169
:1032000009680A68B2FA82F35B090360002A0EBFFC
:103210000020C8680068704740F62420C2F2000011
:10322000C21D22F0070210F0070CA0EB020318BF2A
:10323000104644F6C852C2F200020021C2E9000161
:103240004FF47052BCF1000F18BF03F570520244E6
:10325000083A40F2B45322F00702C2F200031A60A7
:10326000C2E90011111A1A68C0E9002144F6585049
:10327000C2F20000016044F65050C2F2000001604A
:1032800044F62450C2F20000012101707047000092
:1032900040F2C0544EF60455C2F20004CEF20005CE
:1032A0004FF08056FFF712FF20680228FAD32E60F5
:1032B000BFF34F8FBFF36F8FF4E70000B0B5049DED
:1032C000002914BF2A602D60C5E90F01284601219D
:1032D0001C4600F021FF85F84C40B0BD2DE9F047B9
:1032E0000A9C8246206B16460F46DDE9085991007C
:1032F000A5229846FDF777F8206B00EB8600A0F139
:10330000040020F007067FB104F13400002100BF63
:103310007A5C42547A5C1AB10F2901F10101F7D3AA
:10332000002084F8430002E0002084F834000027E5
:10333000201D372D28BF3725E562C4E9135700F05B
:1033400099FB04F1180000F095FBC5F13800A0616D
:1033500030465146424624616462676584F858707D
:1033600000F038FBB9F1000F206018BFC9F8004029
:10337000BDE8F087B0B540F2C0550024C2F20005A8
:10338000281900F06BFB1434B4F58C6FF8D144F6B7
:103390002854C2F20004204600F060FB44F63C557D
:1033A000C2F20005284600F059FB44F67050C2F204
:1033B000000000F053FB44F6E450C2F2000000F0BD
:1033C0004DFB44F6D050C2F2000000F047FB40F243
:1033D000B050C2F20000046040F2B850C2F20000E7
:1033E0000560B0BD80B544F6C852C2F2000200BF0D
:1033F000114612688242FBD3D1F804C001EB0C03E2
:10340000834203D14068604448600846D0F804E035
:1034100000EB0E03934201D0026010E040F2B4537F
:10342000C2F20003D3F800C0624506D00B685268B0
:103430001B687244C0E9003201E0C0F800C081425C
:1034400018BF086080BD000080B58C46014641F879
:1034500004CF9445006108D99A4201D29C4511D20B
:1034600040F2AC50C2F2000007E08069D21A8242FA
:1034700008D240F2BC50C2F20000006800F0FEFA30
:10348000002080BD012080BD10B5044600F02CFB5B
:10349000A06BB0FA80F0440900F04AFB204610BD52
:1034A00010B5044600F020FBA06BE16B401AB0FAA7
:1034B00080F0440900F03CFB204610BD084800683D
:1034C000006880F308884FF0000080F3148862B62B
:1034D00061B6BFF34F8FBFF36F8F00DF00BF00BF38
:1034E00008ED00E070B582B040F2AC52C2F20002CA
:1034F00012680546D2680E46D468201D00F07EFA98
:1035000094F82800410704D400F0FE0084F8280055
:1035100010E0A0693246411920462B46FFF794FF80
:1035200040B10026204600212A460023009601F0E3
:1035300001FB20B1216A2046884702B070BD4FF0E0
:10354000500080F31188BFF36F8FBFF34F8F00BF20
:10355000FEE700002DE9F04186B044F6FC57C2F2C8
:103560000007386802A900224FF0000800F04EFF63
:1035700000286AD001AC02AD0BE000F0FE0086F836
:10358000280000BF38682946002200F03FFF0028CD
:103590005BD00298B0F1FF3F03DCDDE90320059921
:1035A000904702980028EDD4049E706910B1301D38
:1035B00000F024FA204600F0B3F802990929E1D876
:1035C0000246DFE801F0080808052A390808052A3C
:1035D00096F82800D1E796F82800039BB16940F0DF
:1035E000010086F8280019443046FFF72DFF002817
:1035F000C8D0316A3046884796F828004007C1D5C0
:103600000398B16900230A1830460021CDF80080E4
:1036100001F090FA0028B5D123E096F8280040F098
:103620000101039886F82810B06188B181183046EE
:103630001346FFF709FFA5E796F8280081073FF535
:103640009CAF304600F08CFA9CE706B0BDE8F081F4
:103650004FF0500080F31188BFF36F8FBFF34F8F8F
:10366000FEE74FF0500080F31188BFF36F8FBFF378
:103670004F8F00BFFEE7000070B582B00E460446D3
:1036800000F004FC01A800F04BF8019919B101F019
:1036900087F902B070BD05464EB9A54207D301F0C7
:1036A0007FF920462946FFF71DFF02B070BD4EB1DD
:1036B00040F2BC50C2F2000000680068B0FA80F02E
:1036C000420900E0002244F6FC50C2F2000000680B
:1036D000611B00F0EBFA01F063F90028D9D14EF636
:1036E0000450CEF200004FF080510160BFF34F8FC5
:1036F000BFF36F8F02B070BD40F2B050C2F2000055
:103700000168096821B10068C068C068406801E0CC
:103710004FF0FF3044F65C51C2F200010860704780
:1037200070B5044600F0FAFF40F2A456C2F200065B
:1037300031680546884203D200F008F8012000E015
:10374000002020602846356070BD00002DE9F04162
:1037500082B040F2AC57C2F200073868016891B3FA
:103760004FF0000809E000BF606038682946246116
:1037700000F084F93868016829B3C068C468066835
:10378000251D284600F03AF9216A2046884794F81A
:1037900028004007EED5A0693044B042E4D8204666
:1037A000002132460023CDF8008001F0C3F9002843
:1037B000E0D14FF0500080F31188BFF36F8FBFF35B
:1037C0004F8F00BFFEE740F2BC51C2F200010A6811
:1037D00008603A6002B0BDE8F081000081B00020CE
:1037E000009040F20C00C2F2000000684FF050015F
:1037F00081F31188BFF36F8FBFF34F8F013001D07A
:10380000FEE700BF00980028FCD001B07047000020
:1038100082B001AC2046FFF7EFFC0199FFF72CFFC7
:10382000FFF798FEF6E70000F0B581B0044600F01F
:103830005BF994F94560012E0FDB04F1240500BF0C
:10384000286850B1284601F063F8002818BF00F03E
:1038500087FA70B2013E0128F2DCFF2684F8456049
:1038600000F066F900F040F994F94470012F0EDB86
:1038700004F11005286850B1284601F049F80028E5
:1038800018BF00F06DFA78B2013F0128F2DC84F82D
:10389000446000F04DF901B0F0BD00002DE9F047A3
:1038A000044600F0F3FA40F2B45AC2F2000ADAF821
:1038B0000000002808BFFFF7AFFC44F62450C2F216
:1038C00000000578002D18BF4FF0004525420ED0AE
:1038D000002401F065F8600735D04FF0500080F308
:1038E0001188BFF36F8FBFF34F8F00BFFEE74CB15E
:1038F000083414F007001EBF201A00F108045FEA24
:10390000447023D144F65058C2F20008D8F8009011
:10391000601E4845DCD244F6C850C2F2000006687A
:10392000374657F8041FA1421DD23068B8B100BF16
:1039300030463668374657F8041FA14213D2326822
:10394000002AF5D10FE02046BDE8F0874FF0500087
:1039500080F31188BFF36F8FBFF34F8FFEE744F6FC
:10396000C850C2F20000DAF800209642B0D0D0F879
:1039700000A03268091B1129026010D330194207D8
:1039800009D04FF0500080F31188BFF36F8FBFF361
:103990004F8F00BFFEE741603C60FFF723FD44F618
:1039A00058513868C2F200010B68A9EB00029A4234
:1039B000C8F8002038BF0A600021316044F6645125
:1039C000C2F200010A6828430AF108043860501C5A
:1039D00008607EE7034643F2DD70C0F600004FF05A
:1039E000807C21F0010103E903106FF0020043F82D
:1039F000240CA3F1440043F8202C7047D0E90123A4
:103A0000016993604B68D0F808C08342CCF8042069
:103A100001D182684A6000220261086801380860AA
:103A20000868704744F64403C2F20003036044F29E
:103A30004460C2F2000008608020106070470000FF
:103A400044F6A043C2F20003036044F6A000C2F2B1
:103A5000000008604FF48070106070474FF0FF3135
:103A6000024642F8081F00214260C0E903220160BB
:103A700070470000002101617047000080B5D1F857
:103A800000C01CF1010207D000F108039E465B68EC
:103A90001A686245FAD901E0D0F810E0DEF8042097
:103AA00008614A609160C1F808E0CEF8041001682E
:103AB0000131016080BD0000D0F800C0436808619A
:103AC0009A684B608A609A68996051600CF10101B4
:103AD00001607047DFF80C00016841F4700101607B
:103AE000704700BF88ED00E04FF0500080F3118870
:103AF000BFF36F8FBFF34F8F40F20C00C2F2000094
:103B000001684A1C026001B170474EF60450CEF2C3
:103B100000000068000608BF70474FF0500080F3B7
:103B20001188BFF36F8FBFF34F8F00BFFEE7000018
:103B300040F20C00C2F20000016839B101390160A5
:103B400018BF7047002080F3118870474FF0500075
:103B500080F31188BFF36F8FBFF34F8FFEE7000034
:103B6000B0B5002808BFB0BD044644F62450C2F2E8
:103B70000000007854F8041C002818BF4FF00040E3
:103B800008420CD0A4F108052A6892B14FF0500009
:103B900080F31188BFF36F8FBFF34F8FFEE74FF0B5
:103BA000500080F31188BFF36F8FBFF34F8F00BFBA
:103BB000FEE721EA000044F8040C00F067F944F63F
:103BC0005051C2F2000154F8040C0A681044086015
:103BD0002846FFF707FC44F66850C2F2000001686F
:103BE0000131016000F0DCFEB0BD00004EF21000BB
:103BF000CEF2000000210160816040F20001C2F2BB
:103C00000001096844F6D352C1F26202A1FB02121C
:103C10004FF0FF3101EB92114160072101607047C5
:103C2000EFF30580102814D34EF2F031CEF20001EC
:103C3000405C44F22461C2F200010978884208D253
:103C40004FF0500080F31188BFF36F8FBFF34F8F99
:103C5000FEE74EF60C50CEF2000044F228610068F8
:103C6000C2F20001096800F4E060884298BF704722
:103C70004FF0500080F31188BFF36F8FBFF34F8F69
:103C8000FEE7000044F6845C0022C2F2000C00BF94
:103C90005CF8323023B10132082A08BF7047F7E7D9
:103CA0000CEBC2034CF832105860704770B51546E3
:103CB0000E460446FFF718FF94F84400FF2804BF9F
:103CC000002084F8440094F84500FF2804BF002039
:103CD00084F84500FFF72CFFA06B28B904F12400FD
:103CE00031462A4600F05EF82046FFF79DFD70BD84
:103CF00010B5D8B1044644F23860C2F20000006842
:103D000048B14FF0500080F31188BFF36F8FBFF3BD
:103D10004F8F00BFFEE700F0B9F820460021FFF703
:103D200001F900F03DFE002818BF10BD4EF604500A
:103D3000CEF200004FF080510160BFF34F8FBFF310
:103D40006F8F10BD44F66051C2F200010968016036
:103D500044F6F851C2F20001096841607047000062
:103D600044F60460C2F200000121016070470000C7
:103D700010B568B10C4640F2A851C2F200010968C2
:103D80001831FFF77BFE20460121FFF7CBF810BD6D
:103D90004FF0500080F31188BFF36F8FBFF34F8F48
:103DA000FEE70000B0B590B10D4640F2A851C2F256
:103DB0000001096814461831FFF77EFE002C18BF79
:103DC0004FF0FF3528462146FFF7ACF8B0BD4FF065
:103DD000500080F31188BFF36F8FBFF34F8F00BF88
:103DE000FEE70000B0B586B0002505A804A903AA27
:103DF000CDE90455FFF716FEDDE90320059CCDE96A
:103E0000005043F29120C0F600001EA1002302944E
:103E100000F034FC44F65451C2F20001002808605E
:103E20001CBF012000F046FE411C20D001281CD1FF
:103E30004FF0500080F31188BFF36F8FBFF34F8FA7
:103E400044F65C50C2F200004FF0FF31016044F6CE
:103E5000C450C2F200000121016044F6F850C2F2E1
:103E600000000021016000F067F806B0B0BD4FF01F
:103E7000500080F31188BFF36F8FBFF34F8F00BFE7
:103E8000FEE700BF49444C450000000044F23860A2
:103E9000C2F20000016801310160704744F23860ED
:103EA000C2F20000006830B144F60460C2F20000C3
:103EB00001210160704744F60460C2F20000002155
:103EC00044F2406C0160C2F2000CDCF8001040F2D9
:103ED000C05201EB8103C2F2000252F8230048B93C
:103EE00002EB8300A0F11403D9B153F8140901398E
:103EF0000028F9D001EB810002EB800252F8040F98
:103F00004368101D8342136001D158681060106827
:103F100040F2A852C068C2F200021060CCF8001053
:103F200070474FF0500080F31188BFF36F8FBFF3DD
:103F30004F8F00BFFEE7000080B582B04EF2004018
:103F4000CEF200004CF27021C4F20F11D0F800291B
:103F50004B1C9A4209D14FF0500080F31188BFF3F7
:103F60006F8FBFF34F8F00BFFEE7D0F800298A4262
:103F700009D14FF0500080F31188BFF36F8FBFF36A
:103F80004F8F00BFFEE7017844F224620191FF21C8
:103F900001700178C2F200028DF803109DF8031041
:103FA00001F05001117044F22861C2F200010722B1
:103FB0000A609DF90330B3F1FF3F2FDD032A3CD1A6
:103FC0004FF4E06303EA02220A6001990170D0F81D
:103FD000201941F47001C0F82019D0F8201941F0DF
:103FE0007041C0F82019FFF701FE40F20C00C2F248
:103FF000000000210160FFF76DFD4EF63470CEF237
:104000000000016841F040410160FFF757FAFFF7F7
:1040100045FFFFF7E3FB002002B080BD072200BF91
:104020009DF80330013A5B008DF803309DF90330B1
:10403000002BF5D40A60032AC2D04FF0500080F361
:104040001188BFF36F8FBFF34F8F00BFFEE70000F3
:1040500080B54FF0500080F31188BFF36F8FBFF32E
:104060004F8F00F061FB30B14EF60450CEF20000ED
:104070004FF080510160002080F3118880BD000066
:10408000B0B582B068B11D46ABB1F1B9EAB14FF03D
:10409000500080F31188BFF36F8FBFF34F8F00BFC5
:1040A000FEE74FF0500080F31188BFF36F8FBFF32E
:1040B0004F8F00BFFEE74FF0500080F31188BFF331
:1040C0006F8FBFF34F8F00BFFEE751B14AB94FF07A
:1040D000500080F31188BFF36F8FBFF34F8F00BF85
:1040E000FEE750230193019B502B0AD1069B019CB4
:1040F000012485F846400095FFF7E0F8284602B015
:10410000B0BD4FF0500080F31188BFF36F8FBFF345
:104110004F8F00BFFEE7000070B5F8B104460E46B1
:10412000FFF7E2FC2068D4E90F12002502FB01032F
:10413000013901FB0201A563C4E90103FF20E1602D
:1041400084F8440084F8450004F110007EB1FFF7C4
:1041500085FC04F12400FFF781FC18E04FF05000CB
:1041600080F31188BFF36F8FBFF34F8FFEE70168B5
:1041700069B100F0CDFB50B14EF60450CEF2000014
:104180004FF080510160BFF34F8FBFF36F8FFFF788
:10419000CFFC012070BD00002DE9F04F83B00292EA
:1041A000B8B11D460E460446E9B1022D03D1E06BBD
:1041B000012840F09A8000F09DFA00BB0298F0B10F
:1041C0004FF0500080F31188BFF36F8FBFF34F8F14
:1041D000FEE74FF0500080F31188BFF36F8FBFF3FD
:1041E0004F8F00BFFEE7206C0028DED04FF050005C
:1041F00080F31188BFF36F8FBFF34F8FFEE7FFF798
:1042000073FCA06B022D58D0E16B884255D304F1AA
:1042100010084FF0000B6F460DF108094FF0000A2F
:104220000298002800F07D80BAF1000F04D13846D2
:10423000FFF788FD4FF0010AFFF77AFCFFF726FE33
:10424000FFF752FC94F84400FF2808BF84F844B0FC
:1042500094F84500FF2808BF84F845B0FFF768FCD4
:104260003846494600F092F900285DD12046FFF714
:1042700017F9A8B102994046FFF77AFD2046FFF7EB
:10428000D3FA00F08DFB80B94EF60450CEF2000058
:104290004FF080510160BFF34F8FBFF36F8F04E089
:1042A0002046FFF7C1FA00F07BFBFFF71DFCA06B77
:1042B000022D02D0E16B8842B2D2204631462A4616
:1042C000FEF740FF54F8241FC9B1204600F020FB40
:1042D00008B34EF60450CEF200004FF0805101605A
:1042E000BFF34F8FBFF36F8F15E04FF0500080F397
:1042F0001188BFF36F8FBFF34F8F00BFFEE750B140
:104300004EF60450CEF200004FF080510160BFF332
:104310004F8FBFF36F8FFFF70BFC012003B0BDE899
:10432000F08FFFF705FC04E02046FFF77DFA00F070
:1043300037FB002003B0BDE8F08F00002DE9F0430B
:1043400081B0E8B11E46914605460F4609B3022EDC
:1043500002D1E86B012837D1FFF762FCEFF3118837
:104360004FF0500080F31188BFF36F8FBFF34F8F72
:10437000A86B022E19D0E96B884216D300203FE0CB
:104380004FF0500080F31188BFF36F8FBFF34F8F52
:10439000FEE7286C0028DAD04FF0500080F3118837
:1043A000BFF36F8FBFF34F8FFEE795F84540A86BC3
:1043B000284639463246FEF7C5FEFF2C0DD0601C5C
:1043C00085F8450001201BE04FF0500080F3118874
:1043D000BFF36F8FBFF34F8FFEE755F8240F70B117
:1043E000284600F095FA0146B9F1000F4FF00100A0
:1043F00006D000291CBF0120C9F8000000E0012000
:1044000088F3118801B0BDE8F08300002DE9F04F7A
:1044100085B0049298B10C460546002900F0A380AF
:1044200000F068F9A8B9049898B14FF0500080F3F3
:104430001188BFF36F8FBFF34F8F00BFFEE74FF0C0
:10444000500080F31188BFF36F8FBFF34F8F00BF11
:10445000FEE705F124000090002005F110094FF05F
:10446000000B02AF0DF1100A01900AE02846FFF799
:10447000DBF900F095FA2846FFF706F8002840F02F
:104480008080FFF731FBD5F83880B8F1000F1DD0E0
:1044900028462146FEF742FEA8F10100A8632869DC
:1044A00070B1484600F034FA50B14EF60450CEF2E6
:1044B00000004FF080510160BFF34F8FBFF36F8F4B
:1044C000FFF736FB0020012690B95BE0049848B165
:1044D000019820B93846FFF735FC012001900120F2
:1044E00030B94FE0FFF724FB00260020002849D018
:1044F000FFF71EFBFFF7CAFCFFF7F6FA95F844003A
:10450000FF2808BF85F844B095F84500FF2808BF8C
:1045100085F845B0FFF70CFB3846514600F036F8F9
:104520000028A3D12846FEF7AFFFB0B10499009848
:10453000FFF71EFC2846FFF777F900F031FA002854
:104540009FD14EF60450CEF200004FF08051016032
:10455000BFF34F8FBFF36F8F93E72846FFF764F9E0
:1045600000F01EFA8DE7286C00283FF459AF4FF099
:10457000500080F31188BFF36F8FBFF34F8F00BFE0
:10458000FEE70026304605B0BDE8F08FB0B5D0B1EB
:104590000D4611B30446FFF7A7FA44F6F850C2F2ED
:1045A000000001682868421C21D044F6605362680C
:1045B000C2F20003D3F800C091421AD323689C458D
:1045C00017D0012422E04FF0500080F31188BFF390
:1045D0006F8FBFF34F8F00BFFEE74FF0500080F3A7
:1045E0001188BFF36F8FBFF34F8F00BFFEE700242A
:1045F0000CE0891A884206D9401A28602046FFF745
:10460000A1FB002402E0002001242860FFF790FABB
:104610002046B0BD2DE9F04383B007469000984690
:1046200015468946FFF73AF978B106465C20FFF750
:1046300035F938B10446066354B94FF0FF3003B082
:10464000BDE8F0833046FFF78BFA0024002CF4D04D
:10465000DDE90A10002284F85920CDE9001038461F
:1046600049462A4643460294FEF738FE2046FEF7A6
:1046700099FC012003B0BDE8F083000070B586B05E
:104680000B9CCCB10C9E06B35C250495049D5C2D5F
:1046900025D1049DDDF828C0022586F8595005ADC6
:1046A0003463CDE900C50296FEF718FE3046FEF7EA
:1046B00079FC059806B070BD4FF0500080F311886A
:1046C000BFF36F8FBFF34F8FFEE74FF0500080F3C3
:1046D0001188BFF36F8FBFF34F8F00BFFEE74FF01E
:1046E000500080F31188BFF36F8FBFF34F8F00BF6F
:1046F000FEE7000044F6C450C2F200000068002843
:1047000004BF0120704744F23860C2F20000006824
:10471000B0FA80F0400940007047000044F6F850BD
:10472000C2F20000006870472DE9F04F81B044F2FA
:104730003860C2F20000006840B144F66C50C2F22A
:104740000000016800240131016092E044F6F85055
:10475000C2F2000001684E1C066021D340F2B05046
:10476000C2F200000168096849B14FF0500080F3BF
:104770001188BFF36F8FBFF34F8F00BFFEE740F28A
:10478000B852C2F2000201681368036044F6605038
:104790001160C2F20000016801310160FEF7ACFF58
:1047A00044F65C51C2F20001086840F2A85A40F297
:1047B000C0588642C2F2000AC2F2000801D20024A8
:1047C00045E040F2B057C2F20007386800240068A4
:1047D00098B344F2406BC2F2000B19E0D9F82C00F8
:1047E000DBF80010884288BFCBF8000000EB8000A7
:1047F00008EB80002946FFF75FF9D9F82C00DAF8BA
:104800000010C96A3A68884228BF01241068B8B10C
:104810003868C068D0F80C904D4655F8040F8642B1
:1048200010D32846FFF7EAF8D9F828000028D5D099
:1048300009F11800FFF7E2F8D0E74FF0FF3005E08C
:104840004FF0FF3044F65C51C2F200010860DAF824
:104850000000C06A00EB800058F82000012844F6F0
:104860000460C2F2000088BF01240068002818BF5D
:104870000124204601B0BDE8F08F0000B0B580B142
:10488000044640F2A850C2F200000068A0420AD0DC
:104890004FF0500080F31188BFF36F8FBFF34F8F3D
:1048A000FEE70020B0BD206D38B3013820654FF021
:1048B000000018BFB0BDE16AE26C91421CD0251D1A
:1048C0002846FFF79BF8E06CC0F13801A16144F283
:1048D0004061E062C2F200010A68904288BF08604D
:1048E00040F2C05100EB8000C2F2000101EB8000F9
:1048F0002946FFF7E1F80120B0BD4FF0500080F3EA
:104900001188BFF36F8FBFF34F8F00BFFEE700002A
:10491000B0B5C068C5687DB105F118042046FFF741
:104920006DF844F23860C2F20000006868B144F6E5
:104930007050C2F200001DE04FF0500080F311886B
:10494000BFF36F8FBFF34F8FFEE72C1D2046FFF79D
:1049500055F844F24061C2F20001E86A0A689042E8
:1049600088BF086040F2C05100EB8000C2F2000135
:1049700001EB80002146FFF79FF840F2A851C2F2F8
:104980000001E86A0968C96A884291BF002044F6BC
:104990000461C2F20001012088BF0860B0BD0000C0
:1049A0002DE9F04F81B044F23864C2F2000420686F
:1049B00068B1FFF799F8206801382060206880B15D
:1049C0000024FFF7B5F8204601B0BDE8F08F4FF0A6
:1049D000500080F31188BFF36F8FBFF34F8F00BF7C
:1049E000FEE744F23060C2F20000006800285DD0AB
:1049F00044F67056C2F20006306844F60468C2F20B
:104A0000000890B344F2406740F2C05940F2A85BFE
:104A1000C2F20007C2F20009C2F2000B4FF0010A15
:104A2000F068C56805F11800FEF7E8FF2C1D204668
:104A3000FEF7E4FFE86A3968884288BF386000EB17
:104A4000800009EB80002146FFF736F8E86ADBF8C2
:104A50000010C96A884228BFC8F800A03068002842
:104A6000DED1002D18BFFEF747FE44F66C54C2F2AB
:104A70000004256855B10126FFF756FE002818BF2F
:104A8000C8F80060013DF7D100202060D8F8000090
:104A900070B14EF60450CEF200004FF0805101602C
:104AA000BFF34F8F0124BFF36F8F8AE7002488E79D
:104AB000002486E780B586B0FEF7CAFA44F6FC50BB
:104AC000C2F20000006800284FF000001FD0CDE9BE
:104AD000040005A804A903AAFEF7B2FFDDE903203C
:104AE0000221DDF814C0CDE9001043F61100C0F634
:104AF00000000EA10023CDF808C0FFF7BFFD44F66B
:104B00000061C2F200010860002818BF01200028DF
:104B10001CBF06B080BD4FF0500080F31188BFF37A
:104B20006F8FBFF34F8F00BFFEE700BF546D722041
:104B30005376630010B584B0A8B144F6FC54C2F2B9
:104B4000000484462068C0B10529CDE90012CDF8E3
:104B500008C015DCFFF7CEFD01462068022916D1FA
:104B6000069A694615E04FF0500080F31188BFF3B4
:104B70006F8FBFF34F8F00BFFEE7002004B010BD62
:104B800069461A460023FFF7D9FB04B010BD6946F9
:104B900000220023FFF700FB04B010BDF1EE100A65
:104BA0004FF6FF71C0F2C03120EA010040F04070C2
:104BB000E1EE100A70470000000000000000010252
:104BC00003040607080900000000010203040000B6
:104BD0007A4C000800000000000000000000000007
:104BE00000000000000200001800000000000000AB
:104BF00000000000604C0008000000000000000001
:104C0000000000000000000000020000180000008A
:104C10000000000000000000864C000800000000BA
:104C20000000000000000000000000000002000082
:104C3000180000000000000000000000704C000898
:104C40000000000000000000000000000000000064
:104C5000000200001800000000000000000000003A
:104C6000636F6D6D756E69636174696F6E54610019
:104C700072656665655461736B006368617373691F
:104C8000735461736B0064656661756C7454617311
:104C90006B000000C04C0008000000201000000065
:104CA000C4010008D04C000810000020F853000098
:104CB000E001000841DFFFFF35DFFFFF29DFFFFFD5
:104CC0000024F4000100000010000000AAAAAAAA13
:040000050800018965
:00000001FF
